{
  "_format": "hh-sol-artifact-1",
  "contractName": "CurveBondedToken",
  "sourceName": "contracts/CurveBondedToken.sol",
  "abi": [
    {
      "inputs": [
        {
          "internalType": "string",
          "name": "_name",
          "type": "string"
        },
        {
          "internalType": "string",
          "name": "_symbol",
          "type": "string"
        },
        {
          "internalType": "uint256",
          "name": "_reserveRatio",
          "type": "uint256"
        }
      ],
      "stateMutability": "nonpayable",
      "type": "constructor"
    },
    {
      "anonymous": false,
      "inputs": [
        {
          "indexed": true,
          "internalType": "address",
          "name": "owner",
          "type": "address"
        },
        {
          "indexed": true,
          "internalType": "address",
          "name": "spender",
          "type": "address"
        },
        {
          "indexed": false,
          "internalType": "uint256",
          "name": "value",
          "type": "uint256"
        }
      ],
      "name": "Approval",
      "type": "event"
    },
    {
      "anonymous": false,
      "inputs": [
        {
          "indexed": true,
          "internalType": "address",
          "name": "sender",
          "type": "address"
        },
        {
          "indexed": false,
          "internalType": "uint256",
          "name": "amount",
          "type": "uint256"
        },
        {
          "indexed": false,
          "internalType": "uint256",
          "name": "reimbursement",
          "type": "uint256"
        }
      ],
      "name": "CurvedBurn",
      "type": "event"
    },
    {
      "anonymous": false,
      "inputs": [
        {
          "indexed": true,
          "internalType": "address",
          "name": "sender",
          "type": "address"
        },
        {
          "indexed": false,
          "internalType": "uint256",
          "name": "amount",
          "type": "uint256"
        },
        {
          "indexed": false,
          "internalType": "uint256",
          "name": "deposit",
          "type": "uint256"
        }
      ],
      "name": "CurvedMint",
      "type": "event"
    },
    {
      "anonymous": false,
      "inputs": [
        {
          "indexed": true,
          "internalType": "address",
          "name": "previousOwner",
          "type": "address"
        },
        {
          "indexed": true,
          "internalType": "address",
          "name": "newOwner",
          "type": "address"
        }
      ],
      "name": "OwnershipTransferred",
      "type": "event"
    },
    {
      "anonymous": false,
      "inputs": [
        {
          "indexed": true,
          "internalType": "address",
          "name": "from",
          "type": "address"
        },
        {
          "indexed": true,
          "internalType": "address",
          "name": "to",
          "type": "address"
        },
        {
          "indexed": false,
          "internalType": "uint256",
          "name": "value",
          "type": "uint256"
        }
      ],
      "name": "Transfer",
      "type": "event"
    },
    {
      "inputs": [
        {
          "internalType": "address",
          "name": "owner",
          "type": "address"
        },
        {
          "internalType": "address",
          "name": "spender",
          "type": "address"
        }
      ],
      "name": "allowance",
      "outputs": [
        {
          "internalType": "uint256",
          "name": "",
          "type": "uint256"
        }
      ],
      "stateMutability": "view",
      "type": "function"
    },
    {
      "inputs": [
        {
          "internalType": "address",
          "name": "spender",
          "type": "address"
        },
        {
          "internalType": "uint256",
          "name": "amount",
          "type": "uint256"
        }
      ],
      "name": "approve",
      "outputs": [
        {
          "internalType": "bool",
          "name": "",
          "type": "bool"
        }
      ],
      "stateMutability": "nonpayable",
      "type": "function"
    },
    {
      "inputs": [
        {
          "internalType": "address",
          "name": "account",
          "type": "address"
        }
      ],
      "name": "balanceOf",
      "outputs": [
        {
          "internalType": "uint256",
          "name": "",
          "type": "uint256"
        }
      ],
      "stateMutability": "view",
      "type": "function"
    },
    {
      "inputs": [
        {
          "internalType": "uint256",
          "name": "_amount",
          "type": "uint256"
        }
      ],
      "name": "calculateCurvedBurnReturn",
      "outputs": [
        {
          "internalType": "uint256",
          "name": "burnAmount",
          "type": "uint256"
        }
      ],
      "stateMutability": "view",
      "type": "function"
    },
    {
      "inputs": [
        {
          "internalType": "uint256",
          "name": "_amount",
          "type": "uint256"
        }
      ],
      "name": "calculateCurvedMintReturn",
      "outputs": [
        {
          "internalType": "uint256",
          "name": "mintAmount",
          "type": "uint256"
        }
      ],
      "stateMutability": "view",
      "type": "function"
    },
    {
      "inputs": [
        {
          "internalType": "uint256",
          "name": "_supply",
          "type": "uint256"
        },
        {
          "internalType": "uint256",
          "name": "_connectorBalance",
          "type": "uint256"
        },
        {
          "internalType": "uint32",
          "name": "_connectorWeight",
          "type": "uint32"
        },
        {
          "internalType": "uint256",
          "name": "_depositAmount",
          "type": "uint256"
        }
      ],
      "name": "calculatePurchaseReturn",
      "outputs": [
        {
          "internalType": "uint256",
          "name": "",
          "type": "uint256"
        }
      ],
      "stateMutability": "view",
      "type": "function"
    },
    {
      "inputs": [
        {
          "internalType": "uint256",
          "name": "_supply",
          "type": "uint256"
        },
        {
          "internalType": "uint256",
          "name": "_connectorBalance",
          "type": "uint256"
        },
        {
          "internalType": "uint32",
          "name": "_connectorWeight",
          "type": "uint32"
        },
        {
          "internalType": "uint256",
          "name": "_sellAmount",
          "type": "uint256"
        }
      ],
      "name": "calculateSaleReturn",
      "outputs": [
        {
          "internalType": "uint256",
          "name": "",
          "type": "uint256"
        }
      ],
      "stateMutability": "view",
      "type": "function"
    },
    {
      "inputs": [],
      "name": "decimals",
      "outputs": [
        {
          "internalType": "uint8",
          "name": "",
          "type": "uint8"
        }
      ],
      "stateMutability": "view",
      "type": "function"
    },
    {
      "inputs": [
        {
          "internalType": "address",
          "name": "spender",
          "type": "address"
        },
        {
          "internalType": "uint256",
          "name": "subtractedValue",
          "type": "uint256"
        }
      ],
      "name": "decreaseAllowance",
      "outputs": [
        {
          "internalType": "bool",
          "name": "",
          "type": "bool"
        }
      ],
      "stateMutability": "nonpayable",
      "type": "function"
    },
    {
      "inputs": [
        {
          "internalType": "address",
          "name": "spender",
          "type": "address"
        },
        {
          "internalType": "uint256",
          "name": "addedValue",
          "type": "uint256"
        }
      ],
      "name": "increaseAllowance",
      "outputs": [
        {
          "internalType": "bool",
          "name": "",
          "type": "bool"
        }
      ],
      "stateMutability": "nonpayable",
      "type": "function"
    },
    {
      "inputs": [],
      "name": "maxGasPrice",
      "outputs": [
        {
          "internalType": "uint256",
          "name": "",
          "type": "uint256"
        }
      ],
      "stateMutability": "view",
      "type": "function"
    },
    {
      "inputs": [],
      "name": "name",
      "outputs": [
        {
          "internalType": "string",
          "name": "",
          "type": "string"
        }
      ],
      "stateMutability": "view",
      "type": "function"
    },
    {
      "inputs": [],
      "name": "owner",
      "outputs": [
        {
          "internalType": "address",
          "name": "",
          "type": "address"
        }
      ],
      "stateMutability": "view",
      "type": "function"
    },
    {
      "inputs": [],
      "name": "poolBalance",
      "outputs": [
        {
          "internalType": "uint256",
          "name": "",
          "type": "uint256"
        }
      ],
      "stateMutability": "view",
      "type": "function"
    },
    {
      "inputs": [],
      "name": "renounceOwnership",
      "outputs": [],
      "stateMutability": "nonpayable",
      "type": "function"
    },
    {
      "inputs": [],
      "name": "reserveRatio",
      "outputs": [
        {
          "internalType": "uint256",
          "name": "",
          "type": "uint256"
        }
      ],
      "stateMutability": "view",
      "type": "function"
    },
    {
      "inputs": [],
      "name": "scale",
      "outputs": [
        {
          "internalType": "uint256",
          "name": "",
          "type": "uint256"
        }
      ],
      "stateMutability": "view",
      "type": "function"
    },
    {
      "inputs": [
        {
          "internalType": "uint256",
          "name": "newMax",
          "type": "uint256"
        }
      ],
      "name": "setMaxGasPrice",
      "outputs": [
        {
          "internalType": "bool",
          "name": "",
          "type": "bool"
        }
      ],
      "stateMutability": "nonpayable",
      "type": "function"
    },
    {
      "inputs": [],
      "name": "symbol",
      "outputs": [
        {
          "internalType": "string",
          "name": "",
          "type": "string"
        }
      ],
      "stateMutability": "view",
      "type": "function"
    },
    {
      "inputs": [],
      "name": "totalSupply",
      "outputs": [
        {
          "internalType": "uint256",
          "name": "",
          "type": "uint256"
        }
      ],
      "stateMutability": "view",
      "type": "function"
    },
    {
      "inputs": [
        {
          "internalType": "address",
          "name": "to",
          "type": "address"
        },
        {
          "internalType": "uint256",
          "name": "amount",
          "type": "uint256"
        }
      ],
      "name": "transfer",
      "outputs": [
        {
          "internalType": "bool",
          "name": "",
          "type": "bool"
        }
      ],
      "stateMutability": "nonpayable",
      "type": "function"
    },
    {
      "inputs": [
        {
          "internalType": "address",
          "name": "from",
          "type": "address"
        },
        {
          "internalType": "address",
          "name": "to",
          "type": "address"
        },
        {
          "internalType": "uint256",
          "name": "amount",
          "type": "uint256"
        }
      ],
      "name": "transferFrom",
      "outputs": [
        {
          "internalType": "bool",
          "name": "",
          "type": "bool"
        }
      ],
      "stateMutability": "nonpayable",
      "type": "function"
    },
    {
      "inputs": [
        {
          "internalType": "address",
          "name": "newOwner",
          "type": "address"
        }
      ],
      "name": "transferOwnership",
      "outputs": [],
      "stateMutability": "nonpayable",
      "type": "function"
    },
    {
      "inputs": [],
      "name": "version",
      "outputs": [
        {
          "internalType": "string",
          "name": "",
          "type": "string"
        }
      ],
      "stateMutability": "view",
      "type": "function"
    }
  ],
  "bytecode": "0x60c06040526003608081905262302e3360e81b60a090815262000026916000919062000958565b50670de0b6b3a7640000608255670de0b6b3a7640000608855608854600162000050919062000b74565b6089553480156200006057600080fd5b50604051620032af380380620032af833981016040819052620000839162000aa9565b6001641c35fedd1560601b036021556001646c3390ecc9605e1b036022556001640cf801476160611b0360235560016431bdb23e1d605f1b0360245560016502fb1d8fe083605b1b0360255560016505b771955b37605a1b036026556001650af67a93bb5160591b0360275560016515060c256cb360581b036028556001651428a2f98d7360581b036029556001654d515663970960561b03602a55600165944620b0e70f60551b03602b55600166011c592761c66760541b03602c5560016602214d10d014eb60531b03602d55600166020ade36b7dbef60531b03602e5560016603eab73b3bbfe360521b03602f556001660782ee3593f6d760511b036030556001661ccf4b44bb4821604f1b0360315560016606e7f88ad8a77760511b0360325560016669f3d1c921891d604d1b03603355600166cb2ff529eb71e5604c1b03603455600166c2d415c3db974b604c1b0360355560016702eb40f9f620fda7604a1b0360365560016705990681d961a1eb60491b03603755600167055e12902701414760491b0360385560016714962dee9dc9764160471b0360395560016704ef57b9b560fab560491b03603a5560016712ed7b32a58f552b60471b03603b556001679131271922eaa60760441b03603c556001678b380f3558668c4760441b03603d556001680215f77c045fbe885760421b03603e556001600160831b03603f556001670f577eded5773a1160471b036040556001680eb5ec597592befbf5603f1b036041556001681c35fedd14b861eb05603e1b036042556001683619c87664579bc94b603d1b0360435560016867c00a3b07ffc01fd7603c1b03604455600168c6f6c8f8739773a7a5603b1b03604555600168bec763f8209b7a72b1603b1b0360465560016902dbb8caad9b7097b91b60391b03604755600169057b3d49dda84556d6f760381b03604855600169054183095b2c8ececf3160381b036049556001690a14517cc6b9457111ef60371b03604a5560016913545598e5c23276ccf160361b03604b556001692511882c39c3adea96ff60351b03604c55600169471649d87199aa99075760341b03604d557004429a21a029d4c1457cfbffffffffffff604e55700415bc6d6fb7dd71af2cb3ffffffffffff604f557003eab73b3bbfe282243ce1ffffffffffff6050557003c1771ac9fb6b4c18e229ffffffffffff605155700399e96897690418f785257fffffffffff605255700373fc456c53bb779bf0ea9fffffffffff60535570034f9e8e490c48e67e6ab8bfffffffffff60545570032cbfd4a7adc790560b3337ffffffffff60555570030b50570f6e5d2acca94613ffffffffff6056557002eb40f9f620fda6b56c2861ffffffffff6057557002cc8340ecb0d0f520a6af58ffffffffff6058557002af09481380a0a35cf1ba02ffffffffff605955700292c5bdd3b92ec810287b1b3fffffffff605a55700277abdcdab07d5a77ac6d6b9fffffffff605b5570025daf6654b1eaa55fd64df5efffffffff605c55700244c49c648baa98192dce88b7ffffffff605d5570022ce03cd5619a311b2471268bffffffff605e55700215f77c045fbe885654a44a0fffffffff605f556001600160811b036060557001eaefdbdaaee7421fc4d3ede5ffffffff6061557001d6bd8b2eb257df7e8ca57b09bfffffff6062557001c35fedd14b861eb0443f7f133fffffff6063557001b0ce43b322bcde4a56e8ada5afffffff60645570019f0028ec1fff007f5a195a39dfffffff60655570018ded91f0e72ee74f49b15ba527ffffff60665570017d8ec7f04136f4e5615fd41a63ffffff60675570016ddc6556cdb84bdc8d12d22e6fffffff60685570015ecf52776a1155b5bd8395814f7fffff60695570015060c256cb23b3b3cc3754cf40ffffff606a557001428a2f98d728ae223ddab715be3fffff606b5570013545598e5c23276ccf0ede68034fffff606c557001288c4161ce1d6f54b7f61081194fffff606d5570011c592761c666aa641d5a01a40f17ffff606e55700110a688680a7530515f3e6e6cfdcdffff606f557001056f1b5bedf75c6bcb2ce8aed428ffff6070556ffaadceceeff8a0890f3875f008277fff6071556ff05dc6b27edad306388a600f6ba0bfff6072556fe67a5a25da41063de1495d5b18cdbfff6073556fdcff115b14eedde6fc3aa5353f2e4fff6074556fd3e7a3924312399f9aae2e0f868f8fff6075556fcb2ff529eb71e41582cccd5a1ee26fff6076556fc2d415c3db974ab32a51840c0b67edff6077556fbad03e7d883f69ad5b0a186184e06bff6078556fb320d03b2c343d4829abd6075f0cc5ff6079556fabc25204e02828d73c6e80bcdb1a95bf607a556fa4b16f74ee4bb2040a1ec6c15fbbf2df607b556f9deaf736ac1f569deb1b5ae3f36c130f607c556f976bd9952c7aa957f5937d790ef65037607d556f9131271922eaa6064b73a22d0bd4f2bf607e556f8b380f3558668c46c91c49a2f8e967b9607f556f857ddf0117efa215952912839f6473e66080558282620007c2620007bc6200081b565b6200081f565b8151620007d790608690602085019062000958565b508051620007ed90608790602084019062000958565b505050608a819055608854620008129033906200080c90600162000b74565b62000871565b50505062000bff565b3390565b608180546001600160a01b038381166001600160a01b0319831681179093556040519116919082907f8be0079c531659141344cd1fd0a4f28419497f9722a3daafe3b4186f6b6457e090600090a35050565b6001600160a01b038216620008a35760405162461bcd60e51b81526004016200089a9062000b19565b60405180910390fd5b620008b16000838362000953565b8060856000828254620008c5919062000b59565b90915550506001600160a01b03821660009081526083602052604081208054839290620008f490849062000b59565b90915550506040516001600160a01b038316906000907fddf252ad1be2c89b69c2b068fc378daa952ba7f163c4a11628f55a4df523b3ef906200093990859062000b50565b60405180910390a36200094f6000838362000953565b5050565b505050565b828054620009669062000b96565b90600052602060002090601f0160209004810192826200098a5760008555620009d5565b82601f10620009a557805160ff1916838001178555620009d5565b82800160010185558215620009d5579182015b82811115620009d5578251825591602001919060010190620009b8565b50620009e3929150620009e7565b5090565b5b80821115620009e35760008155600101620009e8565b600082601f83011262000a0f578081fd5b81516001600160401b038082111562000a2c5762000a2c62000be9565b6040516020601f8401601f191682018101838111838210171562000a545762000a5462000be9565b604052838252858401810187101562000a6b578485fd5b8492505b8383101562000a8e578583018101518284018201529182019162000a6f565b8383111562000a9f57848185840101525b5095945050505050565b60008060006060848603121562000abe578283fd5b83516001600160401b038082111562000ad5578485fd5b62000ae387838801620009fe565b9450602086015191508082111562000af9578384fd5b5062000b0886828701620009fe565b925050604084015190509250925092565b6020808252601f908201527f45524332303a206d696e7420746f20746865207a65726f206164647265737300604082015260600190565b90815260200190565b6000821982111562000b6f5762000b6f62000bd3565b500190565b600081600019048311821515161562000b915762000b9162000bd3565b500290565b60028104600182168062000bab57607f821691505b6020821081141562000bcd57634e487b7160e01b600052602260045260246000fd5b50919050565b634e487b7160e01b600052601160045260246000fd5b634e487b7160e01b600052604160045260246000fd5b6126a08062000c0f6000396000f3fe608060405234801561001057600080fd5b50600436106101585760003560e01c806370a08231116100c3578063a457c2d71161007c578063a457c2d714610291578063a9059cbb146102a4578063d2fa635e146102b7578063dd62ed3e146102ca578063f2fde38b146102dd578063f51e181a146102f057610158565b806370a082311461023c578063715018a61461024f5780638da5cb5b1461025957806395d89b411461026e57806396365d44146102765780639a4f318b1461027e57610158565b8063313ce56711610115578063313ce567146101de57806339509351146101f35780633de39c111461020657806349f9b0f71461020e57806354fd4d50146102215780636d6f1e011461022957610158565b806306fdde031461015d578063095ea7b31461017b5780630c7d5cd81461019b57806318160ddd146101b057806323b872dd146101b857806329a00e7c146101cb575b600080fd5b6101656102f8565b604051610172919061221a565b60405180910390f35b61018e610189366004612174565b61038a565b604051610172919061220f565b6101a36103ac565b60405161017291906124ef565b6101a36103b2565b61018e6101c6366004612139565b6103b8565b6101a36101d93660046121b5565b6103e6565b6101e66104b1565b60405161017291906124f8565b61018e610201366004612174565b6104b6565b6101a3610502565b6101a361021c3660046121b5565b610508565b6101656105e5565b6101a361023736600461219d565b610673565b6101a361024a3660046120ed565b610694565b6102576106af565b005b610261610703565b60405161017291906121fb565b610165610712565b6101a3610721565b6101a361028c36600461219d565b610727565b61018e61029f366004612174565b610740565b61018e6102b2366004612174565b6107a1565b61018e6102c536600461219d565b6107b9565b6101a36102d8366004612107565b610803565b6102576102eb3660046120ed565b61082e565b6101a361089f565b606060868054610307906125ef565b80601f0160208091040260200160405190810160405280929190818152602001828054610333906125ef565b80156103805780601f1061035557610100808354040283529160200191610380565b820191906000526020600020905b81548152906001019060200180831161036357829003601f168201915b5050505050905090565b6000806103956108a5565b90506103a28185856108a9565b5060019392505050565b608a5481565b60855490565b6000806103c36108a5565b90506103d085828561095d565b6103db8585856109a7565b506001949350505050565b600080851180156103f75750600084115b8015610409575060008363ffffffff16115b801561041e5750620f424063ffffffff841611155b61042757600080fd5b81610434575060006104a9565b63ffffffff8316620f4240141561046057610459846104538785610acb565b90610ade565b90506104a9565b6000808061046e8588610aea565b905061047f818888620f4240610af6565b9093509150600060ff83166104948a86610acb565b901c90506104a28982612598565b9450505050505b949350505050565b601290565b6000806104c16108a5565b6001600160a01b038082166000908152608460209081526040808320938916835292905220549091506103a290829086906104fd908790612506565b6108a9565b60825481565b600080851180156105195750600084115b801561052b575060008363ffffffff16115b80156105405750620f424063ffffffff841611155b801561054c5750848211155b61055557600080fd5b81610562575060006104a9565b848214156105715750826104a9565b63ffffffff8316620f4240141561059057610459856104538685610acb565b6000808061059e8589612598565b90506105af8882620f424089610af6565b909350915060006105c08885610acb565b905060ff831688901b6105d7856104538484610c14565b9a9950505050505050505050565b600080546105f2906125ef565b80601f016020809104026020016040519081016040528092919081815260200182805461061e906125ef565b801561066b5780601f106106405761010080835404028352916020019161066b565b820191906000526020600020905b81548152906001019060200180831161064e57829003601f168201915b505050505081565b600061068c6106806103b2565b608954608a5485610508565b90505b919050565b6001600160a01b031660009081526083602052604090205490565b6106b76108a5565b6001600160a01b03166106c8610703565b6001600160a01b0316146106f75760405162461bcd60e51b81526004016106ee906123b5565b60405180910390fd5b6107016000610c20565b565b6081546001600160a01b031690565b606060878054610307906125ef565b60895481565b600061068c6107346103b2565b608954608a54856103e6565b60008061074b6108a5565b6001600160a01b03808216600090815260846020908152604080832093891683529290522054909150838110156107945760405162461bcd60e51b81526004016106ee906124aa565b6103db82868684036108a9565b6000806107ac6108a5565b90506103a28185856109a7565b60006107c36108a5565b6001600160a01b03166107d4610703565b6001600160a01b0316146107fa5760405162461bcd60e51b81526004016106ee906123b5565b50608255600190565b6001600160a01b03918216600090815260846020908152604080832093909416825291909152205490565b6108366108a5565b6001600160a01b0316610847610703565b6001600160a01b03161461086d5760405162461bcd60e51b81526004016106ee906123b5565b6001600160a01b0381166108935760405162461bcd60e51b81526004016106ee906122b0565b61089c81610c20565b50565b60885481565b3390565b6001600160a01b0383166108cf5760405162461bcd60e51b81526004016106ee90612466565b6001600160a01b0382166108f55760405162461bcd60e51b81526004016106ee906122f6565b6001600160a01b0380841660008181526084602090815260408083209487168084529490915290819020849055517f8c5be1e5ebec7d5bd14f71427d1e84f3dd0314c0f7b2291e5b200ac8c7c3b925906109509085906124ef565b60405180910390a3505050565b60006109698484610803565b905060001981146109a157818110156109945760405162461bcd60e51b81526004016106ee90612338565b6109a184848484036108a9565b50505050565b6001600160a01b0383166109cd5760405162461bcd60e51b81526004016106ee90612421565b6001600160a01b0382166109f35760405162461bcd60e51b81526004016106ee9061226d565b6109fe838383610c72565b6001600160a01b03831660009081526083602052604090205481811015610a375760405162461bcd60e51b81526004016106ee9061236f565b6001600160a01b03808516600090815260836020526040808220858503905591851681529081208054849290610a6e908490612506565b92505081905550826001600160a01b0316846001600160a01b03167fddf252ad1be2c89b69c2b068fc378daa952ba7f163c4a11628f55a4df523b3ef84604051610ab891906124ef565b60405180910390a36109a1848484610c72565b6000610ad78284612579565b9392505050565b6000610ad78284612543565b6000610ad78284612506565b600080600160811b8610610b1a57634e487b7160e01b600052600160045260246000fd5b84861015610b3a5760405162461bcd60e51b81526004016106ee906123ea565b60008086610b4c6001607f1b8a612579565b610b569190612543565b905070015bf0a8b1457695355fb8ac404e7a79e3811015610b8157610b7a81610c77565b9150610b8d565b610b8a816111f0565b91505b60008563ffffffff168763ffffffff1684610ba89190612579565b610bb29190612543565b9050600160831b811015610bd757610bc9816112df565b607f94509450505050610c0b565b6000610be28261190a565b9050610bfe610bf282607f6125af565b60ff1683901c82611a00565b95509350610c0b92505050565b94509492505050565b6000610ad78284612598565b608180546001600160a01b038381166001600160a01b0319831681179093556040519116919082907f8be0079c531659141344cd1fd0a4f28419497f9722a3daafe3b4186f6b6457e090600090a35050565b505050565b6000808080806fd3094c70f034de4b96ff7d5b6f99fcd88610610cd057610ca26001607e1b85612506565b93506fd3094c70f034de4b96ff7d5b6f99fcd8610cc36001607f1b88612579565b610ccd9190612543565b95505b6fa45af1e1f40c333b3de1db4dd55f29a78610610d2357610cf56001607d1b85612506565b93506fa45af1e1f40c333b3de1db4dd55f29a7610d166001607f1b88612579565b610d209190612543565b95505b6f910b022db7ae67ce76b441c27035c6a18610610d7657610d486001607c1b85612506565b93506f910b022db7ae67ce76b441c27035c6a1610d696001607f1b88612579565b610d739190612543565b95505b6f88415abbe9a76bead8d00cf112e4d4a88610610dc957610d9b6001607b1b85612506565b93506f88415abbe9a76bead8d00cf112e4d4a8610dbc6001607f1b88612579565b610dc69190612543565b95505b6f84102b00893f64c705e841d5d4064bd38610610e1c57610dee6001607a1b85612506565b93506f84102b00893f64c705e841d5d4064bd3610e0f6001607f1b88612579565b610e199190612543565b95505b6f8204055aaef1c8bd5c3259f4822735a28610610e6f57610e41600160791b85612506565b93506f8204055aaef1c8bd5c3259f4822735a2610e626001607f1b88612579565b610e6c9190612543565b95505b6f810100ab00222d861931c15e39b44e998610610ec257610e94600160781b85612506565b93506f810100ab00222d861931c15e39b44e99610eb56001607f1b88612579565b610ebf9190612543565b95505b6f808040155aabbbe9451521693554f7338610610f1557610ee7600160771b85612506565b93506f808040155aabbbe9451521693554f733610f086001607f1b88612579565b610f129190612543565b95505b610f236001607f1b87612598565b92508291506001607f1b610f378380612579565b610f419190612543565b9050600160801b610f528482612598565b610f5c9084612579565b610f669190612543565b610f709085612506565b93506001607f1b610f818284612579565b610f8b9190612543565b9150600160811b610fac846faaaaaaaaaaaaaaaaaaaaaaaaaaaaaaaa612598565b610fb69084612579565b610fc09190612543565b610fca9085612506565b93506001607f1b610fdb8284612579565b610fe59190612543565b9150600360801b611006846f99999999999999999999999999999999612598565b6110109084612579565b61101a9190612543565b6110249085612506565b93506001607f1b6110358284612579565b61103f9190612543565b9150600160821b611060846f92492492492492492492492492492492612598565b61106a9084612579565b6110749190612543565b61107e9085612506565b93506001607f1b61108f8284612579565b6110999190612543565b9150600560801b6110ba846f8e38e38e38e38e38e38e38e38e38e38e612598565b6110c49084612579565b6110ce9190612543565b6110d89085612506565b93506001607f1b6110e98284612579565b6110f39190612543565b9150600360811b611114846f8ba2e8ba2e8ba2e8ba2e8ba2e8ba2e8b612598565b61111e9084612579565b6111289190612543565b6111329085612506565b93506001607f1b6111438284612579565b61114d9190612543565b9150600760801b61116e846f89d89d89d89d89d89d89d89d89d89d89612598565b6111789084612579565b6111829190612543565b61118c9085612506565b93506001607f1b61119d8284612579565b6111a79190612543565b9150600160831b6111c8846f88888888888888888888888888888888612598565b6111d29084612579565b6111dc9190612543565b6111e69085612506565b9695505050505050565b60008082600160801b81106112355760006112176112126001607f1b84612543565b612067565b60ff811692831c92909150611231906001607f1b90612579565b9250505b6001607f1b8111156112aa57607f5b60ff8116156112a8576001607f1b61125c8380612579565b6112669190612543565b9150600160801b821061129857600191821c9161128390826125af565b60ff166001901b836112959190612506565b92505b6112a1816125d2565b9050611244565b505b6f05b9de1d10bf4103d647b0955897ba806112d56f03f80fe03f80fe03f80fe03f80fe03f884612579565b6104a99190612543565b60008080806112f26001607c1b8661262a565b91508190506001607f1b6113068280612579565b6113109190612543565b9050611324816710e1b3be415a0000612579565b61132e9084612506565b92506001607f1b61133f8383612579565b6113499190612543565b905061135d816705a0913f6b1e0000612579565b6113679084612506565b92506001607f1b6113788383612579565b6113829190612543565b905061139681670168244fdac78000612579565b6113a09084612506565b92506001607f1b6113b18383612579565b6113bb9190612543565b90506113ce81664807432bc18000612579565b6113d89084612506565b92506001607f1b6113e98383612579565b6113f39190612543565b905061140681660c0135dca04000612579565b6114109084612506565b92506001607f1b6114218383612579565b61142b9190612543565b905061143e816601b707b1cdc000612579565b6114489084612506565b92506001607f1b6114598383612579565b6114639190612543565b9050611475816536e0f639b800612579565b61147f9084612506565b92506001607f1b6114908383612579565b61149a9190612543565b90506114ac81650618fee9f800612579565b6114b69084612506565b92506001607f1b6114c78383612579565b6114d19190612543565b90506114e281649c197dcc00612579565b6114ec9084612506565b92506001607f1b6114fd8383612579565b6115079190612543565b905061151881640e30dce400612579565b6115229084612506565b92506001607f1b6115338383612579565b61153d9190612543565b905061154e8164012ebd1300612579565b6115589084612506565b92506001607f1b6115698383612579565b6115739190612543565b9050611583816317499f00612579565b61158d9084612506565b92506001607f1b61159e8383612579565b6115a89190612543565b90506115b8816301a9d480612579565b6115c29084612506565b92506001607f1b6115d38383612579565b6115dd9190612543565b90506115ec81621c6380612579565b6115f69084612506565b92506001607f1b6116078383612579565b6116119190612543565b9050611620816201c638612579565b61162a9084612506565b92506001607f1b61163b8383612579565b6116459190612543565b905061165381611ab8612579565b61165d9084612506565b92506001607f1b61166e8383612579565b6116789190612543565b90506116868161017c612579565b6116909084612506565b92506001607f1b6116a18383612579565b6116ab9190612543565b90506116b8816014612579565b6116c29084612506565b92506001607f1b6116d38383612579565b6116dd9190612543565b90506116ea816001612579565b6116f49084612506565b92506001607f1b8261170e6721c3677c82b4000086612543565b6117189190612506565b6117229190612506565b92506001607c1b85161561176a5770018ebef9eac820ae8682b9793ac6d1e77661175d847001c3d6a24ed82218787d624d3e5eba95f9612579565b6117679190612543565b92505b6001607d1b8516156117b0577001368b2fc6f9609fe7aceb46aa619baed46117a38470018ebef9eac820ae8682b9793ac6d1e778612579565b6117ad9190612543565b92505b6001607e1b8516156117f5576fbc5ab1b16779be3575bd8f0520a9f21f6117e8847001368b2fc6f9609fe7aceb46aa619baed5612579565b6117f29190612543565b92505b6001607f1b851615611839576f454aaa8efe072e7f6ddbab84b40a55c961182c846fbc5ab1b16779be3575bd8f0520a9f21e612579565b6118369190612543565b92505b600160801b85161561187d576f0960aadc109e7a3bf4578099615711ea611870846f454aaa8efe072e7f6ddbab84b40a55c5612579565b61187a9190612543565b92505b600160811b8516156118c0576e2bf84208204f5977f9a8cf01fdce3d6118b3846f0960aadc109e7a3bf4578099615711d7612579565b6118bd9190612543565b92505b600160821b851615611901576d03c6ab775dd0b95b4cbee7e65d116118f4846e2bf84208204f5977f9a8cf01fdc307612579565b6118fe9190612543565b92505b50909392505050565b60006020607f5b60ff811661192083600161251e565b60ff1610156119815760006002611937838561251e565b6119419190612557565b90508460018260ff166080811061196857634e487b7160e01b600052603260045260246000fd5b0154106119775780925061197b565b8091505b50611911565b8360018260ff16608081106119a657634e487b7160e01b600052603260045260246000fd5b0154106119b657915061068f9050565b8360018360ff16608081106119db57634e487b7160e01b600052603260045260246000fd5b0154106119ea5750905061068f565b634e487b7160e01b600052600160045260246000fd5b6000828160ff8416611a128380612579565b901c9150611a30826f03442c4e6074a82f1797f72ac0000000612579565b611a3a9082612506565b905060ff8416611a4a8684612579565b901c9150611a68826f0116b96f757c380fb287fd0e40000000612579565b611a729082612506565b905060ff8416611a828684612579565b901c9150611a9f826e45ae5bdd5f0e03eca1ff4390000000612579565b611aa99082612506565b905060ff8416611ab98684612579565b901c9150611ad6826e0defabf91302cd95b9ffda50000000612579565b611ae09082612506565b905060ff8416611af08684612579565b901c9150611b0d826e02529ca9832b22439efff9b8000000612579565b611b179082612506565b905060ff8416611b278684612579565b901c9150611b43826d54f1cf12bd04e516b6da88000000612579565b611b4d9082612506565b905060ff8416611b5d8684612579565b901c9150611b79826d0a9e39e257a09ca2d6db51000000612579565b611b839082612506565b905060ff8416611b938684612579565b901c9150611baf826d012e066e7b839fa050c309000000612579565b611bb99082612506565b905060ff8416611bc98684612579565b901c9150611be4826c1e33d7d926c329a1ad1a800000612579565b611bee9082612506565b905060ff8416611bfe8684612579565b901c9150611c19826c02bee513bdb4a6b19b5f800000612579565b611c239082612506565b905060ff8416611c338684612579565b901c9150611c4d826b3a9316fa79b88eccf2a00000612579565b611c579082612506565b905060ff8416611c678684612579565b901c9150611c81826b048177ebe1fa812375200000612579565b611c8b9082612506565b905060ff8416611c9b8684612579565b901c9150611cb4826a5263fe90242dcbacf00000612579565b611cbe9082612506565b905060ff8416611cce8684612579565b901c9150611ce7826a057e22099c030d94100000612579565b611cf19082612506565b905060ff8416611d018684612579565b901c9150611d19826957e22099c030d9410000612579565b611d239082612506565b905060ff8416611d338684612579565b901c9150611d4b8269052b6b54569976310000612579565b611d559082612506565b905060ff8416611d658684612579565b901c9150611d7c82684985f67696bf748000612579565b611d869082612506565b905060ff8416611d968684612579565b901c9150611dad826803dea12ea99e498000612579565b611db79082612506565b905060ff8416611dc78684612579565b901c9150611ddd826731880f2214b6e000612579565b611de79082612506565b905060ff8416611df78684612579565b901c9150611e0d8267025bcff56eb36000612579565b611e179082612506565b905060ff8416611e278684612579565b901c9150611e3c82661b722e10ab1000612579565b611e469082612506565b905060ff8416611e568684612579565b901c9150611e6b826601317c70077000612579565b611e759082612506565b905060ff8416611e858684612579565b901c9150611e9982650cba84aafa00612579565b611ea39082612506565b905060ff8416611eb38684612579565b901c9150611ec6826482573a0a00612579565b611ed09082612506565b905060ff8416611ee08684612579565b901c9150611ef3826405035ad900612579565b611efd9082612506565b905060ff8416611f0d8684612579565b901c9150611f1f82632f881b00612579565b611f299082612506565b905060ff8416611f398684612579565b901c9150611f4b826301b29340612579565b611f559082612506565b905060ff8416611f658684612579565b901c9150611f7682620efc40612579565b611f809082612506565b905060ff8416611f908684612579565b901c9150611fa082617fe0612579565b611faa9082612506565b905060ff8416611fba8684612579565b901c9150611fca82610420612579565b611fd49082612506565b905060ff8416611fe48684612579565b901c9150611ff3826021612579565b611ffd9082612506565b905060ff841661200d8684612579565b901c915061201c826001612579565b6120269082612506565b9050600160ff85161b8561204a6f0688589cc0e9505e2f2fee558000000084612543565b6120549190612506565b61205e9190612506565b95945050505050565b6000808261010081101561209b575b600181111561209657600190811c9061208f908361251e565b9150612076565b6120cf565b60805b60ff8116156120cd57600160ff82161b82106120c2579182179160ff81169190911c905b60011c607f1661209e565b505b5092915050565b80356001600160a01b038116811461068f57600080fd5b6000602082840312156120fe578081fd5b610ad7826120d6565b60008060408385031215612119578081fd5b612122836120d6565b9150612130602084016120d6565b90509250929050565b60008060006060848603121561214d578081fd5b612156846120d6565b9250612164602085016120d6565b9150604084013590509250925092565b60008060408385031215612186578182fd5b61218f836120d6565b946020939093013593505050565b6000602082840312156121ae578081fd5b5035919050565b600080600080608085870312156121ca578081fd5b8435935060208501359250604085013563ffffffff811681146121eb578182fd5b9396929550929360600135925050565b6001600160a01b0391909116815260200190565b901515815260200190565b6000602080835283518082850152825b818110156122465785810183015185820160400152820161222a565b818111156122575783604083870101525b50601f01601f1916929092016040019392505050565b60208082526023908201527f45524332303a207472616e7366657220746f20746865207a65726f206164647260408201526265737360e81b606082015260800190565b60208082526026908201527f4f776e61626c653a206e6577206f776e657220697320746865207a65726f206160408201526564647265737360d01b606082015260800190565b60208082526022908201527f45524332303a20617070726f766520746f20746865207a65726f206164647265604082015261737360f01b606082015260800190565b6020808252601d908201527f45524332303a20696e73756666696369656e7420616c6c6f77616e6365000000604082015260600190565b60208082526026908201527f45524332303a207472616e7366657220616d6f756e7420657863656564732062604082015265616c616e636560d01b606082015260800190565b6020808252818101527f4f776e61626c653a2063616c6c6572206973206e6f7420746865206f776e6572604082015260600190565b6020808252601c908201527f4261736573203c203120617265206e6f7420737570706f727465642e00000000604082015260600190565b60208082526025908201527f45524332303a207472616e736665722066726f6d20746865207a65726f206164604082015264647265737360d81b606082015260800190565b60208082526024908201527f45524332303a20617070726f76652066726f6d20746865207a65726f206164646040820152637265737360e01b606082015260800190565b60208082526025908201527f45524332303a2064656372656173656420616c6c6f77616e63652062656c6f77604082015264207a65726f60d81b606082015260800190565b90815260200190565b60ff91909116815260200190565b600082198211156125195761251961263e565b500190565b600060ff821660ff84168060ff0382111561253b5761253b61263e565b019392505050565b60008261255257612552612654565b500490565b600060ff83168061256a5761256a612654565b8060ff84160491505092915050565b60008160001904831182151516156125935761259361263e565b500290565b6000828210156125aa576125aa61263e565b500390565b600060ff821660ff8416808210156125c9576125c961263e565b90039392505050565b600060ff8216806125e5576125e561263e565b6000190192915050565b60028104600182168061260357607f821691505b6020821081141561262457634e487b7160e01b600052602260045260246000fd5b50919050565b60008261263957612639612654565b500690565b634e487b7160e01b600052601160045260246000fd5b634e487b7160e01b600052601260045260246000fdfea2646970667358221220df8d9fafa95251750e9accd8e313aa9850f78e7c95d451e3b9a999f3007a03fa64736f6c63430008000033",
  "linkReferences": {},
  "deployedLinkReferences": {}
}