{
  "_format": "hh-sol-artifact-1",
  "contractName": "CappedTimedCrowdsale",
  "sourceName": "contracts/crowdsale/validation/CappedTimedCrowdsale.sol",
  "abi": [
    {
      "inputs": [
        {
          "internalType": "uint256",
          "name": "_rate",
          "type": "uint256"
        },
        {
          "internalType": "address",
          "name": "_wallet",
          "type": "address"
        },
        {
          "internalType": "contract ERC20",
          "name": "_token",
          "type": "address"
        },
        {
          "internalType": "uint256",
          "name": "cap_",
          "type": "uint256"
        },
        {
          "internalType": "uint256",
          "name": "openingTime_",
          "type": "uint256"
        },
        {
          "internalType": "uint256",
          "name": "closingTime_",
          "type": "uint256"
        }
      ],
      "stateMutability": "nonpayable",
      "type": "constructor"
    },
    {
      "anonymous": false,
      "inputs": [
        {
          "indexed": false,
          "internalType": "string",
          "name": "name",
          "type": "string"
        },
        {
          "indexed": false,
          "internalType": "address",
          "name": "value",
          "type": "address"
        },
        {
          "indexed": true,
          "internalType": "bool",
          "name": "status",
          "type": "bool"
        }
      ],
      "name": "DebugAddress",
      "type": "event"
    },
    {
      "anonymous": false,
      "inputs": [
        {
          "indexed": false,
          "internalType": "string",
          "name": "name",
          "type": "string"
        },
        {
          "indexed": false,
          "internalType": "string",
          "name": "value",
          "type": "string"
        },
        {
          "indexed": true,
          "internalType": "bool",
          "name": "status",
          "type": "bool"
        }
      ],
      "name": "DebugString",
      "type": "event"
    },
    {
      "anonymous": false,
      "inputs": [
        {
          "indexed": false,
          "internalType": "string",
          "name": "name",
          "type": "string"
        },
        {
          "indexed": false,
          "internalType": "uint256",
          "name": "value",
          "type": "uint256"
        },
        {
          "indexed": true,
          "internalType": "bool",
          "name": "status",
          "type": "bool"
        }
      ],
      "name": "DebugUint256",
      "type": "event"
    },
    {
      "anonymous": false,
      "inputs": [
        {
          "indexed": true,
          "internalType": "address",
          "name": "purchaser",
          "type": "address"
        },
        {
          "indexed": true,
          "internalType": "address",
          "name": "beneficiary",
          "type": "address"
        },
        {
          "indexed": false,
          "internalType": "uint256",
          "name": "value",
          "type": "uint256"
        },
        {
          "indexed": false,
          "internalType": "uint256",
          "name": "amount",
          "type": "uint256"
        }
      ],
      "name": "TokenPurchase",
      "type": "event"
    },
    {
      "stateMutability": "payable",
      "type": "fallback"
    },
    {
      "inputs": [
        {
          "internalType": "address",
          "name": "_beneficiary",
          "type": "address"
        }
      ],
      "name": "buyTokens",
      "outputs": [],
      "stateMutability": "payable",
      "type": "function"
    },
    {
      "inputs": [],
      "name": "cap",
      "outputs": [
        {
          "internalType": "uint256",
          "name": "",
          "type": "uint256"
        }
      ],
      "stateMutability": "view",
      "type": "function"
    },
    {
      "inputs": [],
      "name": "capReached",
      "outputs": [
        {
          "internalType": "bool",
          "name": "",
          "type": "bool"
        }
      ],
      "stateMutability": "view",
      "type": "function"
    },
    {
      "inputs": [],
      "name": "closingTime",
      "outputs": [
        {
          "internalType": "uint256",
          "name": "",
          "type": "uint256"
        }
      ],
      "stateMutability": "view",
      "type": "function"
    },
    {
      "inputs": [],
      "name": "hasClosed",
      "outputs": [
        {
          "internalType": "bool",
          "name": "",
          "type": "bool"
        }
      ],
      "stateMutability": "view",
      "type": "function"
    },
    {
      "inputs": [],
      "name": "isOpen",
      "outputs": [
        {
          "internalType": "bool",
          "name": "",
          "type": "bool"
        }
      ],
      "stateMutability": "view",
      "type": "function"
    },
    {
      "inputs": [],
      "name": "openingTime",
      "outputs": [
        {
          "internalType": "uint256",
          "name": "",
          "type": "uint256"
        }
      ],
      "stateMutability": "view",
      "type": "function"
    },
    {
      "inputs": [],
      "name": "rate",
      "outputs": [
        {
          "internalType": "uint256",
          "name": "",
          "type": "uint256"
        }
      ],
      "stateMutability": "view",
      "type": "function"
    },
    {
      "inputs": [],
      "name": "token",
      "outputs": [
        {
          "internalType": "contract ERC20",
          "name": "",
          "type": "address"
        }
      ],
      "stateMutability": "view",
      "type": "function"
    },
    {
      "inputs": [],
      "name": "wallet",
      "outputs": [
        {
          "internalType": "address",
          "name": "",
          "type": "address"
        }
      ],
      "stateMutability": "view",
      "type": "function"
    },
    {
      "inputs": [],
      "name": "weiRaised",
      "outputs": [
        {
          "internalType": "uint256",
          "name": "",
          "type": "uint256"
        }
      ],
      "stateMutability": "view",
      "type": "function"
    },
    {
      "stateMutability": "payable",
      "type": "receive"
    }
  ],
  "bytecode": "0x608060405234801561001057600080fd5b50604051610b3f380380610b3f83398101604081905261002f91610142565b8585856000831115157f9f83a56b6b62f46d9c0e9818a1661f72ca56ba06cff353d059436e5832127d848460405161006791906101a0565b60405180910390a26040516001600160a01b038316151590600080516020610b1f8339815191529061009a908590610215565b60405180910390a26040516001600160a01b038216151590600080516020610b1f833981519152906100cd9084906101cd565b60405180910390a2600292909255600180546001600160a01b039283166001600160a01b031991821617909155600080549290931691161790554282101561011457600080fd5b81811161012057600080fd5b6000831161012d57600080fd5b60059190915560065560045550610266915050565b60008060008060008060c0878903121561015a578182fd5b86519550602087015161016c8161024e565b604088015190955061017d8161024e565b80945050606087015192506080870151915060a087015190509295509295509295565b6040808252600b908201526a4e756d6265722f5261746560a81b6060820152602081019190915260800190565b60408082526016908201527f416464726573732f6164647265737328746f6b656e290000000000000000000060608201526001600160a01b0391909116602082015260800190565b6040808252600e908201526d1059191c995cdccbd5d85b1b195d60921b60608201526001600160a01b0391909116602082015260800190565b6001600160a01b038116811461026357600080fd5b50565b6108aa806102756000396000f3fe6080604052600436106100a05760003560e01c80634b6753bc116100645780634b6753bc146101455780634f9359451461015a578063521eb2731461016f578063b7a8807c14610191578063ec8ac4d8146101a6578063fc0c546a146101b9576100b0565b80631515bc2b146100b95780632c4e722e146100e4578063355274ea146101065780634042b66f1461011b57806347535d7b14610130576100b0565b366100b0576100ae336101ce565b005b6100ae336101ce565b3480156100c557600080fd5b506100ce610467565b6040516100db919061073b565b60405180910390f35b3480156100f057600080fd5b506100f961046f565b6040516100db9190610810565b34801561011257600080fd5b506100f9610475565b34801561012757600080fd5b506100f961047b565b34801561013c57600080fd5b506100ce610481565b34801561015157600080fd5b506100f961049c565b34801561016657600080fd5b506100ce6104a2565b34801561017b57600080fd5b506101846104ad565b6040516100db919061070e565b34801561019d57600080fd5b506100f96104bc565b6100ae6101b43660046106af565b6101ce565b3480156101c557600080fd5b506101846104c2565b346101d982826104d1565b60006101e48261050b565b6000546040516370a0823160e01b815291925082916001600160a01b03909116906370a082319061021990309060040161070e565b60206040518083038186803b15801561023157600080fd5b505afa158015610245573d6000803e3d6000fd5b505050506040513d601f19601f8201168201806040525081019061026991906106f6565b6000546040516370a0823160e01b81529290911015917f9f83a56b6b62f46d9c0e9818a1661f72ca56ba06cff353d059436e5832127d84916001600160a01b0316906370a08231906102bf90309060040161070e565b60206040518083038186803b1580156102d757600080fd5b505afa1580156102eb573d6000803e3d6000fd5b505050506040513d601f19601f8201168201806040525081019061030f91906106f6565b60405161031c9190610772565b60405180910390a26000546040516370a0823160e01b815282916001600160a01b0316906370a082319061035490309060040161070e565b60206040518083038186803b15801561036c57600080fd5b505afa158015610380573d6000803e3d6000fd5b505050506040513d601f19601f820116820180604052508101906103a491906106f6565b101515157f9f83a56b6b62f46d9c0e9818a1661f72ca56ba06cff353d059436e5832127d84826040516103d791906107e1565b60405180910390a26003546103ec9083610528565b6003556103f9838261053b565b826001600160a01b0316336001600160a01b03167f623b3804fa71d67900d064613da8f94b9617215ee90799290593e1745087ad18848460405161043e929190610819565b60405180910390a36104508383610507565b610458610545565b6104628383610507565b505050565b600654421190565b60025481565b60045490565b60035481565b6000600554421015801561049757506006544211155b905090565b60065490565b600454600354101590565b6001546001600160a01b031681565b60055490565b6000546001600160a01b031681565b6104d9610481565b6104e257600080fd5b6104ec8282610581565b6004546003546104fc9083610528565b111561050757600080fd5b5050565b60006105226002548361061f90919063ffffffff16565b92915050565b60006105348284610827565b9392505050565b610507828261062b565b6001546040516001600160a01b03909116903480156108fc02916000818181858888f1935050505015801561057e573d6000803e3d6000fd5b50565b6040516001600160a01b0383161515907facc1fbd861d476a3b70596fb49d0ebb80e2e5d077cdde5d17d8abcd924ef8d20906105be9085906107aa565b60405180910390a2604051811515907f9f83a56b6b62f46d9c0e9818a1661f72ca56ba06cff353d059436e5832127d84906105fa908490610746565b60405180910390a26001600160a01b03821661061557600080fd5b8061050757600080fd5b6000610534828461083f565b60005460405163a9059cbb60e01b81526001600160a01b039091169063a9059cbb9061065d9085908590600401610722565b602060405180830381600087803b15801561067757600080fd5b505af115801561068b573d6000803e3d6000fd5b505050506040513d601f19601f8201168201806040525081019061046291906106d6565b6000602082840312156106c0578081fd5b81356001600160a01b0381168114610534578182fd5b6000602082840312156106e7578081fd5b81518015158114610534578182fd5b600060208284031215610707578081fd5b5051919050565b6001600160a01b0391909116815260200190565b6001600160a01b03929092168252602082015260400190565b901515815260200190565b6040808252600a908201526917ddd95a505b5bdd5b9d60b21b6060820152602081019190915260800190565b604080825260169082015275273ab6b132b917ba37b5b2b7173130b630b731b2a7b360511b6060820152602081019190915260800190565b6040808252600c908201526b5f62656e656669636961727960a01b60608201526001600160a01b0391909116602082015260800190565b6040808252600d908201526c4e756d6265722f746f6b656e7360981b6060820152602081019190915260800190565b90815260200190565b918252602082015260400190565b6000821982111561083a5761083a61085e565b500190565b60008160001904831182151516156108595761085961085e565b500290565b634e487b7160e01b600052601160045260246000fdfea2646970667358221220e9e8e886bf03217206d907fecd2105c8a45e66ba4a0df6f8e16227f1c8fdeee764736f6c63430008000033acc1fbd861d476a3b70596fb49d0ebb80e2e5d077cdde5d17d8abcd924ef8d20",
  "linkReferences": {},
  "deployedLinkReferences": {}
}