{
  "_format": "hh-sol-artifact-1",
  "contractName": "CappedCrowdsale",
  "sourceName": "contracts/crowdsale/validation/CappedCrowdsale.sol",
  "abi": [
    {
      "inputs": [
        {
          "internalType": "uint256",
          "name": "_rate",
          "type": "uint256"
        },
        {
          "internalType": "address",
          "name": "_wallet",
          "type": "address"
        },
        {
          "internalType": "contract ERC20",
          "name": "_token",
          "type": "address"
        },
        {
          "internalType": "uint256",
          "name": "cap_",
          "type": "uint256"
        }
      ],
      "stateMutability": "nonpayable",
      "type": "constructor"
    },
    {
      "anonymous": false,
      "inputs": [
        {
          "indexed": false,
          "internalType": "string",
          "name": "name",
          "type": "string"
        },
        {
          "indexed": false,
          "internalType": "address",
          "name": "value",
          "type": "address"
        },
        {
          "indexed": true,
          "internalType": "bool",
          "name": "status",
          "type": "bool"
        }
      ],
      "name": "DebugAddress",
      "type": "event"
    },
    {
      "anonymous": false,
      "inputs": [
        {
          "indexed": false,
          "internalType": "string",
          "name": "name",
          "type": "string"
        },
        {
          "indexed": false,
          "internalType": "string",
          "name": "value",
          "type": "string"
        },
        {
          "indexed": true,
          "internalType": "bool",
          "name": "status",
          "type": "bool"
        }
      ],
      "name": "DebugString",
      "type": "event"
    },
    {
      "anonymous": false,
      "inputs": [
        {
          "indexed": false,
          "internalType": "string",
          "name": "name",
          "type": "string"
        },
        {
          "indexed": false,
          "internalType": "uint256",
          "name": "value",
          "type": "uint256"
        },
        {
          "indexed": true,
          "internalType": "bool",
          "name": "status",
          "type": "bool"
        }
      ],
      "name": "DebugUint256",
      "type": "event"
    },
    {
      "anonymous": false,
      "inputs": [
        {
          "indexed": true,
          "internalType": "address",
          "name": "purchaser",
          "type": "address"
        },
        {
          "indexed": true,
          "internalType": "address",
          "name": "beneficiary",
          "type": "address"
        },
        {
          "indexed": false,
          "internalType": "uint256",
          "name": "value",
          "type": "uint256"
        },
        {
          "indexed": false,
          "internalType": "uint256",
          "name": "amount",
          "type": "uint256"
        }
      ],
      "name": "TokenPurchase",
      "type": "event"
    },
    {
      "stateMutability": "payable",
      "type": "fallback"
    },
    {
      "inputs": [
        {
          "internalType": "address",
          "name": "_beneficiary",
          "type": "address"
        }
      ],
      "name": "buyTokens",
      "outputs": [],
      "stateMutability": "payable",
      "type": "function"
    },
    {
      "inputs": [],
      "name": "cap",
      "outputs": [
        {
          "internalType": "uint256",
          "name": "",
          "type": "uint256"
        }
      ],
      "stateMutability": "view",
      "type": "function"
    },
    {
      "inputs": [],
      "name": "capReached",
      "outputs": [
        {
          "internalType": "bool",
          "name": "",
          "type": "bool"
        }
      ],
      "stateMutability": "view",
      "type": "function"
    },
    {
      "inputs": [],
      "name": "rate",
      "outputs": [
        {
          "internalType": "uint256",
          "name": "",
          "type": "uint256"
        }
      ],
      "stateMutability": "view",
      "type": "function"
    },
    {
      "inputs": [],
      "name": "token",
      "outputs": [
        {
          "internalType": "contract ERC20",
          "name": "",
          "type": "address"
        }
      ],
      "stateMutability": "view",
      "type": "function"
    },
    {
      "inputs": [],
      "name": "wallet",
      "outputs": [
        {
          "internalType": "address",
          "name": "",
          "type": "address"
        }
      ],
      "stateMutability": "view",
      "type": "function"
    },
    {
      "inputs": [],
      "name": "weiRaised",
      "outputs": [
        {
          "internalType": "uint256",
          "name": "",
          "type": "uint256"
        }
      ],
      "stateMutability": "view",
      "type": "function"
    },
    {
      "stateMutability": "payable",
      "type": "receive"
    }
  ],
  "bytecode": "0x608060405234801561001057600080fd5b50604051610a44380380610a4483398101604081905261002f9161011d565b8383836000831115157f9f83a56b6b62f46d9c0e9818a1661f72ca56ba06cff353d059436e5832127d84846040516100679190610165565b60405180910390a26040516001600160a01b038316151590600080516020610a248339815191529061009a9085906101da565b60405180910390a26040516001600160a01b038216151590600080516020610a24833981519152906100cd908490610192565b60405180910390a2600292909255600180546001600160a01b039283166001600160a01b031991821617909155600080549290931691161790558061011157600080fd5b6004555061022b915050565b60008060008060808587031215610132578384fd5b84519350602085015161014481610213565b604086015190935061015581610213565b6060959095015193969295505050565b6040808252600b908201526a4e756d6265722f5261746560a81b6060820152602081019190915260800190565b60408082526016908201527f416464726573732f6164647265737328746f6b656e290000000000000000000060608201526001600160a01b0391909116602082015260800190565b6040808252600e908201526d1059191c995cdccbd5d85b1b195d60921b60608201526001600160a01b0391909116602082015260800190565b6001600160a01b038116811461022857600080fd5b50565b6107ea8061023a6000396000f3fe6080604052600436106100745760003560e01c80634f9359451161004e5780634f935945146100e2578063521eb27314610104578063ec8ac4d814610126578063fc0c546a1461013957610084565b80632c4e722e1461008d578063355274ea146100b85780634042b66f146100cd57610084565b36610084576100823361014e565b005b6100823361014e565b34801561009957600080fd5b506100a26103e7565b6040516100af9190610750565b60405180910390f35b3480156100c457600080fd5b506100a26103ed565b3480156100d957600080fd5b506100a26103f3565b3480156100ee57600080fd5b506100f76103f9565b6040516100af919061067b565b34801561011057600080fd5b50610119610404565b6040516100af919061064e565b6100826101343660046105ef565b61014e565b34801561014557600080fd5b50610119610413565b346101598282610422565b60006101648261044b565b6000546040516370a0823160e01b815291925082916001600160a01b03909116906370a082319061019990309060040161064e565b60206040518083038186803b1580156101b157600080fd5b505afa1580156101c5573d6000803e3d6000fd5b505050506040513d601f19601f820116820180604052508101906101e99190610636565b6000546040516370a0823160e01b81529290911015917f9f83a56b6b62f46d9c0e9818a1661f72ca56ba06cff353d059436e5832127d84916001600160a01b0316906370a082319061023f90309060040161064e565b60206040518083038186803b15801561025757600080fd5b505afa15801561026b573d6000803e3d6000fd5b505050506040513d601f19601f8201168201806040525081019061028f9190610636565b60405161029c91906106b2565b60405180910390a26000546040516370a0823160e01b815282916001600160a01b0316906370a08231906102d490309060040161064e565b60206040518083038186803b1580156102ec57600080fd5b505afa158015610300573d6000803e3d6000fd5b505050506040513d601f19601f820116820180604052508101906103249190610636565b101515157f9f83a56b6b62f46d9c0e9818a1661f72ca56ba06cff353d059436e5832127d84826040516103579190610721565b60405180910390a260035461036c9083610468565b600355610379838261047b565b826001600160a01b0316336001600160a01b03167f623b3804fa71d67900d064613da8f94b9617215ee90799290593e1745087ad1884846040516103be929190610759565b60405180910390a36103d08383610447565b6103d8610485565b6103e28383610447565b505050565b60025481565b60045490565b60035481565b600454600354101590565b6001546001600160a01b031681565b6000546001600160a01b031681565b61042c82826104c1565b60045460035461043c9083610468565b111561044757600080fd5b5050565b60006104626002548361055f90919063ffffffff16565b92915050565b60006104748284610767565b9392505050565b610447828261056b565b6001546040516001600160a01b03909116903480156108fc02916000818181858888f193505050501580156104be573d6000803e3d6000fd5b50565b6040516001600160a01b0383161515907facc1fbd861d476a3b70596fb49d0ebb80e2e5d077cdde5d17d8abcd924ef8d20906104fe9085906106ea565b60405180910390a2604051811515907f9f83a56b6b62f46d9c0e9818a1661f72ca56ba06cff353d059436e5832127d849061053a908490610686565b60405180910390a26001600160a01b03821661055557600080fd5b8061044757600080fd5b6000610474828461077f565b60005460405163a9059cbb60e01b81526001600160a01b039091169063a9059cbb9061059d9085908590600401610662565b602060405180830381600087803b1580156105b757600080fd5b505af11580156105cb573d6000803e3d6000fd5b505050506040513d601f19601f820116820180604052508101906103e29190610616565b600060208284031215610600578081fd5b81356001600160a01b0381168114610474578182fd5b600060208284031215610627578081fd5b81518015158114610474578182fd5b600060208284031215610647578081fd5b5051919050565b6001600160a01b0391909116815260200190565b6001600160a01b03929092168252602082015260400190565b901515815260200190565b6040808252600a908201526917ddd95a505b5bdd5b9d60b21b6060820152602081019190915260800190565b604080825260169082015275273ab6b132b917ba37b5b2b7173130b630b731b2a7b360511b6060820152602081019190915260800190565b6040808252600c908201526b5f62656e656669636961727960a01b60608201526001600160a01b0391909116602082015260800190565b6040808252600d908201526c4e756d6265722f746f6b656e7360981b6060820152602081019190915260800190565b90815260200190565b918252602082015260400190565b6000821982111561077a5761077a61079e565b500190565b60008160001904831182151516156107995761079961079e565b500290565b634e487b7160e01b600052601160045260246000fdfea2646970667358221220858fbce0daa282cff827069e8b876a279e37949b68c30d69e03660eff329edab64736f6c63430008000033acc1fbd861d476a3b70596fb49d0ebb80e2e5d077cdde5d17d8abcd924ef8d20",
  "linkReferences": {},
  "deployedLinkReferences": {}
}