{
  "_format": "hh-sol-artifact-1",
  "contractName": "FinalizableCrowdsale",
  "sourceName": "contracts/crowdsale/distrbution/FinalizableCrowdsale.sol",
  "abi": [
    {
      "inputs": [
        {
          "internalType": "uint256",
          "name": "_rate",
          "type": "uint256"
        },
        {
          "internalType": "address",
          "name": "_wallet",
          "type": "address"
        },
        {
          "internalType": "contract ERC20",
          "name": "_token",
          "type": "address"
        },
        {
          "internalType": "uint256",
          "name": "openingTime_",
          "type": "uint256"
        },
        {
          "internalType": "uint256",
          "name": "closingTime_",
          "type": "uint256"
        }
      ],
      "stateMutability": "nonpayable",
      "type": "constructor"
    },
    {
      "anonymous": false,
      "inputs": [],
      "name": "CrowdsaleFinalized",
      "type": "event"
    },
    {
      "anonymous": false,
      "inputs": [
        {
          "indexed": false,
          "internalType": "string",
          "name": "name",
          "type": "string"
        },
        {
          "indexed": false,
          "internalType": "address",
          "name": "value",
          "type": "address"
        },
        {
          "indexed": true,
          "internalType": "bool",
          "name": "status",
          "type": "bool"
        }
      ],
      "name": "DebugAddress",
      "type": "event"
    },
    {
      "anonymous": false,
      "inputs": [
        {
          "indexed": false,
          "internalType": "string",
          "name": "name",
          "type": "string"
        },
        {
          "indexed": false,
          "internalType": "string",
          "name": "value",
          "type": "string"
        },
        {
          "indexed": true,
          "internalType": "bool",
          "name": "status",
          "type": "bool"
        }
      ],
      "name": "DebugString",
      "type": "event"
    },
    {
      "anonymous": false,
      "inputs": [
        {
          "indexed": false,
          "internalType": "string",
          "name": "name",
          "type": "string"
        },
        {
          "indexed": false,
          "internalType": "uint256",
          "name": "value",
          "type": "uint256"
        },
        {
          "indexed": true,
          "internalType": "bool",
          "name": "status",
          "type": "bool"
        }
      ],
      "name": "DebugUint256",
      "type": "event"
    },
    {
      "anonymous": false,
      "inputs": [
        {
          "indexed": true,
          "internalType": "address",
          "name": "purchaser",
          "type": "address"
        },
        {
          "indexed": true,
          "internalType": "address",
          "name": "beneficiary",
          "type": "address"
        },
        {
          "indexed": false,
          "internalType": "uint256",
          "name": "value",
          "type": "uint256"
        },
        {
          "indexed": false,
          "internalType": "uint256",
          "name": "amount",
          "type": "uint256"
        }
      ],
      "name": "TokenPurchase",
      "type": "event"
    },
    {
      "stateMutability": "payable",
      "type": "fallback"
    },
    {
      "inputs": [
        {
          "internalType": "address",
          "name": "_beneficiary",
          "type": "address"
        }
      ],
      "name": "buyTokens",
      "outputs": [],
      "stateMutability": "payable",
      "type": "function"
    },
    {
      "inputs": [],
      "name": "closingTime",
      "outputs": [
        {
          "internalType": "uint256",
          "name": "",
          "type": "uint256"
        }
      ],
      "stateMutability": "view",
      "type": "function"
    },
    {
      "inputs": [],
      "name": "finalize",
      "outputs": [],
      "stateMutability": "nonpayable",
      "type": "function"
    },
    {
      "inputs": [],
      "name": "finalized",
      "outputs": [
        {
          "internalType": "bool",
          "name": "",
          "type": "bool"
        }
      ],
      "stateMutability": "view",
      "type": "function"
    },
    {
      "inputs": [],
      "name": "hasClosed",
      "outputs": [
        {
          "internalType": "bool",
          "name": "",
          "type": "bool"
        }
      ],
      "stateMutability": "view",
      "type": "function"
    },
    {
      "inputs": [],
      "name": "isOpen",
      "outputs": [
        {
          "internalType": "bool",
          "name": "",
          "type": "bool"
        }
      ],
      "stateMutability": "view",
      "type": "function"
    },
    {
      "inputs": [],
      "name": "openingTime",
      "outputs": [
        {
          "internalType": "uint256",
          "name": "",
          "type": "uint256"
        }
      ],
      "stateMutability": "view",
      "type": "function"
    },
    {
      "inputs": [],
      "name": "rate",
      "outputs": [
        {
          "internalType": "uint256",
          "name": "",
          "type": "uint256"
        }
      ],
      "stateMutability": "view",
      "type": "function"
    },
    {
      "inputs": [],
      "name": "token",
      "outputs": [
        {
          "internalType": "contract ERC20",
          "name": "",
          "type": "address"
        }
      ],
      "stateMutability": "view",
      "type": "function"
    },
    {
      "inputs": [],
      "name": "wallet",
      "outputs": [
        {
          "internalType": "address",
          "name": "",
          "type": "address"
        }
      ],
      "stateMutability": "view",
      "type": "function"
    },
    {
      "inputs": [],
      "name": "weiRaised",
      "outputs": [
        {
          "internalType": "uint256",
          "name": "",
          "type": "uint256"
        }
      ],
      "stateMutability": "view",
      "type": "function"
    },
    {
      "stateMutability": "payable",
      "type": "receive"
    }
  ],
  "bytecode": "0x608060405234801561001057600080fd5b50604051610b78380380610b7883398101604081905261002f91610146565b84848484848484846000831115157f9f83a56b6b62f46d9c0e9818a1661f72ca56ba06cff353d059436e5832127d848460405161006c9190610199565b60405180910390a26040516001600160a01b038316151590600080516020610b588339815191529061009f90859061020e565b60405180910390a26040516001600160a01b038216151590600080516020610b58833981519152906100d29084906101c6565b60405180910390a2600292909255600180546001600160a01b039283166001600160a01b031991821617909155600080549290931691161790554282101561011957600080fd5b81811161012557600080fd5b60049190915560055550506006805460ff191690555061025f945050505050565b600080600080600060a0868803121561015d578081fd5b85519450602086015161016f81610247565b604087015190945061018081610247565b6060870151608090970151959894975095949392505050565b6040808252600b908201526a4e756d6265722f5261746560a81b6060820152602081019190915260800190565b60408082526016908201527f416464726573732f6164647265737328746f6b656e290000000000000000000060608201526001600160a01b0391909116602082015260800190565b6040808252600e908201526d1059191c995cdccbd5d85b1b195d60921b60608201526001600160a01b0391909116602082015260800190565b6001600160a01b038116811461025c57600080fd5b50565b6108ea8061026e6000396000f3fe6080604052600436106100a05760003560e01c80634bb278f3116100645780634bb278f314610145578063521eb2731461015a578063b3f05b971461017c578063b7a8807c14610191578063ec8ac4d8146101a6578063fc0c546a146101b9576100b0565b80631515bc2b146100b95780632c4e722e146100e45780634042b66f1461010657806347535d7b1461011b5780634b6753bc14610130576100b0565b366100b0576100ae336101ce565b005b6100ae336101ce565b3480156100c557600080fd5b506100ce610467565b6040516100db919061077b565b60405180910390f35b3480156100f057600080fd5b506100f961046f565b6040516100db9190610850565b34801561011257600080fd5b506100f9610475565b34801561012757600080fd5b506100ce61047b565b34801561013c57600080fd5b506100f9610496565b34801561015157600080fd5b506100ae61049c565b34801561016657600080fd5b5061016f6104fd565b6040516100db919061074e565b34801561018857600080fd5b506100ce61050c565b34801561019d57600080fd5b506100f9610515565b6100ae6101b43660046106ef565b6101ce565b3480156101c557600080fd5b5061016f61051b565b346101d9828261052a565b60006101e482610549565b6000546040516370a0823160e01b815291925082916001600160a01b03909116906370a082319061021990309060040161074e565b60206040518083038186803b15801561023157600080fd5b505afa158015610245573d6000803e3d6000fd5b505050506040513d601f19601f820116820180604052508101906102699190610736565b6000546040516370a0823160e01b81529290911015917f9f83a56b6b62f46d9c0e9818a1661f72ca56ba06cff353d059436e5832127d84916001600160a01b0316906370a08231906102bf90309060040161074e565b60206040518083038186803b1580156102d757600080fd5b505afa1580156102eb573d6000803e3d6000fd5b505050506040513d601f19601f8201168201806040525081019061030f9190610736565b60405161031c91906107b2565b60405180910390a26000546040516370a0823160e01b815282916001600160a01b0316906370a082319061035490309060040161074e565b60206040518083038186803b15801561036c57600080fd5b505afa158015610380573d6000803e3d6000fd5b505050506040513d601f19601f820116820180604052508101906103a49190610736565b101515157f9f83a56b6b62f46d9c0e9818a1661f72ca56ba06cff353d059436e5832127d84826040516103d79190610821565b60405180910390a26003546103ec9083610566565b6003556103f98382610579565b826001600160a01b0316336001600160a01b03167f623b3804fa71d67900d064613da8f94b9617215ee90799290593e1745087ad18848460405161043e929190610859565b60405180910390a36104508383610545565b610458610583565b6104628383610545565b505050565b600554421190565b60025481565b60035481565b6000600454421015801561049157506005544211155b905090565b60055490565b60065460ff16156104ac57600080fd5b6104b4610467565b6104bd57600080fd5b6006805460ff191660011790556104d26105bf565b6040517f9270cc390c096600a1c17c44345a1ba689fafd99d97487b10cfccf86cf73183690600090a1565b6001546001600160a01b031681565b60065460ff1690565b60045490565b6000546001600160a01b031681565b61053261047b565b61053b57600080fd5b61054582826105c1565b5050565b60006105606002548361065f90919063ffffffff16565b92915050565b60006105728284610867565b9392505050565b610545828261066b565b6001546040516001600160a01b03909116903480156108fc02916000818181858888f193505050501580156105bc573d6000803e3d6000fd5b50565b565b6040516001600160a01b0383161515907facc1fbd861d476a3b70596fb49d0ebb80e2e5d077cdde5d17d8abcd924ef8d20906105fe9085906107ea565b60405180910390a2604051811515907f9f83a56b6b62f46d9c0e9818a1661f72ca56ba06cff353d059436e5832127d849061063a908490610786565b60405180910390a26001600160a01b03821661065557600080fd5b8061054557600080fd5b6000610572828461087f565b60005460405163a9059cbb60e01b81526001600160a01b039091169063a9059cbb9061069d9085908590600401610762565b602060405180830381600087803b1580156106b757600080fd5b505af11580156106cb573d6000803e3d6000fd5b505050506040513d601f19601f820116820180604052508101906104629190610716565b600060208284031215610700578081fd5b81356001600160a01b0381168114610572578182fd5b600060208284031215610727578081fd5b81518015158114610572578182fd5b600060208284031215610747578081fd5b5051919050565b6001600160a01b0391909116815260200190565b6001600160a01b03929092168252602082015260400190565b901515815260200190565b6040808252600a908201526917ddd95a505b5bdd5b9d60b21b6060820152602081019190915260800190565b604080825260169082015275273ab6b132b917ba37b5b2b7173130b630b731b2a7b360511b6060820152602081019190915260800190565b6040808252600c908201526b5f62656e656669636961727960a01b60608201526001600160a01b0391909116602082015260800190565b6040808252600d908201526c4e756d6265722f746f6b656e7360981b6060820152602081019190915260800190565b90815260200190565b918252602082015260400190565b6000821982111561087a5761087a61089e565b500190565b60008160001904831182151516156108995761089961089e565b500290565b634e487b7160e01b600052601160045260246000fdfea26469706673582212204ecff45e9d910e8a6ea2902b9630be7b647a10a44666f5ccf12cb3f0fbd2241164736f6c63430008000033acc1fbd861d476a3b70596fb49d0ebb80e2e5d077cdde5d17d8abcd924ef8d20",
  "linkReferences": {},
  "deployedLinkReferences": {}
}