{
  "_format": "hh-sol-artifact-1",
  "contractName": "MaxAmountCrowdsale",
  "sourceName": "contracts/crowdsale/validation/MaxAmountCrowdsale.sol",
  "abi": [
    {
      "inputs": [
        {
          "internalType": "uint256",
          "name": "_rate",
          "type": "uint256"
        },
        {
          "internalType": "address",
          "name": "_wallet",
          "type": "address"
        },
        {
          "internalType": "contract ERC20",
          "name": "_token",
          "type": "address"
        },
        {
          "internalType": "uint256",
          "name": "max_amount_",
          "type": "uint256"
        }
      ],
      "stateMutability": "nonpayable",
      "type": "constructor"
    },
    {
      "anonymous": false,
      "inputs": [
        {
          "indexed": false,
          "internalType": "string",
          "name": "name",
          "type": "string"
        },
        {
          "indexed": false,
          "internalType": "address",
          "name": "value",
          "type": "address"
        },
        {
          "indexed": true,
          "internalType": "bool",
          "name": "status",
          "type": "bool"
        }
      ],
      "name": "DebugAddress",
      "type": "event"
    },
    {
      "anonymous": false,
      "inputs": [
        {
          "indexed": false,
          "internalType": "string",
          "name": "name",
          "type": "string"
        },
        {
          "indexed": false,
          "internalType": "string",
          "name": "value",
          "type": "string"
        },
        {
          "indexed": true,
          "internalType": "bool",
          "name": "status",
          "type": "bool"
        }
      ],
      "name": "DebugString",
      "type": "event"
    },
    {
      "anonymous": false,
      "inputs": [
        {
          "indexed": false,
          "internalType": "string",
          "name": "name",
          "type": "string"
        },
        {
          "indexed": false,
          "internalType": "uint256",
          "name": "value",
          "type": "uint256"
        },
        {
          "indexed": true,
          "internalType": "bool",
          "name": "status",
          "type": "bool"
        }
      ],
      "name": "DebugUint256",
      "type": "event"
    },
    {
      "anonymous": false,
      "inputs": [
        {
          "indexed": true,
          "internalType": "address",
          "name": "purchaser",
          "type": "address"
        },
        {
          "indexed": true,
          "internalType": "address",
          "name": "beneficiary",
          "type": "address"
        },
        {
          "indexed": false,
          "internalType": "uint256",
          "name": "value",
          "type": "uint256"
        },
        {
          "indexed": false,
          "internalType": "uint256",
          "name": "amount",
          "type": "uint256"
        }
      ],
      "name": "TokenPurchase",
      "type": "event"
    },
    {
      "stateMutability": "payable",
      "type": "fallback"
    },
    {
      "inputs": [
        {
          "internalType": "address",
          "name": "_beneficiary",
          "type": "address"
        }
      ],
      "name": "buyTokens",
      "outputs": [],
      "stateMutability": "payable",
      "type": "function"
    },
    {
      "inputs": [],
      "name": "maxAmount",
      "outputs": [
        {
          "internalType": "uint256",
          "name": "",
          "type": "uint256"
        }
      ],
      "stateMutability": "view",
      "type": "function"
    },
    {
      "inputs": [],
      "name": "rate",
      "outputs": [
        {
          "internalType": "uint256",
          "name": "",
          "type": "uint256"
        }
      ],
      "stateMutability": "view",
      "type": "function"
    },
    {
      "inputs": [],
      "name": "token",
      "outputs": [
        {
          "internalType": "contract ERC20",
          "name": "",
          "type": "address"
        }
      ],
      "stateMutability": "view",
      "type": "function"
    },
    {
      "inputs": [],
      "name": "wallet",
      "outputs": [
        {
          "internalType": "address",
          "name": "",
          "type": "address"
        }
      ],
      "stateMutability": "view",
      "type": "function"
    },
    {
      "inputs": [],
      "name": "weiRaised",
      "outputs": [
        {
          "internalType": "uint256",
          "name": "",
          "type": "uint256"
        }
      ],
      "stateMutability": "view",
      "type": "function"
    },
    {
      "stateMutability": "payable",
      "type": "receive"
    }
  ],
  "bytecode": "0x608060405234801561001057600080fd5b50604051610b35380380610b3583398101604081905261002f91610147565b838383600083111515600080516020610b1583398151915284604051610055919061018f565b60405180910390a26040516001600160a01b038316151590600080516020610af583398151915290610088908590610231565b60405180910390a26040516001600160a01b038216151590600080516020610af5833981519152906100bb9084906101e9565b60405180910390a2600292909255600180546001600160a01b039283166001600160a01b0319918216179091556000805492909316911617905560405181151590600080516020610b15833981519152906101179084906101bc565b60405180910390a26000811161012c57600080fd5b61013a81633b9aca0061026a565b600455506102ad92505050565b6000806000806080858703121561015c578384fd5b84519350602085015161016e81610295565b604086015190935061017f81610295565b6060959095015193969295505050565b6040808252600b908201526a4e756d6265722f5261746560a81b6060820152602081019190915260800190565b6040808252600b908201526a6d61785f616d6f756e745f60a81b6060820152602081019190915260800190565b60408082526016908201527f416464726573732f6164647265737328746f6b656e290000000000000000000060608201526001600160a01b0391909116602082015260800190565b6040808252600e908201526d1059191c995cdccbd5d85b1b195d60921b60608201526001600160a01b0391909116602082015260800190565b600081600019048311821515161561029057634e487b7160e01b81526011600452602481fd5b500290565b6001600160a01b03811681146102aa57600080fd5b50565b610839806102bc6000396000f3fe6080604052600436106100595760003560e01c80632c4e722e146100725780634042b66f1461009d578063521eb273146100b25780635f48f393146100d4578063ec8ac4d8146100e9578063fc0c546a146100fc57610069565b366100695761006733610111565b005b61006733610111565b34801561007e57600080fd5b50610087610386565b604051610094919061077f565b60405180910390f35b3480156100a957600080fd5b5061008761038c565b3480156100be57600080fd5b506100c7610392565b6040516100949190610632565b3480156100e057600080fd5b506100876103a1565b6100676100f73660046105d3565b610111565b34801561010857600080fd5b506100c76103a7565b3461011c82826103b6565b600061012782610441565b6000546040516370a0823160e01b815291925082916001600160a01b03909116906370a082319061015c903090600401610632565b60206040518083038186803b15801561017457600080fd5b505afa158015610188573d6000803e3d6000fd5b505050506040513d601f19601f820116820180604052508101906101ac919061061a565b6000546040516370a0823160e01b81529290911015916000805160206107e4833981519152916001600160a01b0316906370a08231906101f0903090600401610632565b60206040518083038186803b15801561020857600080fd5b505afa15801561021c573d6000803e3d6000fd5b505050506040513d601f19601f82011682018060405250810190610240919061061a565b60405161024d919061068b565b60405180910390a26000546040516370a0823160e01b815282916001600160a01b0316906370a0823190610285903090600401610632565b60206040518083038186803b15801561029d57600080fd5b505afa1580156102b1573d6000803e3d6000fd5b505050506040513d601f19601f820116820180604052508101906102d5919061061a565b101515156000805160206107e4833981519152826040516102f69190610750565b60405180910390a260035461030b908361045e565b6003556103188382610471565b826001600160a01b0316336001600160a01b03167f623b3804fa71d67900d064613da8f94b9617215ee90799290593e1745087ad18848460405161035d929190610788565b60405180910390a361036f838361043d565b61037761047b565b610381838361043d565b505050565b60025481565b60035481565b6001546001600160a01b031681565b60045490565b6000546001600160a01b031681565b6103c082826104b7565b806103c96103a1565b10156000805160206107e48339815191526103e26103a1565b6040516103ef91906106fa565b60405180910390a2806104006103a1565b101515156000805160206107e4833981519152826040516104219190610725565b60405180910390a2806104326103a1565b101561043d57600080fd5b5050565b60006104586002548361054390919063ffffffff16565b92915050565b600061046a8284610796565b9392505050565b61043d828261054f565b6001546040516001600160a01b03909116903480156108fc02916000818181858888f193505050501580156104b4573d6000803e3d6000fd5b50565b6040516001600160a01b0383161515907facc1fbd861d476a3b70596fb49d0ebb80e2e5d077cdde5d17d8abcd924ef8d20906104f49085906106c3565b60405180910390a2604051811515906000805160206107e48339815191529061051e90849061065f565b60405180910390a26001600160a01b03821661053957600080fd5b8061043d57600080fd5b600061046a82846107ae565b60005460405163a9059cbb60e01b81526001600160a01b039091169063a9059cbb906105819085908590600401610646565b602060405180830381600087803b15801561059b57600080fd5b505af11580156105af573d6000803e3d6000fd5b505050506040513d601f19601f8201168201806040525081019061038191906105fa565b6000602082840312156105e4578081fd5b81356001600160a01b038116811461046a578182fd5b60006020828403121561060b578081fd5b8151801515811461046a578182fd5b60006020828403121561062b578081fd5b5051919050565b6001600160a01b0391909116815260200190565b6001600160a01b03929092168252602082015260400190565b6040808252600a908201526917ddd95a505b5bdd5b9d60b21b6060820152602081019190915260800190565b604080825260169082015275273ab6b132b917ba37b5b2b7173130b630b731b2a7b360511b6060820152602081019190915260800190565b6040808252600c908201526b5f62656e656669636961727960a01b60608201526001600160a01b0391909116602082015260800190565b6040808252600990820152681b585e105b5bdd5b9d60ba1b6060820152602081019190915260800190565b6040808252600990820152681dd95a505b5bdd5b9d60ba1b6060820152602081019190915260800190565b6040808252600d908201526c4e756d6265722f746f6b656e7360981b6060820152602081019190915260800190565b90815260200190565b918252602082015260400190565b600082198211156107a9576107a96107cd565b500190565b60008160001904831182151516156107c8576107c86107cd565b500290565b634e487b7160e01b600052601160045260246000fdfe9f83a56b6b62f46d9c0e9818a1661f72ca56ba06cff353d059436e5832127d84a26469706673582212201dad25d025c4a264a27ad10182e52be526407cdd97dc417b1dec4c09dcddef2a64736f6c63430008000033acc1fbd861d476a3b70596fb49d0ebb80e2e5d077cdde5d17d8abcd924ef8d209f83a56b6b62f46d9c0e9818a1661f72ca56ba06cff353d059436e5832127d84",
  "linkReferences": {},
  "deployedLinkReferences": {}
}