{
  "_format": "hh-sol-artifact-1",
  "contractName": "CappedTimedMaxAmountCrowdsale",
  "sourceName": "contracts/crowdsale/validation/CappedTimedMaxAmountCrowdsale.sol",
  "abi": [
    {
      "inputs": [
        {
          "internalType": "uint256",
          "name": "_rate",
          "type": "uint256"
        },
        {
          "internalType": "address",
          "name": "_wallet",
          "type": "address"
        },
        {
          "internalType": "contract ERC20",
          "name": "_token",
          "type": "address"
        },
        {
          "internalType": "uint256",
          "name": "cap_",
          "type": "uint256"
        },
        {
          "internalType": "uint256",
          "name": "_max",
          "type": "uint256"
        },
        {
          "internalType": "uint256",
          "name": "openingTime_",
          "type": "uint256"
        },
        {
          "internalType": "uint256",
          "name": "closingTime_",
          "type": "uint256"
        }
      ],
      "stateMutability": "nonpayable",
      "type": "constructor"
    },
    {
      "anonymous": false,
      "inputs": [
        {
          "indexed": false,
          "internalType": "string",
          "name": "name",
          "type": "string"
        },
        {
          "indexed": false,
          "internalType": "address",
          "name": "value",
          "type": "address"
        },
        {
          "indexed": true,
          "internalType": "bool",
          "name": "status",
          "type": "bool"
        }
      ],
      "name": "DebugAddress",
      "type": "event"
    },
    {
      "anonymous": false,
      "inputs": [
        {
          "indexed": false,
          "internalType": "string",
          "name": "name",
          "type": "string"
        },
        {
          "indexed": false,
          "internalType": "string",
          "name": "value",
          "type": "string"
        },
        {
          "indexed": true,
          "internalType": "bool",
          "name": "status",
          "type": "bool"
        }
      ],
      "name": "DebugString",
      "type": "event"
    },
    {
      "anonymous": false,
      "inputs": [
        {
          "indexed": false,
          "internalType": "string",
          "name": "name",
          "type": "string"
        },
        {
          "indexed": false,
          "internalType": "uint256",
          "name": "value",
          "type": "uint256"
        },
        {
          "indexed": true,
          "internalType": "bool",
          "name": "status",
          "type": "bool"
        }
      ],
      "name": "DebugUint256",
      "type": "event"
    },
    {
      "anonymous": false,
      "inputs": [
        {
          "indexed": true,
          "internalType": "address",
          "name": "purchaser",
          "type": "address"
        },
        {
          "indexed": true,
          "internalType": "address",
          "name": "beneficiary",
          "type": "address"
        },
        {
          "indexed": false,
          "internalType": "uint256",
          "name": "value",
          "type": "uint256"
        },
        {
          "indexed": false,
          "internalType": "uint256",
          "name": "amount",
          "type": "uint256"
        }
      ],
      "name": "TokenPurchase",
      "type": "event"
    },
    {
      "stateMutability": "payable",
      "type": "fallback"
    },
    {
      "inputs": [
        {
          "internalType": "address",
          "name": "_beneficiary",
          "type": "address"
        }
      ],
      "name": "buyTokens",
      "outputs": [],
      "stateMutability": "payable",
      "type": "function"
    },
    {
      "inputs": [],
      "name": "cap",
      "outputs": [
        {
          "internalType": "uint256",
          "name": "",
          "type": "uint256"
        }
      ],
      "stateMutability": "view",
      "type": "function"
    },
    {
      "inputs": [],
      "name": "capReached",
      "outputs": [
        {
          "internalType": "bool",
          "name": "",
          "type": "bool"
        }
      ],
      "stateMutability": "view",
      "type": "function"
    },
    {
      "inputs": [],
      "name": "closingTime",
      "outputs": [
        {
          "internalType": "uint256",
          "name": "",
          "type": "uint256"
        }
      ],
      "stateMutability": "view",
      "type": "function"
    },
    {
      "inputs": [],
      "name": "hasClosed",
      "outputs": [
        {
          "internalType": "bool",
          "name": "",
          "type": "bool"
        }
      ],
      "stateMutability": "view",
      "type": "function"
    },
    {
      "inputs": [],
      "name": "isOpen",
      "outputs": [
        {
          "internalType": "bool",
          "name": "",
          "type": "bool"
        }
      ],
      "stateMutability": "view",
      "type": "function"
    },
    {
      "inputs": [],
      "name": "maxAmount",
      "outputs": [
        {
          "internalType": "uint256",
          "name": "",
          "type": "uint256"
        }
      ],
      "stateMutability": "view",
      "type": "function"
    },
    {
      "inputs": [],
      "name": "openingTime",
      "outputs": [
        {
          "internalType": "uint256",
          "name": "",
          "type": "uint256"
        }
      ],
      "stateMutability": "view",
      "type": "function"
    },
    {
      "inputs": [],
      "name": "rate",
      "outputs": [
        {
          "internalType": "uint256",
          "name": "",
          "type": "uint256"
        }
      ],
      "stateMutability": "view",
      "type": "function"
    },
    {
      "inputs": [],
      "name": "token",
      "outputs": [
        {
          "internalType": "contract ERC20",
          "name": "",
          "type": "address"
        }
      ],
      "stateMutability": "view",
      "type": "function"
    },
    {
      "inputs": [],
      "name": "wallet",
      "outputs": [
        {
          "internalType": "address",
          "name": "",
          "type": "address"
        }
      ],
      "stateMutability": "view",
      "type": "function"
    },
    {
      "inputs": [],
      "name": "weiRaised",
      "outputs": [
        {
          "internalType": "uint256",
          "name": "",
          "type": "uint256"
        }
      ],
      "stateMutability": "view",
      "type": "function"
    },
    {
      "stateMutability": "payable",
      "type": "receive"
    }
  ],
  "bytecode": "0x60806040523480156200001157600080fd5b50604051620010f0380380620010f0833981016040819052620000349162000263565b86868685838383600083111515600080516020620010d083398151915284604051620000619190620002d1565b60405180910390a26040516001600160a01b038316151590600080516020620010b08339815191529062000097908590620003f8565b60405180910390a26040516001600160a01b038216151590600080516020620010b083398151915290620000cd90849062000382565b60405180910390a2600292909255600180546001600160a01b039283166001600160a01b0319918216179091556000805492909316911617905560405181151590600080516020620010d0833981519152906200012c90849062000324565b60405180910390a2600081116200014257600080fd5b6200015281633b9aca006200045f565b6004555050604051428510159250600080516020620010d083398151915291506200017f90859062000431565b60405180910390a2604051428084101591600080516020620010d083398151915291620001ac9162000351565b60405180910390a28181111515600080516020620010d083398151915282604051620001d99190620003ca565b60405180910390a2600084111515600080516020620010d083398151915285604051620002079190620002fe565b60405180910390a2428210156200021d57600080fd5b8181116200022a57600080fd5b600084116200023857600080fd5b600682905560078190556200025284633b9aca006200045f565b60055550620004a495505050505050565b600080600080600080600060e0888a0312156200027e578283fd5b87519650602088015162000292816200048b565b6040890151909650620002a5816200048b565b80955050606088015193506080880151925060a0880151915060c0880151905092959891949750929550565b6040808252600b908201526a4e756d6265722f5261746560a81b6060820152602081019190915260800190565b6040808252600490820152636361705f60e01b6060820152602081019190915260800190565b6040808252600b908201526a6d61785f616d6f756e745f60a81b6060820152602081019190915260800190565b6040808252600f908201526e0626c6f636b2e74696d657374616d7608c1b6060820152602081019190915260800190565b60408082526016908201527f416464726573732f6164647265737328746f6b656e290000000000000000000060608201526001600160a01b0391909116602082015260800190565b6040808252600c908201526b636c6f73696e6754696d655f60a01b6060820152602081019190915260800190565b6040808252600e908201526d1059191c995cdccbd5d85b1b195d60921b60608201526001600160a01b0391909116602082015260800190565b6040808252600c908201526b6f70656e696e6754696d655f60a01b6060820152602081019190915260800190565b60008160001904831182151516156200048657634e487b7160e01b81526011600452602481fd5b500290565b6001600160a01b0381168114620004a157600080fd5b50565b610bfc80620004b46000396000f3fe6080604052600436106100ab5760003560e01c80634f935945116100645780634f93594514610165578063521eb2731461017a5780635f48f3931461019c578063b7a8807c146101b1578063ec8ac4d8146101c6578063fc0c546a146101d9576100bb565b80631515bc2b146100c45780632c4e722e146100ef578063355274ea146101115780634042b66f1461012657806347535d7b1461013b5780634b6753bc14610150576100bb565b366100bb576100b9336101ee565b005b6100b9336101ee565b3480156100d057600080fd5b506100d9610463565b6040516100e69190610925565b60405180910390f35b3480156100fb57600080fd5b5061010461046b565b6040516100e69190610b42565b34801561011d57600080fd5b50610104610471565b34801561013257600080fd5b50610104610477565b34801561014757600080fd5b506100d961047d565b34801561015c57600080fd5b50610104610498565b34801561017157600080fd5b506100d961049e565b34801561018657600080fd5b5061018f6104a9565b6040516100e691906108f8565b3480156101a857600080fd5b506101046104b8565b3480156101bd57600080fd5b506101046104be565b6100b96101d436600461087e565b6101ee565b3480156101e557600080fd5b5061018f6104c4565b346101f982826104d3565b600061020482610665565b6000546040516370a0823160e01b815291925082916001600160a01b03909116906370a08231906102399030906004016108f8565b60206040518083038186803b15801561025157600080fd5b505afa158015610265573d6000803e3d6000fd5b505050506040513d601f19601f8201168201806040525081019061028991906108c5565b6000546040516370a0823160e01b8152929091101591600080516020610ba7833981519152916001600160a01b0316906370a08231906102cd9030906004016108f8565b60206040518083038186803b1580156102e557600080fd5b505afa1580156102f9573d6000803e3d6000fd5b505050506040513d601f19601f8201168201806040525081019061031d91906108c5565b60405161032a9190610987565b60405180910390a26000546040516370a0823160e01b815282916001600160a01b0316906370a08231906103629030906004016108f8565b60206040518083038186803b15801561037a57600080fd5b505afa15801561038e573d6000803e3d6000fd5b505050506040513d601f19601f820116820180604052508101906103b291906108c5565b10151515600080516020610ba7833981519152826040516103d39190610b13565b60405180910390a26003546103e89083610682565b6003556103f58382610695565b826001600160a01b0316336001600160a01b03167f623b3804fa71d67900d064613da8f94b9617215ee90799290593e1745087ad18848460405161043a929190610b4b565b60405180910390a361044c8383610661565b61045461069f565b61045e8383610661565b505050565b600754421190565b60025481565b60055490565b60035481565b6000600654421015801561049357506007544211155b905090565b60075490565b600554600354101590565b6001546001600160a01b031681565b60045490565b60065490565b6000546001600160a01b031681565b6104db61047d565b15157f1e7766a22d0152249dfc0824656b30c34cf79d00d8b6683b4f842d62b0386d2060405161050a906109bf565b60405180910390a261051a61047d565b61052357600080fd5b61052d82826106db565b60011515600080516020610ba78339815191528260405161054e9190610aa9565b60405180910390a260011515600080516020610ba78339815191526003546040516105799190610930565b60405180910390a260011515600080516020610ba78339815191526005546040516105a49190610a19565b60405180910390a26005546003546105bc9083610682565b11151515600080516020610ba78339815191526105e48360035461068290919063ffffffff16565b6040516105f19190610a6a565b60405180910390a26005546003546106099083610682565b11151515600080516020610ba78339815191526106318360035461068290919063ffffffff16565b60405161063e9190610ad4565b60405180910390a26005546003546106569083610682565b111561066157600080fd5b5050565b600061067c6002548361076290919063ffffffff16565b92915050565b600061068e8284610b59565b9392505050565b610661828261076e565b6001546040516001600160a01b03909116903480156108fc02916000818181858888f193505050501580156106d8573d6000803e3d6000fd5b50565b6106e582826107f2565b806106ee6104b8565b1015600080516020610ba78339815191526107076104b8565b6040516107149190610a3f565b60405180910390a2806107256104b8565b10151515600080516020610ba7833981519152826040516107469190610aa9565b60405180910390a2806107576104b8565b101561066157600080fd5b600061068e8284610b71565b60005460405163a9059cbb60e01b81526001600160a01b039091169063a9059cbb906107a0908590859060040161090c565b602060405180830381600087803b1580156107ba57600080fd5b505af11580156107ce573d6000803e3d6000fd5b505050506040513d601f19601f8201168201806040525081019061045e91906108a5565b6040516001600160a01b0383161515907facc1fbd861d476a3b70596fb49d0ebb80e2e5d077cdde5d17d8abcd924ef8d209061082f9085906109e2565b60405180910390a260405181151590600080516020610ba78339815191529061085990849061095b565b60405180910390a26001600160a01b03821661087457600080fd5b8061066157600080fd5b60006020828403121561088f578081fd5b81356001600160a01b038116811461068e578182fd5b6000602082840312156108b6578081fd5b8151801515811461068e578182fd5b6000602082840312156108d6578081fd5b5051919050565b600881526769734f70656e282960c01b602082015260400190565b6001600160a01b0391909116815260200190565b6001600160a01b03929092168252602082015260400190565b901515815260200190565b6040808252600990820152681dd95a54985a5cd95960ba1b6060820152602081019190915260800190565b6040808252600a908201526917ddd95a505b5bdd5b9d60b21b6060820152602081019190915260800190565b604080825260169082015275273ab6b132b917ba37b5b2b7173130b630b731b2a7b360511b6060820152602081019190915260800190565b6000604082526109d1604083016108dd565b828103602084015261068e816108dd565b6040808252600c908201526b5f62656e656669636961727960a01b60608201526001600160a01b0391909116602082015260800190565b60408082526004908201526305f6361760e41b6060820152602081019190915260800190565b6040808252600990820152681b585e105b5bdd5b9d60ba1b6060820152602081019190915260800190565b60408082526018908201527f7765695261697365642e61646428776569416d6f756e742900000000000000006060820152602081019190915260800190565b6040808252600990820152681dd95a505b5bdd5b9d60ba1b6060820152602081019190915260800190565b6040808252601e908201527f7765695261697365642e61646428776569416d6f756e742920616761696e00006060820152602081019190915260800190565b6040808252600d908201526c4e756d6265722f746f6b656e7360981b6060820152602081019190915260800190565b90815260200190565b918252602082015260400190565b60008219821115610b6c57610b6c610b90565b500190565b6000816000190483118215151615610b8b57610b8b610b90565b500290565b634e487b7160e01b600052601160045260246000fdfe9f83a56b6b62f46d9c0e9818a1661f72ca56ba06cff353d059436e5832127d84a26469706673582212205bdf1c7876abd6ac53545f758d73b7191161d69f13911594944cefcf4e54719864736f6c63430008000033acc1fbd861d476a3b70596fb49d0ebb80e2e5d077cdde5d17d8abcd924ef8d209f83a56b6b62f46d9c0e9818a1661f72ca56ba06cff353d059436e5832127d84",
  "linkReferences": {},
  "deployedLinkReferences": {}
}