{
  "_format": "hh-sol-artifact-1",
  "contractName": "WhitelistedCrowdsale",
  "sourceName": "contracts/crowdsale/validation/WhitelistedCrowdsale.sol",
  "abi": [
    {
      "inputs": [],
      "stateMutability": "nonpayable",
      "type": "constructor"
    },
    {
      "anonymous": false,
      "inputs": [
        {
          "indexed": false,
          "internalType": "string",
          "name": "name",
          "type": "string"
        },
        {
          "indexed": false,
          "internalType": "address",
          "name": "value",
          "type": "address"
        },
        {
          "indexed": true,
          "internalType": "bool",
          "name": "status",
          "type": "bool"
        }
      ],
      "name": "DebugAddress",
      "type": "event"
    },
    {
      "anonymous": false,
      "inputs": [
        {
          "indexed": false,
          "internalType": "string",
          "name": "name",
          "type": "string"
        },
        {
          "indexed": false,
          "internalType": "string",
          "name": "value",
          "type": "string"
        },
        {
          "indexed": true,
          "internalType": "bool",
          "name": "status",
          "type": "bool"
        }
      ],
      "name": "DebugString",
      "type": "event"
    },
    {
      "anonymous": false,
      "inputs": [
        {
          "indexed": false,
          "internalType": "string",
          "name": "name",
          "type": "string"
        },
        {
          "indexed": false,
          "internalType": "uint256",
          "name": "value",
          "type": "uint256"
        },
        {
          "indexed": true,
          "internalType": "bool",
          "name": "status",
          "type": "bool"
        }
      ],
      "name": "DebugUint256",
      "type": "event"
    },
    {
      "anonymous": false,
      "inputs": [
        {
          "indexed": true,
          "internalType": "address",
          "name": "previousOwner",
          "type": "address"
        },
        {
          "indexed": true,
          "internalType": "address",
          "name": "newOwner",
          "type": "address"
        }
      ],
      "name": "OwnershipTransferred",
      "type": "event"
    },
    {
      "anonymous": false,
      "inputs": [
        {
          "indexed": true,
          "internalType": "address",
          "name": "purchaser",
          "type": "address"
        },
        {
          "indexed": true,
          "internalType": "address",
          "name": "beneficiary",
          "type": "address"
        },
        {
          "indexed": false,
          "internalType": "uint256",
          "name": "value",
          "type": "uint256"
        },
        {
          "indexed": false,
          "internalType": "uint256",
          "name": "amount",
          "type": "uint256"
        }
      ],
      "name": "TokenPurchase",
      "type": "event"
    },
    {
      "stateMutability": "payable",
      "type": "fallback"
    },
    {
      "inputs": [
        {
          "internalType": "address[]",
          "name": "_beneficiaries",
          "type": "address[]"
        }
      ],
      "name": "addManyToWhitelist",
      "outputs": [],
      "stateMutability": "nonpayable",
      "type": "function"
    },
    {
      "inputs": [
        {
          "internalType": "address",
          "name": "_beneficiary",
          "type": "address"
        }
      ],
      "name": "addToWhitelist",
      "outputs": [],
      "stateMutability": "nonpayable",
      "type": "function"
    },
    {
      "inputs": [
        {
          "internalType": "address",
          "name": "_beneficiary",
          "type": "address"
        }
      ],
      "name": "buyTokens",
      "outputs": [],
      "stateMutability": "payable",
      "type": "function"
    },
    {
      "inputs": [],
      "name": "owner",
      "outputs": [
        {
          "internalType": "address",
          "name": "",
          "type": "address"
        }
      ],
      "stateMutability": "view",
      "type": "function"
    },
    {
      "inputs": [],
      "name": "rate",
      "outputs": [
        {
          "internalType": "uint256",
          "name": "",
          "type": "uint256"
        }
      ],
      "stateMutability": "view",
      "type": "function"
    },
    {
      "inputs": [
        {
          "internalType": "address",
          "name": "_beneficiary",
          "type": "address"
        }
      ],
      "name": "removeFromWhitelist",
      "outputs": [],
      "stateMutability": "nonpayable",
      "type": "function"
    },
    {
      "inputs": [],
      "name": "renounceOwnership",
      "outputs": [],
      "stateMutability": "nonpayable",
      "type": "function"
    },
    {
      "inputs": [],
      "name": "token",
      "outputs": [
        {
          "internalType": "contract ERC20",
          "name": "",
          "type": "address"
        }
      ],
      "stateMutability": "view",
      "type": "function"
    },
    {
      "inputs": [
        {
          "internalType": "address",
          "name": "newOwner",
          "type": "address"
        }
      ],
      "name": "transferOwnership",
      "outputs": [],
      "stateMutability": "nonpayable",
      "type": "function"
    },
    {
      "inputs": [],
      "name": "wallet",
      "outputs": [
        {
          "internalType": "address",
          "name": "",
          "type": "address"
        }
      ],
      "stateMutability": "view",
      "type": "function"
    },
    {
      "inputs": [],
      "name": "weiRaised",
      "outputs": [
        {
          "internalType": "uint256",
          "name": "",
          "type": "uint256"
        }
      ],
      "stateMutability": "view",
      "type": "function"
    },
    {
      "inputs": [
        {
          "internalType": "address",
          "name": "",
          "type": "address"
        }
      ],
      "name": "whitelist",
      "outputs": [
        {
          "internalType": "bool",
          "name": "",
          "type": "bool"
        }
      ],
      "stateMutability": "view",
      "type": "function"
    },
    {
      "stateMutability": "payable",
      "type": "receive"
    }
  ],
  "bytecode": "0x608060405234801561001057600080fd5b506002546001546000546040516001600160a01b039283169290911690831515907f9f83a56b6b62f46d9c0e9818a1661f72ca56ba06cff353d059436e5832127d849061005e908690610169565b60405180910390a26040516001600160a01b038316151590600080516020610ea5833981519152906100919085906101de565b60405180910390a26040516001600160a01b038216151590600080516020610ea5833981519152906100c4908490610196565b60405180910390a2600292909255600180546001600160a01b039283166001600160a01b0319918216179091556000805492909316911617905561010e610109610113565b610117565b610217565b3390565b600480546001600160a01b038381166001600160a01b0319831681179093556040519116919082907f8be0079c531659141344cd1fd0a4f28419497f9722a3daafe3b4186f6b6457e090600090a35050565b6040808252600b908201526a4e756d6265722f5261746560a81b6060820152602081019190915260800190565b60408082526016908201527f416464726573732f6164647265737328746f6b656e290000000000000000000060608201526001600160a01b0391909116602082015260800190565b6040808252600e908201526d1059191c995cdccbd5d85b1b195d60921b60608201526001600160a01b0391909116602082015260800190565b610c7f806102266000396000f3fe6080604052600436106100ab5760003560e01c80638da5cb5b116100645780638da5cb5b1461017b5780639b19251a14610190578063e43252d7146101bd578063ec8ac4d8146101dd578063f2fde38b146101f0578063fc0c546a14610210576100bb565b80632c4e722e146100c45780634042b66f146100ef578063521eb27314610104578063715018a6146101265780638ab1d6811461013b5780638c10671c1461015b576100bb565b366100bb576100b933610225565b005b6100b933610225565b3480156100d057600080fd5b506100d96104be565b6040516100e69190610bca565b60405180910390f35b3480156100fb57600080fd5b506100d96104c4565b34801561011057600080fd5b506101196104ca565b6040516100e69190610a4d565b34801561013257600080fd5b506100b96104d9565b34801561014757600080fd5b506100b961015636600461097f565b61052d565b34801561016757600080fd5b506100b96101763660046109a6565b61058d565b34801561018757600080fd5b5061011961064c565b34801561019c57600080fd5b506101b06101ab36600461097f565b61065b565b6040516100e69190610a7a565b3480156101c957600080fd5b506100b96101d836600461097f565b610670565b6100b96101eb36600461097f565b610225565b3480156101fc57600080fd5b506100b961020b36600461097f565b6106d3565b34801561021c57600080fd5b50610119610744565b346102308282610753565b600061023b82610784565b6000546040516370a0823160e01b815291925082916001600160a01b03909116906370a0823190610270903090600401610a4d565b60206040518083038186803b15801561028857600080fd5b505afa15801561029c573d6000803e3d6000fd5b505050506040513d601f19601f820116820180604052508101906102c09190610a35565b6000546040516370a0823160e01b81529290911015917f9f83a56b6b62f46d9c0e9818a1661f72ca56ba06cff353d059436e5832127d84916001600160a01b0316906370a0823190610316903090600401610a4d565b60206040518083038186803b15801561032e57600080fd5b505afa158015610342573d6000803e3d6000fd5b505050506040513d601f19601f820116820180604052508101906103669190610a35565b6040516103739190610af7565b60405180910390a26000546040516370a0823160e01b815282916001600160a01b0316906370a08231906103ab903090600401610a4d565b60206040518083038186803b1580156103c357600080fd5b505afa1580156103d7573d6000803e3d6000fd5b505050506040513d601f19601f820116820180604052508101906103fb9190610a35565b101515157f9f83a56b6b62f46d9c0e9818a1661f72ca56ba06cff353d059436e5832127d848260405161042e9190610b9b565b60405180910390a260035461044390836107a1565b60035561045083826107b4565b826001600160a01b0316336001600160a01b03167f623b3804fa71d67900d064613da8f94b9617215ee90799290593e1745087ad188484604051610495929190610bd3565b60405180910390a36104a783836107be565b6104af6107c2565b6104b983836107be565b505050565b60025481565b60035481565b6001546001600160a01b031681565b6104e16107fb565b6001600160a01b03166104f261064c565b6001600160a01b0316146105215760405162461bcd60e51b815260040161051890610b66565b60405180910390fd5b61052b60006107ff565b565b6105356107fb565b6001600160a01b031661054661064c565b6001600160a01b03161461056c5760405162461bcd60e51b815260040161051890610b66565b6001600160a01b03166000908152600560205260409020805460ff19169055565b6105956107fb565b6001600160a01b03166105a661064c565b6001600160a01b0316146105cc5760405162461bcd60e51b815260040161051890610b66565b60005b818110156104b9576001600560008585858181106105fd57634e487b7160e01b600052603260045260246000fd5b9050602002016020810190610612919061097f565b6001600160a01b031681526020810191909152604001600020805460ff19169115159190911790558061064481610c18565b9150506105cf565b6004546001600160a01b031690565b60056020526000908152604090205460ff1681565b6106786107fb565b6001600160a01b031661068961064c565b6001600160a01b0316146106af5760405162461bcd60e51b815260040161051890610b66565b6001600160a01b03166000908152600560205260409020805460ff19166001179055565b6106db6107fb565b6001600160a01b03166106ec61064c565b6001600160a01b0316146107125760405162461bcd60e51b815260040161051890610b66565b6001600160a01b0381166107385760405162461bcd60e51b815260040161051890610ab1565b610741816107ff565b50565b6000546001600160a01b031681565b6001600160a01b038216600090815260056020526040902054829060ff1661077a57600080fd5b6104b98383610851565b600061079b600254836108ef90919063ffffffff16565b92915050565b60006107ad8284610be1565b9392505050565b6107be82826108fb565b5050565b6001546040516001600160a01b03909116903480156108fc02916000818181858888f19350505050158015610741573d6000803e3d6000fd5b3390565b600480546001600160a01b038381166001600160a01b0319831681179093556040519116919082907f8be0079c531659141344cd1fd0a4f28419497f9722a3daafe3b4186f6b6457e090600090a35050565b6040516001600160a01b0383161515907facc1fbd861d476a3b70596fb49d0ebb80e2e5d077cdde5d17d8abcd924ef8d209061088e908590610b2f565b60405180910390a2604051811515907f9f83a56b6b62f46d9c0e9818a1661f72ca56ba06cff353d059436e5832127d84906108ca908490610a85565b60405180910390a26001600160a01b0382166108e557600080fd5b806107be57600080fd5b60006107ad8284610bf9565b60005460405163a9059cbb60e01b81526001600160a01b039091169063a9059cbb9061092d9085908590600401610a61565b602060405180830381600087803b15801561094757600080fd5b505af115801561095b573d6000803e3d6000fd5b505050506040513d601f19601f820116820180604052508101906104b99190610a15565b600060208284031215610990578081fd5b81356001600160a01b03811681146107ad578182fd5b600080602083850312156109b8578081fd5b823567ffffffffffffffff808211156109cf578283fd5b818501915085601f8301126109e2578283fd5b8135818111156109f0578384fd5b8660208083028501011115610a03578384fd5b60209290920196919550909350505050565b600060208284031215610a26578081fd5b815180151581146107ad578182fd5b600060208284031215610a46578081fd5b5051919050565b6001600160a01b0391909116815260200190565b6001600160a01b03929092168252602082015260400190565b901515815260200190565b6040808252600a908201526917ddd95a505b5bdd5b9d60b21b6060820152602081019190915260800190565b60208082526026908201527f4f776e61626c653a206e6577206f776e657220697320746865207a65726f206160408201526564647265737360d01b606082015260800190565b604080825260169082015275273ab6b132b917ba37b5b2b7173130b630b731b2a7b360511b6060820152602081019190915260800190565b6040808252600c908201526b5f62656e656669636961727960a01b60608201526001600160a01b0391909116602082015260800190565b6020808252818101527f4f776e61626c653a2063616c6c6572206973206e6f7420746865206f776e6572604082015260600190565b6040808252600d908201526c4e756d6265722f746f6b656e7360981b6060820152602081019190915260800190565b90815260200190565b918252602082015260400190565b60008219821115610bf457610bf4610c33565b500190565b6000816000190483118215151615610c1357610c13610c33565b500290565b6000600019821415610c2c57610c2c610c33565b5060010190565b634e487b7160e01b600052601160045260246000fdfea26469706673582212202bc88511ad45cedab94ef058f85239c3b7874e62ad087c78dd420739e381940464736f6c63430008000033acc1fbd861d476a3b70596fb49d0ebb80e2e5d077cdde5d17d8abcd924ef8d20",
  "linkReferences": {},
  "deployedLinkReferences": {}
}