{
  "_format": "hh-sol-artifact-1",
  "contractName": "CurveBondedToken",
  "sourceName": "contracts/crowdsale/CurveBondedToken.sol",
  "abi": [
    {
      "inputs": [
        {
          "internalType": "uint256",
          "name": "_reserveRatio",
          "type": "uint256"
        }
      ],
      "stateMutability": "nonpayable",
      "type": "constructor"
    },
    {
      "anonymous": false,
      "inputs": [
        {
          "indexed": true,
          "internalType": "address",
          "name": "previousOwner",
          "type": "address"
        },
        {
          "indexed": true,
          "internalType": "address",
          "name": "newOwner",
          "type": "address"
        }
      ],
      "name": "OwnershipTransferred",
      "type": "event"
    },
    {
      "inputs": [],
      "name": "bonosTokenCirculation",
      "outputs": [
        {
          "internalType": "uint256",
          "name": "",
          "type": "uint256"
        }
      ],
      "stateMutability": "view",
      "type": "function"
    },
    {
      "inputs": [
        {
          "internalType": "uint256",
          "name": "_amount",
          "type": "uint256"
        }
      ],
      "name": "calculateBuyAmountByBancor",
      "outputs": [
        {
          "internalType": "uint256",
          "name": "mintAmount",
          "type": "uint256"
        }
      ],
      "stateMutability": "view",
      "type": "function"
    },
    {
      "inputs": [
        {
          "internalType": "uint256",
          "name": "_supply",
          "type": "uint256"
        },
        {
          "internalType": "uint256",
          "name": "_connectorBalance",
          "type": "uint256"
        },
        {
          "internalType": "uint32",
          "name": "_connectorWeight",
          "type": "uint32"
        },
        {
          "internalType": "uint256",
          "name": "_depositAmount",
          "type": "uint256"
        }
      ],
      "name": "calculatePurchaseReturn",
      "outputs": [
        {
          "internalType": "uint256",
          "name": "",
          "type": "uint256"
        }
      ],
      "stateMutability": "view",
      "type": "function"
    },
    {
      "inputs": [
        {
          "internalType": "uint256",
          "name": "_amount",
          "type": "uint256"
        }
      ],
      "name": "calculateReimbursementByBancor",
      "outputs": [
        {
          "internalType": "uint256",
          "name": "burnAmount",
          "type": "uint256"
        }
      ],
      "stateMutability": "view",
      "type": "function"
    },
    {
      "inputs": [
        {
          "internalType": "uint256",
          "name": "_supply",
          "type": "uint256"
        },
        {
          "internalType": "uint256",
          "name": "_connectorBalance",
          "type": "uint256"
        },
        {
          "internalType": "uint32",
          "name": "_connectorWeight",
          "type": "uint32"
        },
        {
          "internalType": "uint256",
          "name": "_sellAmount",
          "type": "uint256"
        }
      ],
      "name": "calculateSaleReturn",
      "outputs": [
        {
          "internalType": "uint256",
          "name": "",
          "type": "uint256"
        }
      ],
      "stateMutability": "view",
      "type": "function"
    },
    {
      "inputs": [],
      "name": "maxGasPrice",
      "outputs": [
        {
          "internalType": "uint256",
          "name": "",
          "type": "uint256"
        }
      ],
      "stateMutability": "view",
      "type": "function"
    },
    {
      "inputs": [],
      "name": "owner",
      "outputs": [
        {
          "internalType": "address",
          "name": "",
          "type": "address"
        }
      ],
      "stateMutability": "view",
      "type": "function"
    },
    {
      "inputs": [],
      "name": "poolBalance",
      "outputs": [
        {
          "internalType": "uint256",
          "name": "",
          "type": "uint256"
        }
      ],
      "stateMutability": "view",
      "type": "function"
    },
    {
      "inputs": [],
      "name": "renounceOwnership",
      "outputs": [],
      "stateMutability": "nonpayable",
      "type": "function"
    },
    {
      "inputs": [],
      "name": "reserveRatio",
      "outputs": [
        {
          "internalType": "uint256",
          "name": "",
          "type": "uint256"
        }
      ],
      "stateMutability": "view",
      "type": "function"
    },
    {
      "inputs": [],
      "name": "scale",
      "outputs": [
        {
          "internalType": "uint256",
          "name": "",
          "type": "uint256"
        }
      ],
      "stateMutability": "view",
      "type": "function"
    },
    {
      "inputs": [
        {
          "internalType": "uint256",
          "name": "newMax",
          "type": "uint256"
        }
      ],
      "name": "setMaxGasPrice",
      "outputs": [
        {
          "internalType": "bool",
          "name": "",
          "type": "bool"
        }
      ],
      "stateMutability": "nonpayable",
      "type": "function"
    },
    {
      "inputs": [
        {
          "internalType": "address",
          "name": "newOwner",
          "type": "address"
        }
      ],
      "name": "transferOwnership",
      "outputs": [],
      "stateMutability": "nonpayable",
      "type": "function"
    },
    {
      "inputs": [],
      "name": "version",
      "outputs": [
        {
          "internalType": "string",
          "name": "",
          "type": "string"
        }
      ],
      "stateMutability": "view",
      "type": "function"
    }
  ],
  "bytecode": "0x60c06040526003608081905262302e3360e81b60a090815262000026916000919062000832565b50670de0b6b3a7640000608255670de0b6b3a76400006083556083546001620000509190620008f1565b60845560835462000063906001620008f1565b6086553480156200007357600080fd5b5060405162002842380380620028428339810160408190526200009691620008d8565b6001641c35fedd1560601b036021556001646c3390ecc9605e1b036022556001640cf801476160611b0360235560016431bdb23e1d605f1b0360245560016502fb1d8fe083605b1b0360255560016505b771955b37605a1b036026556001650af67a93bb5160591b0360275560016515060c256cb360581b036028556001651428a2f98d7360581b036029556001654d515663970960561b03602a55600165944620b0e70f60551b03602b55600166011c592761c66760541b03602c5560016602214d10d014eb60531b03602d55600166020ade36b7dbef60531b03602e5560016603eab73b3bbfe360521b03602f556001660782ee3593f6d760511b036030556001661ccf4b44bb4821604f1b0360315560016606e7f88ad8a77760511b0360325560016669f3d1c921891d604d1b03603355600166cb2ff529eb71e5604c1b03603455600166c2d415c3db974b604c1b0360355560016702eb40f9f620fda7604a1b0360365560016705990681d961a1eb60491b03603755600167055e12902701414760491b0360385560016714962dee9dc9764160471b0360395560016704ef57b9b560fab560491b03603a5560016712ed7b32a58f552b60471b03603b556001679131271922eaa60760441b03603c556001678b380f3558668c4760441b03603d556001680215f77c045fbe885760421b03603e556001600160831b03603f556001670f577eded5773a1160471b036040556001680eb5ec597592befbf5603f1b036041556001681c35fedd14b861eb05603e1b036042556001683619c87664579bc94b603d1b0360435560016867c00a3b07ffc01fd7603c1b03604455600168c6f6c8f8739773a7a5603b1b03604555600168bec763f8209b7a72b1603b1b0360465560016902dbb8caad9b7097b91b60391b03604755600169057b3d49dda84556d6f760381b03604855600169054183095b2c8ececf3160381b036049556001690a14517cc6b9457111ef60371b03604a5560016913545598e5c23276ccf160361b03604b556001692511882c39c3adea96ff60351b03604c55600169471649d87199aa99075760341b03604d557004429a21a029d4c1457cfbffffffffffff604e55700415bc6d6fb7dd71af2cb3ffffffffffff604f557003eab73b3bbfe282243ce1ffffffffffff6050557003c1771ac9fb6b4c18e229ffffffffffff605155700399e96897690418f785257fffffffffff605255700373fc456c53bb779bf0ea9fffffffffff60535570034f9e8e490c48e67e6ab8bfffffffffff60545570032cbfd4a7adc790560b3337ffffffffff60555570030b50570f6e5d2acca94613ffffffffff6056557002eb40f9f620fda6b56c2861ffffffffff6057557002cc8340ecb0d0f520a6af58ffffffffff6058557002af09481380a0a35cf1ba02ffffffffff605955700292c5bdd3b92ec810287b1b3fffffffff605a55700277abdcdab07d5a77ac6d6b9fffffffff605b5570025daf6654b1eaa55fd64df5efffffffff605c55700244c49c648baa98192dce88b7ffffffff605d5570022ce03cd5619a311b2471268bffffffff605e55700215f77c045fbe885654a44a0fffffffff605f556001600160811b036060557001eaefdbdaaee7421fc4d3ede5ffffffff6061557001d6bd8b2eb257df7e8ca57b09bfffffff6062557001c35fedd14b861eb0443f7f133fffffff6063557001b0ce43b322bcde4a56e8ada5afffffff60645570019f0028ec1fff007f5a195a39dfffffff60655570018ded91f0e72ee74f49b15ba527ffffff60665570017d8ec7f04136f4e5615fd41a63ffffff60675570016ddc6556cdb84bdc8d12d22e6fffffff60685570015ecf52776a1155b5bd8395814f7fffff60695570015060c256cb23b3b3cc3754cf40ffffff606a557001428a2f98d728ae223ddab715be3fffff606b5570013545598e5c23276ccf0ede68034fffff606c557001288c4161ce1d6f54b7f61081194fffff606d5570011c592761c666aa641d5a01a40f17ffff606e55700110a688680a7530515f3e6e6cfdcdffff606f557001056f1b5bedf75c6bcb2ce8aed428ffff6070556ffaadceceeff8a0890f3875f008277fff6071556ff05dc6b27edad306388a600f6ba0bfff6072556fe67a5a25da41063de1495d5b18cdbfff6073556fdcff115b14eedde6fc3aa5353f2e4fff6074556fd3e7a3924312399f9aae2e0f868f8fff6075556fcb2ff529eb71e41582cccd5a1ee26fff6076556fc2d415c3db974ab32a51840c0b67edff6077556fbad03e7d883f69ad5b0a186184e06bff6078556fb320d03b2c343d4829abd6075f0cc5ff6079556fabc25204e02828d73c6e80bcdb1a95bf607a556fa4b16f74ee4bb2040a1ec6c15fbbf2df607b556f9deaf736ac1f569deb1b5ae3f36c130f607c556f976bd9952c7aa957f5937d790ef65037607d556f9131271922eaa6064b73a22d0bd4f2bf607e556f8b380f3558668c46c91c49a2f8e967b9607f556f857ddf0117efa215952912839f6473e6608055620007d3620007cd620007dc565b620007e0565b6085556200095a565b3390565b608180546001600160a01b038381166001600160a01b0319831681179093556040519116919082907f8be0079c531659141344cd1fd0a4f28419497f9722a3daafe3b4186f6b6457e090600090a35050565b82805462000840906200091d565b90600052602060002090601f016020900481019282620008645760008555620008af565b82601f106200087f57805160ff1916838001178555620008af565b82800160010185558215620008af579182015b82811115620008af57825182559160200191906001019062000892565b50620008bd929150620008c1565b5090565b5b80821115620008bd5760008155600101620008c2565b600060208284031215620008ea578081fd5b5051919050565b60008160001904831182151516156200091857634e487b7160e01b81526011600452602481fd5b500290565b6002810460018216806200093257607f821691505b602082108114156200095457634e487b7160e01b600052602260045260246000fd5b50919050565b611ed8806200096a6000396000f3fe608060405234801561001057600080fd5b50600436106100ea5760003560e01c806374e2f5621161008c578063d2fa635e11610066578063d2fa635e14610192578063f08bb3ff146101b2578063f2fde38b146101c5578063f51e181a146101d8576100ea565b806374e2f5621461016d5780638da5cb5b1461017557806396365d441461018a576100ea565b80633de39c11116100c85780633de39c111461013357806349f9b0f71461013b57806354fd4d501461014e578063715018a614610163576100ea565b80630c7d5cd8146100ef5780631cd1040e1461010d57806329a00e7c14610120575b600080fd5b6100f76101e0565b6040516101049190611d35565b60405180910390f35b6100f761011b366004611bb3565b6101e6565b6100f761012e366004611bcb565b610202565b6100f76102cd565b6100f7610149366004611bcb565b6102d3565b6101566103b0565b6040516101049190611c30565b61016b61043e565b005b6100f7610492565b61017d610498565b6040516101049190611c11565b6100f76104a7565b6101a56101a0366004611bb3565b6104ad565b6040516101049190611c25565b6100f76101c0366004611bb3565b6104f7565b61016b6101d3366004611b8c565b61050b565b6100f761057c565b60855481565b60006101fa60865460845460855485610202565b90505b919050565b600080851180156102135750600084115b8015610225575060008363ffffffff16115b801561023a5750620f424063ffffffff841611155b61024357600080fd5b81610250575060006102c5565b63ffffffff8316620f4240141561027c576102758461026f8785610582565b90610595565b90506102c5565b6000808061028a85886105a1565b905061029b818888620f42406105ad565b9093509150600060ff83166102b08a86610582565b901c90506102be8982611dd0565b9450505050505b949350505050565b60825481565b600080851180156102e45750600084115b80156102f6575060008363ffffffff16115b801561030b5750620f424063ffffffff841611155b80156103175750848211155b61032057600080fd5b8161032d575060006102c5565b8482141561033c5750826102c5565b63ffffffff8316620f4240141561035b576102758561026f8685610582565b600080806103698589611dd0565b905061037a8882620f4240896105ad565b9093509150600061038b8885610582565b905060ff831688901b6103a28561026f84846106cb565b9a9950505050505050505050565b600080546103bd90611e27565b80601f01602080910402602001604051908101604052809291908181526020018280546103e990611e27565b80156104365780601f1061040b57610100808354040283529160200191610436565b820191906000526020600020905b81548152906001019060200180831161041957829003601f168201915b505050505081565b6104466106d7565b6001600160a01b0316610457610498565b6001600160a01b0316146104865760405162461bcd60e51b815260040161047d90611cc9565b60405180910390fd5b61049060006106db565b565b60865481565b6081546001600160a01b031690565b60845481565b60006104b76106d7565b6001600160a01b03166104c8610498565b6001600160a01b0316146104ee5760405162461bcd60e51b815260040161047d90611cc9565b50608255600190565b60006101fa608654608454608554856102d3565b6105136106d7565b6001600160a01b0316610524610498565b6001600160a01b03161461054a5760405162461bcd60e51b815260040161047d90611cc9565b6001600160a01b0381166105705760405162461bcd60e51b815260040161047d90611c83565b610579816106db565b50565b60835481565b600061058e8284611db1565b9392505050565b600061058e8284611d7b565b600061058e8284611d3e565b600080600160811b86106105d157634e487b7160e01b600052600160045260246000fd5b848610156105f15760405162461bcd60e51b815260040161047d90611cfe565b600080866106036001607f1b8a611db1565b61060d9190611d7b565b905070015bf0a8b1457695355fb8ac404e7a79e3811015610638576106318161072d565b9150610644565b61064181610ca6565b91505b60008563ffffffff168763ffffffff168461065f9190611db1565b6106699190611d7b565b9050600160831b81101561068e5761068081610d95565b607f945094505050506106c2565b6000610699826113c0565b90506106b56106a982607f611de7565b60ff1683901c826114b6565b955093506106c292505050565b94509492505050565b600061058e8284611dd0565b3390565b608180546001600160a01b038381166001600160a01b0319831681179093556040519116919082907f8be0079c531659141344cd1fd0a4f28419497f9722a3daafe3b4186f6b6457e090600090a35050565b6000808080806fd3094c70f034de4b96ff7d5b6f99fcd88610610786576107586001607e1b85611d3e565b93506fd3094c70f034de4b96ff7d5b6f99fcd86107796001607f1b88611db1565b6107839190611d7b565b95505b6fa45af1e1f40c333b3de1db4dd55f29a786106107d9576107ab6001607d1b85611d3e565b93506fa45af1e1f40c333b3de1db4dd55f29a76107cc6001607f1b88611db1565b6107d69190611d7b565b95505b6f910b022db7ae67ce76b441c27035c6a1861061082c576107fe6001607c1b85611d3e565b93506f910b022db7ae67ce76b441c27035c6a161081f6001607f1b88611db1565b6108299190611d7b565b95505b6f88415abbe9a76bead8d00cf112e4d4a8861061087f576108516001607b1b85611d3e565b93506f88415abbe9a76bead8d00cf112e4d4a86108726001607f1b88611db1565b61087c9190611d7b565b95505b6f84102b00893f64c705e841d5d4064bd386106108d2576108a46001607a1b85611d3e565b93506f84102b00893f64c705e841d5d4064bd36108c56001607f1b88611db1565b6108cf9190611d7b565b95505b6f8204055aaef1c8bd5c3259f4822735a28610610925576108f7600160791b85611d3e565b93506f8204055aaef1c8bd5c3259f4822735a26109186001607f1b88611db1565b6109229190611d7b565b95505b6f810100ab00222d861931c15e39b44e9986106109785761094a600160781b85611d3e565b93506f810100ab00222d861931c15e39b44e9961096b6001607f1b88611db1565b6109759190611d7b565b95505b6f808040155aabbbe9451521693554f73386106109cb5761099d600160771b85611d3e565b93506f808040155aabbbe9451521693554f7336109be6001607f1b88611db1565b6109c89190611d7b565b95505b6109d96001607f1b87611dd0565b92508291506001607f1b6109ed8380611db1565b6109f79190611d7b565b9050600160801b610a088482611dd0565b610a129084611db1565b610a1c9190611d7b565b610a269085611d3e565b93506001607f1b610a378284611db1565b610a419190611d7b565b9150600160811b610a62846faaaaaaaaaaaaaaaaaaaaaaaaaaaaaaaa611dd0565b610a6c9084611db1565b610a769190611d7b565b610a809085611d3e565b93506001607f1b610a918284611db1565b610a9b9190611d7b565b9150600360801b610abc846f99999999999999999999999999999999611dd0565b610ac69084611db1565b610ad09190611d7b565b610ada9085611d3e565b93506001607f1b610aeb8284611db1565b610af59190611d7b565b9150600160821b610b16846f92492492492492492492492492492492611dd0565b610b209084611db1565b610b2a9190611d7b565b610b349085611d3e565b93506001607f1b610b458284611db1565b610b4f9190611d7b565b9150600560801b610b70846f8e38e38e38e38e38e38e38e38e38e38e611dd0565b610b7a9084611db1565b610b849190611d7b565b610b8e9085611d3e565b93506001607f1b610b9f8284611db1565b610ba99190611d7b565b9150600360811b610bca846f8ba2e8ba2e8ba2e8ba2e8ba2e8ba2e8b611dd0565b610bd49084611db1565b610bde9190611d7b565b610be89085611d3e565b93506001607f1b610bf98284611db1565b610c039190611d7b565b9150600760801b610c24846f89d89d89d89d89d89d89d89d89d89d89611dd0565b610c2e9084611db1565b610c389190611d7b565b610c429085611d3e565b93506001607f1b610c538284611db1565b610c5d9190611d7b565b9150600160831b610c7e846f88888888888888888888888888888888611dd0565b610c889084611db1565b610c929190611d7b565b610c9c9085611d3e565b9695505050505050565b60008082600160801b8110610ceb576000610ccd610cc86001607f1b84611d7b565b611b1d565b60ff811692831c92909150610ce7906001607f1b90611db1565b9250505b6001607f1b811115610d6057607f5b60ff811615610d5e576001607f1b610d128380611db1565b610d1c9190611d7b565b9150600160801b8210610d4e57600191821c91610d399082611de7565b60ff166001901b83610d4b9190611d3e565b92505b610d5781611e0a565b9050610cfa565b505b6f05b9de1d10bf4103d647b0955897ba80610d8b6f03f80fe03f80fe03f80fe03f80fe03f884611db1565b6102c59190611d7b565b6000808080610da86001607c1b86611e62565b91508190506001607f1b610dbc8280611db1565b610dc69190611d7b565b9050610dda816710e1b3be415a0000611db1565b610de49084611d3e565b92506001607f1b610df58383611db1565b610dff9190611d7b565b9050610e13816705a0913f6b1e0000611db1565b610e1d9084611d3e565b92506001607f1b610e2e8383611db1565b610e389190611d7b565b9050610e4c81670168244fdac78000611db1565b610e569084611d3e565b92506001607f1b610e678383611db1565b610e719190611d7b565b9050610e8481664807432bc18000611db1565b610e8e9084611d3e565b92506001607f1b610e9f8383611db1565b610ea99190611d7b565b9050610ebc81660c0135dca04000611db1565b610ec69084611d3e565b92506001607f1b610ed78383611db1565b610ee19190611d7b565b9050610ef4816601b707b1cdc000611db1565b610efe9084611d3e565b92506001607f1b610f0f8383611db1565b610f199190611d7b565b9050610f2b816536e0f639b800611db1565b610f359084611d3e565b92506001607f1b610f468383611db1565b610f509190611d7b565b9050610f6281650618fee9f800611db1565b610f6c9084611d3e565b92506001607f1b610f7d8383611db1565b610f879190611d7b565b9050610f9881649c197dcc00611db1565b610fa29084611d3e565b92506001607f1b610fb38383611db1565b610fbd9190611d7b565b9050610fce81640e30dce400611db1565b610fd89084611d3e565b92506001607f1b610fe98383611db1565b610ff39190611d7b565b90506110048164012ebd1300611db1565b61100e9084611d3e565b92506001607f1b61101f8383611db1565b6110299190611d7b565b9050611039816317499f00611db1565b6110439084611d3e565b92506001607f1b6110548383611db1565b61105e9190611d7b565b905061106e816301a9d480611db1565b6110789084611d3e565b92506001607f1b6110898383611db1565b6110939190611d7b565b90506110a281621c6380611db1565b6110ac9084611d3e565b92506001607f1b6110bd8383611db1565b6110c79190611d7b565b90506110d6816201c638611db1565b6110e09084611d3e565b92506001607f1b6110f18383611db1565b6110fb9190611d7b565b905061110981611ab8611db1565b6111139084611d3e565b92506001607f1b6111248383611db1565b61112e9190611d7b565b905061113c8161017c611db1565b6111469084611d3e565b92506001607f1b6111578383611db1565b6111619190611d7b565b905061116e816014611db1565b6111789084611d3e565b92506001607f1b6111898383611db1565b6111939190611d7b565b90506111a0816001611db1565b6111aa9084611d3e565b92506001607f1b826111c46721c3677c82b4000086611d7b565b6111ce9190611d3e565b6111d89190611d3e565b92506001607c1b8516156112205770018ebef9eac820ae8682b9793ac6d1e776611213847001c3d6a24ed82218787d624d3e5eba95f9611db1565b61121d9190611d7b565b92505b6001607d1b851615611266577001368b2fc6f9609fe7aceb46aa619baed46112598470018ebef9eac820ae8682b9793ac6d1e778611db1565b6112639190611d7b565b92505b6001607e1b8516156112ab576fbc5ab1b16779be3575bd8f0520a9f21f61129e847001368b2fc6f9609fe7aceb46aa619baed5611db1565b6112a89190611d7b565b92505b6001607f1b8516156112ef576f454aaa8efe072e7f6ddbab84b40a55c96112e2846fbc5ab1b16779be3575bd8f0520a9f21e611db1565b6112ec9190611d7b565b92505b600160801b851615611333576f0960aadc109e7a3bf4578099615711ea611326846f454aaa8efe072e7f6ddbab84b40a55c5611db1565b6113309190611d7b565b92505b600160811b851615611376576e2bf84208204f5977f9a8cf01fdce3d611369846f0960aadc109e7a3bf4578099615711d7611db1565b6113739190611d7b565b92505b600160821b8516156113b7576d03c6ab775dd0b95b4cbee7e65d116113aa846e2bf84208204f5977f9a8cf01fdc307611db1565b6113b49190611d7b565b92505b50909392505050565b60006020607f5b60ff81166113d6836001611d56565b60ff16101561143757600060026113ed8385611d56565b6113f79190611d8f565b90508460018260ff166080811061141e57634e487b7160e01b600052603260045260246000fd5b01541061142d57809250611431565b8091505b506113c7565b8360018260ff166080811061145c57634e487b7160e01b600052603260045260246000fd5b01541061146c5791506101fd9050565b8360018360ff166080811061149157634e487b7160e01b600052603260045260246000fd5b0154106114a0575090506101fd565b634e487b7160e01b600052600160045260246000fd5b6000828160ff84166114c88380611db1565b901c91506114e6826f03442c4e6074a82f1797f72ac0000000611db1565b6114f09082611d3e565b905060ff84166115008684611db1565b901c915061151e826f0116b96f757c380fb287fd0e40000000611db1565b6115289082611d3e565b905060ff84166115388684611db1565b901c9150611555826e45ae5bdd5f0e03eca1ff4390000000611db1565b61155f9082611d3e565b905060ff841661156f8684611db1565b901c915061158c826e0defabf91302cd95b9ffda50000000611db1565b6115969082611d3e565b905060ff84166115a68684611db1565b901c91506115c3826e02529ca9832b22439efff9b8000000611db1565b6115cd9082611d3e565b905060ff84166115dd8684611db1565b901c91506115f9826d54f1cf12bd04e516b6da88000000611db1565b6116039082611d3e565b905060ff84166116138684611db1565b901c915061162f826d0a9e39e257a09ca2d6db51000000611db1565b6116399082611d3e565b905060ff84166116498684611db1565b901c9150611665826d012e066e7b839fa050c309000000611db1565b61166f9082611d3e565b905060ff841661167f8684611db1565b901c915061169a826c1e33d7d926c329a1ad1a800000611db1565b6116a49082611d3e565b905060ff84166116b48684611db1565b901c91506116cf826c02bee513bdb4a6b19b5f800000611db1565b6116d99082611d3e565b905060ff84166116e98684611db1565b901c9150611703826b3a9316fa79b88eccf2a00000611db1565b61170d9082611d3e565b905060ff841661171d8684611db1565b901c9150611737826b048177ebe1fa812375200000611db1565b6117419082611d3e565b905060ff84166117518684611db1565b901c915061176a826a5263fe90242dcbacf00000611db1565b6117749082611d3e565b905060ff84166117848684611db1565b901c915061179d826a057e22099c030d94100000611db1565b6117a79082611d3e565b905060ff84166117b78684611db1565b901c91506117cf826957e22099c030d9410000611db1565b6117d99082611d3e565b905060ff84166117e98684611db1565b901c91506118018269052b6b54569976310000611db1565b61180b9082611d3e565b905060ff841661181b8684611db1565b901c915061183282684985f67696bf748000611db1565b61183c9082611d3e565b905060ff841661184c8684611db1565b901c9150611863826803dea12ea99e498000611db1565b61186d9082611d3e565b905060ff841661187d8684611db1565b901c9150611893826731880f2214b6e000611db1565b61189d9082611d3e565b905060ff84166118ad8684611db1565b901c91506118c38267025bcff56eb36000611db1565b6118cd9082611d3e565b905060ff84166118dd8684611db1565b901c91506118f282661b722e10ab1000611db1565b6118fc9082611d3e565b905060ff841661190c8684611db1565b901c9150611921826601317c70077000611db1565b61192b9082611d3e565b905060ff841661193b8684611db1565b901c915061194f82650cba84aafa00611db1565b6119599082611d3e565b905060ff84166119698684611db1565b901c915061197c826482573a0a00611db1565b6119869082611d3e565b905060ff84166119968684611db1565b901c91506119a9826405035ad900611db1565b6119b39082611d3e565b905060ff84166119c38684611db1565b901c91506119d582632f881b00611db1565b6119df9082611d3e565b905060ff84166119ef8684611db1565b901c9150611a01826301b29340611db1565b611a0b9082611d3e565b905060ff8416611a1b8684611db1565b901c9150611a2c82620efc40611db1565b611a369082611d3e565b905060ff8416611a468684611db1565b901c9150611a5682617fe0611db1565b611a609082611d3e565b905060ff8416611a708684611db1565b901c9150611a8082610420611db1565b611a8a9082611d3e565b905060ff8416611a9a8684611db1565b901c9150611aa9826021611db1565b611ab39082611d3e565b905060ff8416611ac38684611db1565b901c9150611ad2826001611db1565b611adc9082611d3e565b9050600160ff85161b85611b006f0688589cc0e9505e2f2fee558000000084611d7b565b611b0a9190611d3e565b611b149190611d3e565b95945050505050565b60008082610100811015611b51575b6001811115611b4c57600190811c90611b459083611d56565b9150611b2c565b611b85565b60805b60ff811615611b8357600160ff82161b8210611b78579182179160ff81169190911c905b60011c607f16611b54565b505b5092915050565b600060208284031215611b9d578081fd5b81356001600160a01b038116811461058e578182fd5b600060208284031215611bc4578081fd5b5035919050565b60008060008060808587031215611be0578283fd5b8435935060208501359250604085013563ffffffff81168114611c01578283fd5b9396929550929360600135925050565b6001600160a01b0391909116815260200190565b901515815260200190565b6000602080835283518082850152825b81811015611c5c57858101830151858201604001528201611c40565b81811115611c6d5783604083870101525b50601f01601f1916929092016040019392505050565b60208082526026908201527f4f776e61626c653a206e6577206f776e657220697320746865207a65726f206160408201526564647265737360d01b606082015260800190565b6020808252818101527f4f776e61626c653a2063616c6c6572206973206e6f7420746865206f776e6572604082015260600190565b6020808252601c908201527f4261736573203c203120617265206e6f7420737570706f727465642e00000000604082015260600190565b90815260200190565b60008219821115611d5157611d51611e76565b500190565b600060ff821660ff84168060ff03821115611d7357611d73611e76565b019392505050565b600082611d8a57611d8a611e8c565b500490565b600060ff831680611da257611da2611e8c565b8060ff84160491505092915050565b6000816000190483118215151615611dcb57611dcb611e76565b500290565b600082821015611de257611de2611e76565b500390565b600060ff821660ff841680821015611e0157611e01611e76565b90039392505050565b600060ff821680611e1d57611e1d611e76565b6000190192915050565b600281046001821680611e3b57607f821691505b60208210811415611e5c57634e487b7160e01b600052602260045260246000fd5b50919050565b600082611e7157611e71611e8c565b500690565b634e487b7160e01b600052601160045260246000fd5b634e487b7160e01b600052601260045260246000fdfea2646970667358221220a1ce0850011e86341c736a9b6a84e1425aec1b2528aeebbde95e892c8f44594164736f6c63430008000033",
  "linkReferences": {},
  "deployedLinkReferences": {}
}