{
  "_format": "hh-sol-artifact-1",
  "contractName": "CurveBondedToken",
  "sourceName": "contracts/crowdsale/CurveBondedToken.sol",
  "abi": [
    {
      "inputs": [
        {
          "internalType": "uint256",
          "name": "_reserveRatio",
          "type": "uint256"
        }
      ],
      "stateMutability": "nonpayable",
      "type": "constructor"
    },
    {
      "inputs": [],
      "name": "bonosTokenCirculation",
      "outputs": [
        {
          "internalType": "uint256",
          "name": "",
          "type": "uint256"
        }
      ],
      "stateMutability": "view",
      "type": "function"
    },
    {
      "inputs": [
        {
          "internalType": "uint256",
          "name": "_amount",
          "type": "uint256"
        }
      ],
      "name": "calculateBuyAmount",
      "outputs": [
        {
          "internalType": "uint256",
          "name": "mintAmount",
          "type": "uint256"
        }
      ],
      "stateMutability": "view",
      "type": "function"
    },
    {
      "inputs": [
        {
          "internalType": "uint256",
          "name": "_supply",
          "type": "uint256"
        },
        {
          "internalType": "uint256",
          "name": "_connectorBalance",
          "type": "uint256"
        },
        {
          "internalType": "uint32",
          "name": "_connectorWeight",
          "type": "uint32"
        },
        {
          "internalType": "uint256",
          "name": "_depositAmount",
          "type": "uint256"
        }
      ],
      "name": "calculatePurchaseReturn",
      "outputs": [
        {
          "internalType": "uint256",
          "name": "",
          "type": "uint256"
        }
      ],
      "stateMutability": "view",
      "type": "function"
    },
    {
      "inputs": [
        {
          "internalType": "uint256",
          "name": "_supply",
          "type": "uint256"
        },
        {
          "internalType": "uint256",
          "name": "_connectorBalance",
          "type": "uint256"
        },
        {
          "internalType": "uint32",
          "name": "_connectorWeight",
          "type": "uint32"
        },
        {
          "internalType": "uint256",
          "name": "_sellAmount",
          "type": "uint256"
        }
      ],
      "name": "calculateSaleReturn",
      "outputs": [
        {
          "internalType": "uint256",
          "name": "",
          "type": "uint256"
        }
      ],
      "stateMutability": "view",
      "type": "function"
    },
    {
      "inputs": [],
      "name": "poolBalance",
      "outputs": [
        {
          "internalType": "uint256",
          "name": "",
          "type": "uint256"
        }
      ],
      "stateMutability": "view",
      "type": "function"
    },
    {
      "inputs": [],
      "name": "reserveRatio",
      "outputs": [
        {
          "internalType": "uint256",
          "name": "",
          "type": "uint256"
        }
      ],
      "stateMutability": "view",
      "type": "function"
    },
    {
      "inputs": [],
      "name": "scale",
      "outputs": [
        {
          "internalType": "uint256",
          "name": "",
          "type": "uint256"
        }
      ],
      "stateMutability": "view",
      "type": "function"
    },
    {
      "inputs": [],
      "name": "version",
      "outputs": [
        {
          "internalType": "string",
          "name": "",
          "type": "string"
        }
      ],
      "stateMutability": "view",
      "type": "function"
    }
  ],
  "bytecode": "0x60c06040526003608081905262302e3360e81b60a0908152620000269160009190620007ba565b50670de0b6b3a764000060818190556200004290600162000879565b6082556081546200005590600162000879565b6084553480156200006557600080fd5b50604051620024b5380380620024b5833981016040819052620000889162000860565b6001641c35fedd1560601b036021556001646c3390ecc9605e1b036022556001640cf801476160611b0360235560016431bdb23e1d605f1b0360245560016502fb1d8fe083605b1b0360255560016505b771955b37605a1b036026556001650af67a93bb5160591b0360275560016515060c256cb360581b036028556001651428a2f98d7360581b036029556001654d515663970960561b03602a55600165944620b0e70f60551b03602b55600166011c592761c66760541b03602c5560016602214d10d014eb60531b03602d55600166020ade36b7dbef60531b03602e5560016603eab73b3bbfe360521b03602f556001660782ee3593f6d760511b036030556001661ccf4b44bb4821604f1b0360315560016606e7f88ad8a77760511b0360325560016669f3d1c921891d604d1b03603355600166cb2ff529eb71e5604c1b03603455600166c2d415c3db974b604c1b0360355560016702eb40f9f620fda7604a1b0360365560016705990681d961a1eb60491b03603755600167055e12902701414760491b0360385560016714962dee9dc9764160471b0360395560016704ef57b9b560fab560491b03603a5560016712ed7b32a58f552b60471b03603b556001679131271922eaa60760441b03603c556001678b380f3558668c4760441b03603d556001680215f77c045fbe885760421b03603e556001600160831b03603f556001670f577eded5773a1160471b036040556001680eb5ec597592befbf5603f1b036041556001681c35fedd14b861eb05603e1b036042556001683619c87664579bc94b603d1b0360435560016867c00a3b07ffc01fd7603c1b03604455600168c6f6c8f8739773a7a5603b1b03604555600168bec763f8209b7a72b1603b1b0360465560016902dbb8caad9b7097b91b60391b03604755600169057b3d49dda84556d6f760381b03604855600169054183095b2c8ececf3160381b036049556001690a14517cc6b9457111ef60371b03604a5560016913545598e5c23276ccf160361b03604b556001692511882c39c3adea96ff60351b03604c55600169471649d87199aa99075760341b03604d557004429a21a029d4c1457cfbffffffffffff604e55700415bc6d6fb7dd71af2cb3ffffffffffff604f557003eab73b3bbfe282243ce1ffffffffffff6050557003c1771ac9fb6b4c18e229ffffffffffff605155700399e96897690418f785257fffffffffff605255700373fc456c53bb779bf0ea9fffffffffff60535570034f9e8e490c48e67e6ab8bfffffffffff60545570032cbfd4a7adc790560b3337ffffffffff60555570030b50570f6e5d2acca94613ffffffffff6056557002eb40f9f620fda6b56c2861ffffffffff6057557002cc8340ecb0d0f520a6af58ffffffffff6058557002af09481380a0a35cf1ba02ffffffffff605955700292c5bdd3b92ec810287b1b3fffffffff605a55700277abdcdab07d5a77ac6d6b9fffffffff605b5570025daf6654b1eaa55fd64df5efffffffff605c55700244c49c648baa98192dce88b7ffffffff605d5570022ce03cd5619a311b2471268bffffffff605e55700215f77c045fbe885654a44a0fffffffff605f556001600160811b036060557001eaefdbdaaee7421fc4d3ede5ffffffff6061557001d6bd8b2eb257df7e8ca57b09bfffffff6062557001c35fedd14b861eb0443f7f133fffffff6063557001b0ce43b322bcde4a56e8ada5afffffff60645570019f0028ec1fff007f5a195a39dfffffff60655570018ded91f0e72ee74f49b15ba527ffffff60665570017d8ec7f04136f4e5615fd41a63ffffff60675570016ddc6556cdb84bdc8d12d22e6fffffff60685570015ecf52776a1155b5bd8395814f7fffff60695570015060c256cb23b3b3cc3754cf40ffffff606a557001428a2f98d728ae223ddab715be3fffff606b5570013545598e5c23276ccf0ede68034fffff606c557001288c4161ce1d6f54b7f61081194fffff606d5570011c592761c666aa641d5a01a40f17ffff606e55700110a688680a7530515f3e6e6cfdcdffff606f557001056f1b5bedf75c6bcb2ce8aed428ffff6070556ffaadceceeff8a0890f3875f008277fff6071556ff05dc6b27edad306388a600f6ba0bfff6072556fe67a5a25da41063de1495d5b18cdbfff6073556fdcff115b14eedde6fc3aa5353f2e4fff6074556fd3e7a3924312399f9aae2e0f868f8fff6075556fcb2ff529eb71e41582cccd5a1ee26fff6076556fc2d415c3db974ab32a51840c0b67edff6077556fbad03e7d883f69ad5b0a186184e06bff6078556fb320d03b2c343d4829abd6075f0cc5ff6079556fabc25204e02828d73c6e80bcdb1a95bf607a556fa4b16f74ee4bb2040a1ec6c15fbbf2df607b556f9deaf736ac1f569deb1b5ae3f36c130f607c556f976bd9952c7aa957f5937d790ef65037607d556f9131271922eaa6064b73a22d0bd4f2bf607e556f8b380f3558668c46c91c49a2f8e967b9607f556f857ddf0117efa215952912839f6473e6608055608355620008e2565b828054620007c890620008a5565b90600052602060002090601f016020900481019282620007ec576000855562000837565b82601f106200080757805160ff191683800117855562000837565b8280016001018555821562000837579182015b82811115620008375782518255916020019190600101906200081a565b506200084592915062000849565b5090565b5b808211156200084557600081556001016200084a565b60006020828403121562000872578081fd5b5051919050565b6000816000190483118215151615620008a057634e487b7160e01b81526011600452602481fd5b500290565b600281046001821680620008ba57607f821691505b60208210811415620008dc57634e487b7160e01b600052602260045260246000fd5b50919050565b611bc380620008f26000396000f3fe608060405234801561001057600080fd5b50600436106100885760003560e01c806374e2f5621161005b57806374e2f562146100e657806382639852146100ee57806396365d4414610101578063f51e181a1461010957610088565b80630c7d5cd81461008d57806329a00e7c146100ab57806349f9b0f7146100be57806354fd4d50146100d1575b600080fd5b610095610111565b6040516100a29190611a20565b60405180910390f35b6100956100b9366004611950565b610117565b6100956100cc366004611950565b6101e2565b6100d96102bf565b6040516100a29190611996565b61009561034d565b6100956100fc366004611938565b610353565b61009561036f565b610095610375565b60835481565b600080851180156101285750600084115b801561013a575060008363ffffffff16115b801561014f5750620f424063ffffffff841611155b61015857600080fd5b81610165575060006101da565b63ffffffff8316620f424014156101915761018a84610184878561037b565b9061038e565b90506101da565b6000808061019f858861039a565b90506101b0818888620f42406103a6565b9093509150600060ff83166101c58a8661037b565b901c90506101d38982611abb565b9450505050505b949350505050565b600080851180156101f35750600084115b8015610205575060008363ffffffff16115b801561021a5750620f424063ffffffff841611155b80156102265750848211155b61022f57600080fd5b8161023c575060006101da565b8482141561024b5750826101da565b63ffffffff8316620f4240141561026a5761018a85610184868561037b565b600080806102788589611abb565b90506102898882620f4240896103a6565b9093509150600061029a888561037b565b905060ff831688901b6102b18561018484846104cd565b9a9950505050505050505050565b600080546102cc90611b12565b80601f01602080910402602001604051908101604052809291908181526020018280546102f890611b12565b80156103455780601f1061031a57610100808354040283529160200191610345565b820191906000526020600020905b81548152906001019060200180831161032857829003601f168201915b505050505081565b60845481565b600061036760845460825460835485610117565b90505b919050565b60825481565b60815481565b60006103878284611a9c565b9392505050565b60006103878284611a66565b60006103878284611a29565b600080600160811b86106103ca57634e487b7160e01b600052600160045260246000fd5b848610156103f35760405162461bcd60e51b81526004016103ea906119e9565b60405180910390fd5b600080866104056001607f1b8a611a9c565b61040f9190611a66565b905070015bf0a8b1457695355fb8ac404e7a79e381101561043a57610433816104d9565b9150610446565b61044381610a52565b91505b60008563ffffffff168763ffffffff16846104619190611a9c565b61046b9190611a66565b9050600160831b8110156104905761048281610b41565b607f945094505050506104c4565b600061049b8261116c565b90506104b76104ab82607f611ad2565b60ff1683901c82611262565b955093506104c492505050565b94509492505050565b60006103878284611abb565b6000808080806fd3094c70f034de4b96ff7d5b6f99fcd88610610532576105046001607e1b85611a29565b93506fd3094c70f034de4b96ff7d5b6f99fcd86105256001607f1b88611a9c565b61052f9190611a66565b95505b6fa45af1e1f40c333b3de1db4dd55f29a78610610585576105576001607d1b85611a29565b93506fa45af1e1f40c333b3de1db4dd55f29a76105786001607f1b88611a9c565b6105829190611a66565b95505b6f910b022db7ae67ce76b441c27035c6a186106105d8576105aa6001607c1b85611a29565b93506f910b022db7ae67ce76b441c27035c6a16105cb6001607f1b88611a9c565b6105d59190611a66565b95505b6f88415abbe9a76bead8d00cf112e4d4a8861061062b576105fd6001607b1b85611a29565b93506f88415abbe9a76bead8d00cf112e4d4a861061e6001607f1b88611a9c565b6106289190611a66565b95505b6f84102b00893f64c705e841d5d4064bd3861061067e576106506001607a1b85611a29565b93506f84102b00893f64c705e841d5d4064bd36106716001607f1b88611a9c565b61067b9190611a66565b95505b6f8204055aaef1c8bd5c3259f4822735a286106106d1576106a3600160791b85611a29565b93506f8204055aaef1c8bd5c3259f4822735a26106c46001607f1b88611a9c565b6106ce9190611a66565b95505b6f810100ab00222d861931c15e39b44e998610610724576106f6600160781b85611a29565b93506f810100ab00222d861931c15e39b44e996107176001607f1b88611a9c565b6107219190611a66565b95505b6f808040155aabbbe9451521693554f733861061077757610749600160771b85611a29565b93506f808040155aabbbe9451521693554f73361076a6001607f1b88611a9c565b6107749190611a66565b95505b6107856001607f1b87611abb565b92508291506001607f1b6107998380611a9c565b6107a39190611a66565b9050600160801b6107b48482611abb565b6107be9084611a9c565b6107c89190611a66565b6107d29085611a29565b93506001607f1b6107e38284611a9c565b6107ed9190611a66565b9150600160811b61080e846faaaaaaaaaaaaaaaaaaaaaaaaaaaaaaaa611abb565b6108189084611a9c565b6108229190611a66565b61082c9085611a29565b93506001607f1b61083d8284611a9c565b6108479190611a66565b9150600360801b610868846f99999999999999999999999999999999611abb565b6108729084611a9c565b61087c9190611a66565b6108869085611a29565b93506001607f1b6108978284611a9c565b6108a19190611a66565b9150600160821b6108c2846f92492492492492492492492492492492611abb565b6108cc9084611a9c565b6108d69190611a66565b6108e09085611a29565b93506001607f1b6108f18284611a9c565b6108fb9190611a66565b9150600560801b61091c846f8e38e38e38e38e38e38e38e38e38e38e611abb565b6109269084611a9c565b6109309190611a66565b61093a9085611a29565b93506001607f1b61094b8284611a9c565b6109559190611a66565b9150600360811b610976846f8ba2e8ba2e8ba2e8ba2e8ba2e8ba2e8b611abb565b6109809084611a9c565b61098a9190611a66565b6109949085611a29565b93506001607f1b6109a58284611a9c565b6109af9190611a66565b9150600760801b6109d0846f89d89d89d89d89d89d89d89d89d89d89611abb565b6109da9084611a9c565b6109e49190611a66565b6109ee9085611a29565b93506001607f1b6109ff8284611a9c565b610a099190611a66565b9150600160831b610a2a846f88888888888888888888888888888888611abb565b610a349084611a9c565b610a3e9190611a66565b610a489085611a29565b9695505050505050565b60008082600160801b8110610a97576000610a79610a746001607f1b84611a66565b6118c9565b60ff811692831c92909150610a93906001607f1b90611a9c565b9250505b6001607f1b811115610b0c57607f5b60ff811615610b0a576001607f1b610abe8380611a9c565b610ac89190611a66565b9150600160801b8210610afa57600191821c91610ae59082611ad2565b60ff166001901b83610af79190611a29565b92505b610b0381611af5565b9050610aa6565b505b6f05b9de1d10bf4103d647b0955897ba80610b376f03f80fe03f80fe03f80fe03f80fe03f884611a9c565b6101da9190611a66565b6000808080610b546001607c1b86611b4d565b91508190506001607f1b610b688280611a9c565b610b729190611a66565b9050610b86816710e1b3be415a0000611a9c565b610b909084611a29565b92506001607f1b610ba18383611a9c565b610bab9190611a66565b9050610bbf816705a0913f6b1e0000611a9c565b610bc99084611a29565b92506001607f1b610bda8383611a9c565b610be49190611a66565b9050610bf881670168244fdac78000611a9c565b610c029084611a29565b92506001607f1b610c138383611a9c565b610c1d9190611a66565b9050610c3081664807432bc18000611a9c565b610c3a9084611a29565b92506001607f1b610c4b8383611a9c565b610c559190611a66565b9050610c6881660c0135dca04000611a9c565b610c729084611a29565b92506001607f1b610c838383611a9c565b610c8d9190611a66565b9050610ca0816601b707b1cdc000611a9c565b610caa9084611a29565b92506001607f1b610cbb8383611a9c565b610cc59190611a66565b9050610cd7816536e0f639b800611a9c565b610ce19084611a29565b92506001607f1b610cf28383611a9c565b610cfc9190611a66565b9050610d0e81650618fee9f800611a9c565b610d189084611a29565b92506001607f1b610d298383611a9c565b610d339190611a66565b9050610d4481649c197dcc00611a9c565b610d4e9084611a29565b92506001607f1b610d5f8383611a9c565b610d699190611a66565b9050610d7a81640e30dce400611a9c565b610d849084611a29565b92506001607f1b610d958383611a9c565b610d9f9190611a66565b9050610db08164012ebd1300611a9c565b610dba9084611a29565b92506001607f1b610dcb8383611a9c565b610dd59190611a66565b9050610de5816317499f00611a9c565b610def9084611a29565b92506001607f1b610e008383611a9c565b610e0a9190611a66565b9050610e1a816301a9d480611a9c565b610e249084611a29565b92506001607f1b610e358383611a9c565b610e3f9190611a66565b9050610e4e81621c6380611a9c565b610e589084611a29565b92506001607f1b610e698383611a9c565b610e739190611a66565b9050610e82816201c638611a9c565b610e8c9084611a29565b92506001607f1b610e9d8383611a9c565b610ea79190611a66565b9050610eb581611ab8611a9c565b610ebf9084611a29565b92506001607f1b610ed08383611a9c565b610eda9190611a66565b9050610ee88161017c611a9c565b610ef29084611a29565b92506001607f1b610f038383611a9c565b610f0d9190611a66565b9050610f1a816014611a9c565b610f249084611a29565b92506001607f1b610f358383611a9c565b610f3f9190611a66565b9050610f4c816001611a9c565b610f569084611a29565b92506001607f1b82610f706721c3677c82b4000086611a66565b610f7a9190611a29565b610f849190611a29565b92506001607c1b851615610fcc5770018ebef9eac820ae8682b9793ac6d1e776610fbf847001c3d6a24ed82218787d624d3e5eba95f9611a9c565b610fc99190611a66565b92505b6001607d1b851615611012577001368b2fc6f9609fe7aceb46aa619baed46110058470018ebef9eac820ae8682b9793ac6d1e778611a9c565b61100f9190611a66565b92505b6001607e1b851615611057576fbc5ab1b16779be3575bd8f0520a9f21f61104a847001368b2fc6f9609fe7aceb46aa619baed5611a9c565b6110549190611a66565b92505b6001607f1b85161561109b576f454aaa8efe072e7f6ddbab84b40a55c961108e846fbc5ab1b16779be3575bd8f0520a9f21e611a9c565b6110989190611a66565b92505b600160801b8516156110df576f0960aadc109e7a3bf4578099615711ea6110d2846f454aaa8efe072e7f6ddbab84b40a55c5611a9c565b6110dc9190611a66565b92505b600160811b851615611122576e2bf84208204f5977f9a8cf01fdce3d611115846f0960aadc109e7a3bf4578099615711d7611a9c565b61111f9190611a66565b92505b600160821b851615611163576d03c6ab775dd0b95b4cbee7e65d11611156846e2bf84208204f5977f9a8cf01fdc307611a9c565b6111609190611a66565b92505b50909392505050565b60006020607f5b60ff8116611182836001611a41565b60ff1610156111e357600060026111998385611a41565b6111a39190611a7a565b90508460018260ff16608081106111ca57634e487b7160e01b600052603260045260246000fd5b0154106111d9578092506111dd565b8091505b50611173565b8360018260ff166080811061120857634e487b7160e01b600052603260045260246000fd5b01541061121857915061036a9050565b8360018360ff166080811061123d57634e487b7160e01b600052603260045260246000fd5b01541061124c5750905061036a565b634e487b7160e01b600052600160045260246000fd5b6000828160ff84166112748380611a9c565b901c9150611292826f03442c4e6074a82f1797f72ac0000000611a9c565b61129c9082611a29565b905060ff84166112ac8684611a9c565b901c91506112ca826f0116b96f757c380fb287fd0e40000000611a9c565b6112d49082611a29565b905060ff84166112e48684611a9c565b901c9150611301826e45ae5bdd5f0e03eca1ff4390000000611a9c565b61130b9082611a29565b905060ff841661131b8684611a9c565b901c9150611338826e0defabf91302cd95b9ffda50000000611a9c565b6113429082611a29565b905060ff84166113528684611a9c565b901c915061136f826e02529ca9832b22439efff9b8000000611a9c565b6113799082611a29565b905060ff84166113898684611a9c565b901c91506113a5826d54f1cf12bd04e516b6da88000000611a9c565b6113af9082611a29565b905060ff84166113bf8684611a9c565b901c91506113db826d0a9e39e257a09ca2d6db51000000611a9c565b6113e59082611a29565b905060ff84166113f58684611a9c565b901c9150611411826d012e066e7b839fa050c309000000611a9c565b61141b9082611a29565b905060ff841661142b8684611a9c565b901c9150611446826c1e33d7d926c329a1ad1a800000611a9c565b6114509082611a29565b905060ff84166114608684611a9c565b901c915061147b826c02bee513bdb4a6b19b5f800000611a9c565b6114859082611a29565b905060ff84166114958684611a9c565b901c91506114af826b3a9316fa79b88eccf2a00000611a9c565b6114b99082611a29565b905060ff84166114c98684611a9c565b901c91506114e3826b048177ebe1fa812375200000611a9c565b6114ed9082611a29565b905060ff84166114fd8684611a9c565b901c9150611516826a5263fe90242dcbacf00000611a9c565b6115209082611a29565b905060ff84166115308684611a9c565b901c9150611549826a057e22099c030d94100000611a9c565b6115539082611a29565b905060ff84166115638684611a9c565b901c915061157b826957e22099c030d9410000611a9c565b6115859082611a29565b905060ff84166115958684611a9c565b901c91506115ad8269052b6b54569976310000611a9c565b6115b79082611a29565b905060ff84166115c78684611a9c565b901c91506115de82684985f67696bf748000611a9c565b6115e89082611a29565b905060ff84166115f88684611a9c565b901c915061160f826803dea12ea99e498000611a9c565b6116199082611a29565b905060ff84166116298684611a9c565b901c915061163f826731880f2214b6e000611a9c565b6116499082611a29565b905060ff84166116598684611a9c565b901c915061166f8267025bcff56eb36000611a9c565b6116799082611a29565b905060ff84166116898684611a9c565b901c915061169e82661b722e10ab1000611a9c565b6116a89082611a29565b905060ff84166116b88684611a9c565b901c91506116cd826601317c70077000611a9c565b6116d79082611a29565b905060ff84166116e78684611a9c565b901c91506116fb82650cba84aafa00611a9c565b6117059082611a29565b905060ff84166117158684611a9c565b901c9150611728826482573a0a00611a9c565b6117329082611a29565b905060ff84166117428684611a9c565b901c9150611755826405035ad900611a9c565b61175f9082611a29565b905060ff841661176f8684611a9c565b901c915061178182632f881b00611a9c565b61178b9082611a29565b905060ff841661179b8684611a9c565b901c91506117ad826301b29340611a9c565b6117b79082611a29565b905060ff84166117c78684611a9c565b901c91506117d882620efc40611a9c565b6117e29082611a29565b905060ff84166117f28684611a9c565b901c915061180282617fe0611a9c565b61180c9082611a29565b905060ff841661181c8684611a9c565b901c915061182c82610420611a9c565b6118369082611a29565b905060ff84166118468684611a9c565b901c9150611855826021611a9c565b61185f9082611a29565b905060ff841661186f8684611a9c565b901c915061187e826001611a9c565b6118889082611a29565b9050600160ff85161b856118ac6f0688589cc0e9505e2f2fee558000000084611a66565b6118b69190611a29565b6118c09190611a29565b95945050505050565b600080826101008110156118fd575b60018111156118f857600190811c906118f19083611a41565b91506118d8565b611931565b60805b60ff81161561192f57600160ff82161b8210611924579182179160ff81169190911c905b60011c607f16611900565b505b5092915050565b600060208284031215611949578081fd5b5035919050565b60008060008060808587031215611965578283fd5b8435935060208501359250604085013563ffffffff81168114611986578283fd5b9396929550929360600135925050565b6000602080835283518082850152825b818110156119c2578581018301518582016040015282016119a6565b818111156119d35783604083870101525b50601f01601f1916929092016040019392505050565b6020808252601c908201527f4261736573203c203120617265206e6f7420737570706f727465642e00000000604082015260600190565b90815260200190565b60008219821115611a3c57611a3c611b61565b500190565b600060ff821660ff84168060ff03821115611a5e57611a5e611b61565b019392505050565b600082611a7557611a75611b77565b500490565b600060ff831680611a8d57611a8d611b77565b8060ff84160491505092915050565b6000816000190483118215151615611ab657611ab6611b61565b500290565b600082821015611acd57611acd611b61565b500390565b600060ff821660ff841680821015611aec57611aec611b61565b90039392505050565b600060ff821680611b0857611b08611b61565b6000190192915050565b600281046001821680611b2657607f821691505b60208210811415611b4757634e487b7160e01b600052602260045260246000fd5b50919050565b600082611b5c57611b5c611b77565b500690565b634e487b7160e01b600052601160045260246000fd5b634e487b7160e01b600052601260045260246000fdfea2646970667358221220f15843053b01e96f8094d3e5e6e1d0ba9fd8737c052f7c8b76fca42ab8f5101364736f6c63430008000033",
  "linkReferences": {},
  "deployedLinkReferences": {}
}