{
  "_format": "hh-sol-artifact-1",
  "contractName": "TimedCrowdsale",
  "sourceName": "contracts/crowdsale/validation/TimedCrowdsale.sol",
  "abi": [
    {
      "inputs": [
        {
          "internalType": "uint256",
          "name": "_rate",
          "type": "uint256"
        },
        {
          "internalType": "address",
          "name": "_wallet",
          "type": "address"
        },
        {
          "internalType": "contract ERC20",
          "name": "_token",
          "type": "address"
        },
        {
          "internalType": "uint256",
          "name": "openingTime_",
          "type": "uint256"
        },
        {
          "internalType": "uint256",
          "name": "closingTime_",
          "type": "uint256"
        }
      ],
      "stateMutability": "nonpayable",
      "type": "constructor"
    },
    {
      "anonymous": false,
      "inputs": [
        {
          "indexed": false,
          "internalType": "string",
          "name": "name",
          "type": "string"
        },
        {
          "indexed": false,
          "internalType": "address",
          "name": "value",
          "type": "address"
        },
        {
          "indexed": true,
          "internalType": "bool",
          "name": "status",
          "type": "bool"
        }
      ],
      "name": "DebugAddress",
      "type": "event"
    },
    {
      "anonymous": false,
      "inputs": [
        {
          "indexed": false,
          "internalType": "string",
          "name": "name",
          "type": "string"
        },
        {
          "indexed": false,
          "internalType": "string",
          "name": "value",
          "type": "string"
        },
        {
          "indexed": true,
          "internalType": "bool",
          "name": "status",
          "type": "bool"
        }
      ],
      "name": "DebugString",
      "type": "event"
    },
    {
      "anonymous": false,
      "inputs": [
        {
          "indexed": false,
          "internalType": "string",
          "name": "name",
          "type": "string"
        },
        {
          "indexed": false,
          "internalType": "uint256",
          "name": "value",
          "type": "uint256"
        },
        {
          "indexed": true,
          "internalType": "bool",
          "name": "status",
          "type": "bool"
        }
      ],
      "name": "DebugUint256",
      "type": "event"
    },
    {
      "anonymous": false,
      "inputs": [
        {
          "indexed": true,
          "internalType": "address",
          "name": "purchaser",
          "type": "address"
        },
        {
          "indexed": true,
          "internalType": "address",
          "name": "beneficiary",
          "type": "address"
        },
        {
          "indexed": false,
          "internalType": "uint256",
          "name": "value",
          "type": "uint256"
        },
        {
          "indexed": false,
          "internalType": "uint256",
          "name": "amount",
          "type": "uint256"
        }
      ],
      "name": "TokenPurchase",
      "type": "event"
    },
    {
      "stateMutability": "payable",
      "type": "fallback"
    },
    {
      "inputs": [
        {
          "internalType": "address",
          "name": "_beneficiary",
          "type": "address"
        }
      ],
      "name": "buyTokens",
      "outputs": [],
      "stateMutability": "payable",
      "type": "function"
    },
    {
      "inputs": [],
      "name": "closingTime",
      "outputs": [
        {
          "internalType": "uint256",
          "name": "",
          "type": "uint256"
        }
      ],
      "stateMutability": "view",
      "type": "function"
    },
    {
      "inputs": [],
      "name": "hasClosed",
      "outputs": [
        {
          "internalType": "bool",
          "name": "",
          "type": "bool"
        }
      ],
      "stateMutability": "view",
      "type": "function"
    },
    {
      "inputs": [],
      "name": "isOpen",
      "outputs": [
        {
          "internalType": "bool",
          "name": "",
          "type": "bool"
        }
      ],
      "stateMutability": "view",
      "type": "function"
    },
    {
      "inputs": [],
      "name": "openingTime",
      "outputs": [
        {
          "internalType": "uint256",
          "name": "",
          "type": "uint256"
        }
      ],
      "stateMutability": "view",
      "type": "function"
    },
    {
      "inputs": [],
      "name": "rate",
      "outputs": [
        {
          "internalType": "uint256",
          "name": "",
          "type": "uint256"
        }
      ],
      "stateMutability": "view",
      "type": "function"
    },
    {
      "inputs": [],
      "name": "token",
      "outputs": [
        {
          "internalType": "contract ERC20",
          "name": "",
          "type": "address"
        }
      ],
      "stateMutability": "view",
      "type": "function"
    },
    {
      "inputs": [],
      "name": "wallet",
      "outputs": [
        {
          "internalType": "address",
          "name": "",
          "type": "address"
        }
      ],
      "stateMutability": "view",
      "type": "function"
    },
    {
      "inputs": [],
      "name": "weiRaised",
      "outputs": [
        {
          "internalType": "uint256",
          "name": "",
          "type": "uint256"
        }
      ],
      "stateMutability": "view",
      "type": "function"
    },
    {
      "stateMutability": "payable",
      "type": "receive"
    }
  ],
  "bytecode": "0x608060405234801561001057600080fd5b50604051610ab8380380610ab883398101604081905261002f91610132565b8484846000831115157f9f83a56b6b62f46d9c0e9818a1661f72ca56ba06cff353d059436e5832127d84846040516100679190610185565b60405180910390a26040516001600160a01b038316151590600080516020610a988339815191529061009a9085906101fa565b60405180910390a26040516001600160a01b038216151590600080516020610a98833981519152906100cd9084906101b2565b60405180910390a2600292909255600180546001600160a01b039283166001600160a01b031991821617909155600080549290931691161790554282101561011457600080fd5b81811161012057600080fd5b6004919091556005555061024b915050565b600080600080600060a08688031215610149578081fd5b85519450602086015161015b81610233565b604087015190945061016c81610233565b6060870151608090970151959894975095949392505050565b6040808252600b908201526a4e756d6265722f5261746560a81b6060820152602081019190915260800190565b60408082526016908201527f416464726573732f6164647265737328746f6b656e290000000000000000000060608201526001600160a01b0391909116602082015260800190565b6040808252600e908201526d1059191c995cdccbd5d85b1b195d60921b60608201526001600160a01b0391909116602082015260800190565b6001600160a01b038116811461024857600080fd5b50565b61083e8061025a6000396000f3fe60806040526004361061008a5760003560e01c80634b6753bc116100595780634b6753bc1461011a578063521eb2731461012f578063b7a8807c14610151578063ec8ac4d814610166578063fc0c546a146101795761009a565b80631515bc2b146100a35780632c4e722e146100ce5780634042b66f146100f057806347535d7b146101055761009a565b3661009a576100983361018e565b005b6100983361018e565b3480156100af57600080fd5b506100b8610427565b6040516100c591906106cf565b60405180910390f35b3480156100da57600080fd5b506100e361042f565b6040516100c591906107a4565b3480156100fc57600080fd5b506100e3610435565b34801561011157600080fd5b506100b861043b565b34801561012657600080fd5b506100e3610456565b34801561013b57600080fd5b5061014461045c565b6040516100c591906106a2565b34801561015d57600080fd5b506100e361046b565b610098610174366004610643565b61018e565b34801561018557600080fd5b50610144610471565b346101998282610480565b60006101a48261049f565b6000546040516370a0823160e01b815291925082916001600160a01b03909116906370a08231906101d99030906004016106a2565b60206040518083038186803b1580156101f157600080fd5b505afa158015610205573d6000803e3d6000fd5b505050506040513d601f19601f82011682018060405250810190610229919061068a565b6000546040516370a0823160e01b81529290911015917f9f83a56b6b62f46d9c0e9818a1661f72ca56ba06cff353d059436e5832127d84916001600160a01b0316906370a082319061027f9030906004016106a2565b60206040518083038186803b15801561029757600080fd5b505afa1580156102ab573d6000803e3d6000fd5b505050506040513d601f19601f820116820180604052508101906102cf919061068a565b6040516102dc9190610706565b60405180910390a26000546040516370a0823160e01b815282916001600160a01b0316906370a08231906103149030906004016106a2565b60206040518083038186803b15801561032c57600080fd5b505afa158015610340573d6000803e3d6000fd5b505050506040513d601f19601f82011682018060405250810190610364919061068a565b101515157f9f83a56b6b62f46d9c0e9818a1661f72ca56ba06cff353d059436e5832127d84826040516103979190610775565b60405180910390a26003546103ac90836104bc565b6003556103b983826104cf565b826001600160a01b0316336001600160a01b03167f623b3804fa71d67900d064613da8f94b9617215ee90799290593e1745087ad1884846040516103fe9291906107ad565b60405180910390a3610410838361049b565b6104186104d9565b610422838361049b565b505050565b600554421190565b60025481565b60035481565b6000600454421015801561045157506005544211155b905090565b60055490565b6001546001600160a01b031681565b60045490565b6000546001600160a01b031681565b61048861043b565b61049157600080fd5b61049b8282610515565b5050565b60006104b6600254836105b390919063ffffffff16565b92915050565b60006104c882846107bb565b9392505050565b61049b82826105bf565b6001546040516001600160a01b03909116903480156108fc02916000818181858888f19350505050158015610512573d6000803e3d6000fd5b50565b6040516001600160a01b0383161515907facc1fbd861d476a3b70596fb49d0ebb80e2e5d077cdde5d17d8abcd924ef8d209061055290859061073e565b60405180910390a2604051811515907f9f83a56b6b62f46d9c0e9818a1661f72ca56ba06cff353d059436e5832127d849061058e9084906106da565b60405180910390a26001600160a01b0382166105a957600080fd5b8061049b57600080fd5b60006104c882846107d3565b60005460405163a9059cbb60e01b81526001600160a01b039091169063a9059cbb906105f190859085906004016106b6565b602060405180830381600087803b15801561060b57600080fd5b505af115801561061f573d6000803e3d6000fd5b505050506040513d601f19601f82011682018060405250810190610422919061066a565b600060208284031215610654578081fd5b81356001600160a01b03811681146104c8578182fd5b60006020828403121561067b578081fd5b815180151581146104c8578182fd5b60006020828403121561069b578081fd5b5051919050565b6001600160a01b0391909116815260200190565b6001600160a01b03929092168252602082015260400190565b901515815260200190565b6040808252600a908201526917ddd95a505b5bdd5b9d60b21b6060820152602081019190915260800190565b604080825260169082015275273ab6b132b917ba37b5b2b7173130b630b731b2a7b360511b6060820152602081019190915260800190565b6040808252600c908201526b5f62656e656669636961727960a01b60608201526001600160a01b0391909116602082015260800190565b6040808252600d908201526c4e756d6265722f746f6b656e7360981b6060820152602081019190915260800190565b90815260200190565b918252602082015260400190565b600082198211156107ce576107ce6107f2565b500190565b60008160001904831182151516156107ed576107ed6107f2565b500290565b634e487b7160e01b600052601160045260246000fdfea26469706673582212202dc2ec7fe6fcb0e3833b561001914f23aeebba1d5e09ad92e207982ce73aaa1d64736f6c63430008000033acc1fbd861d476a3b70596fb49d0ebb80e2e5d077cdde5d17d8abcd924ef8d20",
  "linkReferences": {},
  "deployedLinkReferences": {}
}