{
  "_format": "hh-sol-artifact-1",
  "contractName": "SimpleCBT",
  "sourceName": "contracts/SimpleCBT.sol",
  "abi": [
    {
      "inputs": [
        {
          "internalType": "string",
          "name": "_name",
          "type": "string"
        },
        {
          "internalType": "string",
          "name": "_symbol",
          "type": "string"
        },
        {
          "internalType": "uint256",
          "name": "_reserveRatio",
          "type": "uint256"
        }
      ],
      "stateMutability": "nonpayable",
      "type": "constructor"
    },
    {
      "anonymous": false,
      "inputs": [
        {
          "indexed": true,
          "internalType": "address",
          "name": "owner",
          "type": "address"
        },
        {
          "indexed": true,
          "internalType": "address",
          "name": "spender",
          "type": "address"
        },
        {
          "indexed": false,
          "internalType": "uint256",
          "name": "value",
          "type": "uint256"
        }
      ],
      "name": "Approval",
      "type": "event"
    },
    {
      "anonymous": false,
      "inputs": [
        {
          "indexed": true,
          "internalType": "address",
          "name": "sender",
          "type": "address"
        },
        {
          "indexed": false,
          "internalType": "uint256",
          "name": "amount",
          "type": "uint256"
        },
        {
          "indexed": false,
          "internalType": "uint256",
          "name": "reimbursement",
          "type": "uint256"
        }
      ],
      "name": "CurvedBurn",
      "type": "event"
    },
    {
      "anonymous": false,
      "inputs": [
        {
          "indexed": true,
          "internalType": "address",
          "name": "sender",
          "type": "address"
        },
        {
          "indexed": false,
          "internalType": "uint256",
          "name": "amount",
          "type": "uint256"
        },
        {
          "indexed": false,
          "internalType": "uint256",
          "name": "deposit",
          "type": "uint256"
        }
      ],
      "name": "CurvedMint",
      "type": "event"
    },
    {
      "anonymous": false,
      "inputs": [
        {
          "indexed": true,
          "internalType": "address",
          "name": "previousOwner",
          "type": "address"
        },
        {
          "indexed": true,
          "internalType": "address",
          "name": "newOwner",
          "type": "address"
        }
      ],
      "name": "OwnershipTransferred",
      "type": "event"
    },
    {
      "anonymous": false,
      "inputs": [
        {
          "indexed": true,
          "internalType": "address",
          "name": "from",
          "type": "address"
        },
        {
          "indexed": true,
          "internalType": "address",
          "name": "to",
          "type": "address"
        },
        {
          "indexed": false,
          "internalType": "uint256",
          "name": "value",
          "type": "uint256"
        }
      ],
      "name": "Transfer",
      "type": "event"
    },
    {
      "stateMutability": "payable",
      "type": "fallback"
    },
    {
      "inputs": [
        {
          "internalType": "address",
          "name": "owner",
          "type": "address"
        },
        {
          "internalType": "address",
          "name": "spender",
          "type": "address"
        }
      ],
      "name": "allowance",
      "outputs": [
        {
          "internalType": "uint256",
          "name": "",
          "type": "uint256"
        }
      ],
      "stateMutability": "view",
      "type": "function"
    },
    {
      "inputs": [
        {
          "internalType": "address",
          "name": "spender",
          "type": "address"
        },
        {
          "internalType": "uint256",
          "name": "amount",
          "type": "uint256"
        }
      ],
      "name": "approve",
      "outputs": [
        {
          "internalType": "bool",
          "name": "",
          "type": "bool"
        }
      ],
      "stateMutability": "nonpayable",
      "type": "function"
    },
    {
      "inputs": [
        {
          "internalType": "address",
          "name": "account",
          "type": "address"
        }
      ],
      "name": "balanceOf",
      "outputs": [
        {
          "internalType": "uint256",
          "name": "",
          "type": "uint256"
        }
      ],
      "stateMutability": "view",
      "type": "function"
    },
    {
      "inputs": [
        {
          "internalType": "uint256",
          "name": "_amount",
          "type": "uint256"
        }
      ],
      "name": "burn",
      "outputs": [],
      "stateMutability": "nonpayable",
      "type": "function"
    },
    {
      "inputs": [
        {
          "internalType": "uint256",
          "name": "_amount",
          "type": "uint256"
        }
      ],
      "name": "calculateCurvedBurnReturn",
      "outputs": [
        {
          "internalType": "uint256",
          "name": "burnAmount",
          "type": "uint256"
        }
      ],
      "stateMutability": "view",
      "type": "function"
    },
    {
      "inputs": [
        {
          "internalType": "uint256",
          "name": "_amount",
          "type": "uint256"
        }
      ],
      "name": "calculateCurvedMintReturn",
      "outputs": [
        {
          "internalType": "uint256",
          "name": "mintAmount",
          "type": "uint256"
        }
      ],
      "stateMutability": "view",
      "type": "function"
    },
    {
      "inputs": [
        {
          "internalType": "uint256",
          "name": "_supply",
          "type": "uint256"
        },
        {
          "internalType": "uint256",
          "name": "_connectorBalance",
          "type": "uint256"
        },
        {
          "internalType": "uint32",
          "name": "_connectorWeight",
          "type": "uint32"
        },
        {
          "internalType": "uint256",
          "name": "_depositAmount",
          "type": "uint256"
        }
      ],
      "name": "calculatePurchaseReturn",
      "outputs": [
        {
          "internalType": "uint256",
          "name": "",
          "type": "uint256"
        }
      ],
      "stateMutability": "view",
      "type": "function"
    },
    {
      "inputs": [
        {
          "internalType": "uint256",
          "name": "_supply",
          "type": "uint256"
        },
        {
          "internalType": "uint256",
          "name": "_connectorBalance",
          "type": "uint256"
        },
        {
          "internalType": "uint32",
          "name": "_connectorWeight",
          "type": "uint32"
        },
        {
          "internalType": "uint256",
          "name": "_sellAmount",
          "type": "uint256"
        }
      ],
      "name": "calculateSaleReturn",
      "outputs": [
        {
          "internalType": "uint256",
          "name": "",
          "type": "uint256"
        }
      ],
      "stateMutability": "view",
      "type": "function"
    },
    {
      "inputs": [],
      "name": "decimals",
      "outputs": [
        {
          "internalType": "uint8",
          "name": "",
          "type": "uint8"
        }
      ],
      "stateMutability": "view",
      "type": "function"
    },
    {
      "inputs": [
        {
          "internalType": "address",
          "name": "spender",
          "type": "address"
        },
        {
          "internalType": "uint256",
          "name": "subtractedValue",
          "type": "uint256"
        }
      ],
      "name": "decreaseAllowance",
      "outputs": [
        {
          "internalType": "bool",
          "name": "",
          "type": "bool"
        }
      ],
      "stateMutability": "nonpayable",
      "type": "function"
    },
    {
      "inputs": [
        {
          "internalType": "address",
          "name": "spender",
          "type": "address"
        },
        {
          "internalType": "uint256",
          "name": "addedValue",
          "type": "uint256"
        }
      ],
      "name": "increaseAllowance",
      "outputs": [
        {
          "internalType": "bool",
          "name": "",
          "type": "bool"
        }
      ],
      "stateMutability": "nonpayable",
      "type": "function"
    },
    {
      "inputs": [],
      "name": "maxGasPrice",
      "outputs": [
        {
          "internalType": "uint256",
          "name": "",
          "type": "uint256"
        }
      ],
      "stateMutability": "view",
      "type": "function"
    },
    {
      "inputs": [],
      "name": "mint",
      "outputs": [],
      "stateMutability": "payable",
      "type": "function"
    },
    {
      "inputs": [],
      "name": "name",
      "outputs": [
        {
          "internalType": "string",
          "name": "",
          "type": "string"
        }
      ],
      "stateMutability": "view",
      "type": "function"
    },
    {
      "inputs": [],
      "name": "owner",
      "outputs": [
        {
          "internalType": "address",
          "name": "",
          "type": "address"
        }
      ],
      "stateMutability": "view",
      "type": "function"
    },
    {
      "inputs": [],
      "name": "poolBalance",
      "outputs": [
        {
          "internalType": "uint256",
          "name": "",
          "type": "uint256"
        }
      ],
      "stateMutability": "view",
      "type": "function"
    },
    {
      "inputs": [],
      "name": "renounceOwnership",
      "outputs": [],
      "stateMutability": "nonpayable",
      "type": "function"
    },
    {
      "inputs": [],
      "name": "reserveRatio",
      "outputs": [
        {
          "internalType": "uint256",
          "name": "",
          "type": "uint256"
        }
      ],
      "stateMutability": "view",
      "type": "function"
    },
    {
      "inputs": [],
      "name": "scale",
      "outputs": [
        {
          "internalType": "uint256",
          "name": "",
          "type": "uint256"
        }
      ],
      "stateMutability": "view",
      "type": "function"
    },
    {
      "inputs": [
        {
          "internalType": "uint256",
          "name": "newMax",
          "type": "uint256"
        }
      ],
      "name": "setMaxGasPrice",
      "outputs": [
        {
          "internalType": "bool",
          "name": "",
          "type": "bool"
        }
      ],
      "stateMutability": "nonpayable",
      "type": "function"
    },
    {
      "inputs": [],
      "name": "symbol",
      "outputs": [
        {
          "internalType": "string",
          "name": "",
          "type": "string"
        }
      ],
      "stateMutability": "view",
      "type": "function"
    },
    {
      "inputs": [],
      "name": "totalSupply",
      "outputs": [
        {
          "internalType": "uint256",
          "name": "",
          "type": "uint256"
        }
      ],
      "stateMutability": "view",
      "type": "function"
    },
    {
      "inputs": [
        {
          "internalType": "address",
          "name": "to",
          "type": "address"
        },
        {
          "internalType": "uint256",
          "name": "amount",
          "type": "uint256"
        }
      ],
      "name": "transfer",
      "outputs": [
        {
          "internalType": "bool",
          "name": "",
          "type": "bool"
        }
      ],
      "stateMutability": "nonpayable",
      "type": "function"
    },
    {
      "inputs": [
        {
          "internalType": "address",
          "name": "from",
          "type": "address"
        },
        {
          "internalType": "address",
          "name": "to",
          "type": "address"
        },
        {
          "internalType": "uint256",
          "name": "amount",
          "type": "uint256"
        }
      ],
      "name": "transferFrom",
      "outputs": [
        {
          "internalType": "bool",
          "name": "",
          "type": "bool"
        }
      ],
      "stateMutability": "nonpayable",
      "type": "function"
    },
    {
      "inputs": [
        {
          "internalType": "address",
          "name": "newOwner",
          "type": "address"
        }
      ],
      "name": "transferOwnership",
      "outputs": [],
      "stateMutability": "nonpayable",
      "type": "function"
    },
    {
      "inputs": [],
      "name": "version",
      "outputs": [
        {
          "internalType": "string",
          "name": "",
          "type": "string"
        }
      ],
      "stateMutability": "view",
      "type": "function"
    },
    {
      "stateMutability": "payable",
      "type": "receive"
    }
  ],
  "bytecode": "0x60c06040526003608081905262302e3360e81b60a09081526200002691600091906200095e565b50670de0b6b3a7640000608255670de0b6b3a7640000608855608854600162000050919062000b7a565b6089553480156200006057600080fd5b50604051620039e2380380620039e2833981016040819052620000839162000aaf565b6001641c35fedd1560601b036021556001646c3390ecc9605e1b036022556001640cf801476160611b0360235560016431bdb23e1d605f1b0360245560016502fb1d8fe083605b1b0360255560016505b771955b37605a1b036026556001650af67a93bb5160591b0360275560016515060c256cb360581b036028556001651428a2f98d7360581b036029556001654d515663970960561b03602a55600165944620b0e70f60551b03602b55600166011c592761c66760541b03602c5560016602214d10d014eb60531b03602d55600166020ade36b7dbef60531b03602e5560016603eab73b3bbfe360521b03602f556001660782ee3593f6d760511b036030556001661ccf4b44bb4821604f1b0360315560016606e7f88ad8a77760511b0360325560016669f3d1c921891d604d1b03603355600166cb2ff529eb71e5604c1b03603455600166c2d415c3db974b604c1b0360355560016702eb40f9f620fda7604a1b0360365560016705990681d961a1eb60491b03603755600167055e12902701414760491b0360385560016714962dee9dc9764160471b0360395560016704ef57b9b560fab560491b03603a5560016712ed7b32a58f552b60471b03603b556001679131271922eaa60760441b03603c556001678b380f3558668c4760441b03603d556001680215f77c045fbe885760421b03603e556001600160831b03603f556001670f577eded5773a1160471b036040556001680eb5ec597592befbf5603f1b036041556001681c35fedd14b861eb05603e1b036042556001683619c87664579bc94b603d1b0360435560016867c00a3b07ffc01fd7603c1b03604455600168c6f6c8f8739773a7a5603b1b03604555600168bec763f8209b7a72b1603b1b0360465560016902dbb8caad9b7097b91b60391b03604755600169057b3d49dda84556d6f760381b03604855600169054183095b2c8ececf3160381b036049556001690a14517cc6b9457111ef60371b03604a5560016913545598e5c23276ccf160361b03604b556001692511882c39c3adea96ff60351b03604c55600169471649d87199aa99075760341b03604d557004429a21a029d4c1457cfbffffffffffff604e55700415bc6d6fb7dd71af2cb3ffffffffffff604f557003eab73b3bbfe282243ce1ffffffffffff6050557003c1771ac9fb6b4c18e229ffffffffffff605155700399e96897690418f785257fffffffffff605255700373fc456c53bb779bf0ea9fffffffffff60535570034f9e8e490c48e67e6ab8bfffffffffff60545570032cbfd4a7adc790560b3337ffffffffff60555570030b50570f6e5d2acca94613ffffffffff6056557002eb40f9f620fda6b56c2861ffffffffff6057557002cc8340ecb0d0f520a6af58ffffffffff6058557002af09481380a0a35cf1ba02ffffffffff605955700292c5bdd3b92ec810287b1b3fffffffff605a55700277abdcdab07d5a77ac6d6b9fffffffff605b5570025daf6654b1eaa55fd64df5efffffffff605c55700244c49c648baa98192dce88b7ffffffff605d5570022ce03cd5619a311b2471268bffffffff605e55700215f77c045fbe885654a44a0fffffffff605f556001600160811b036060557001eaefdbdaaee7421fc4d3ede5ffffffff6061557001d6bd8b2eb257df7e8ca57b09bfffffff6062557001c35fedd14b861eb0443f7f133fffffff6063557001b0ce43b322bcde4a56e8ada5afffffff60645570019f0028ec1fff007f5a195a39dfffffff60655570018ded91f0e72ee74f49b15ba527ffffff60665570017d8ec7f04136f4e5615fd41a63ffffff60675570016ddc6556cdb84bdc8d12d22e6fffffff60685570015ecf52776a1155b5bd8395814f7fffff60695570015060c256cb23b3b3cc3754cf40ffffff606a557001428a2f98d728ae223ddab715be3fffff606b5570013545598e5c23276ccf0ede68034fffff606c557001288c4161ce1d6f54b7f61081194fffff606d5570011c592761c666aa641d5a01a40f17ffff606e55700110a688680a7530515f3e6e6cfdcdffff606f557001056f1b5bedf75c6bcb2ce8aed428ffff6070556ffaadceceeff8a0890f3875f008277fff6071556ff05dc6b27edad306388a600f6ba0bfff6072556fe67a5a25da41063de1495d5b18cdbfff6073556fdcff115b14eedde6fc3aa5353f2e4fff6074556fd3e7a3924312399f9aae2e0f868f8fff6075556fcb2ff529eb71e41582cccd5a1ee26fff6076556fc2d415c3db974ab32a51840c0b67edff6077556fbad03e7d883f69ad5b0a186184e06bff6078556fb320d03b2c343d4829abd6075f0cc5ff6079556fabc25204e02828d73c6e80bcdb1a95bf607a556fa4b16f74ee4bb2040a1ec6c15fbbf2df607b556f9deaf736ac1f569deb1b5ae3f36c130f607c556f976bd9952c7aa957f5937d790ef65037607d556f9131271922eaa6064b73a22d0bd4f2bf607e556f8b380f3558668c46c91c49a2f8e967b9607f556f857ddf0117efa215952912839f6473e66080558282828282620007c5620007bf62000821565b62000825565b8151620007da9060869060208501906200095e565b508051620007f09060879060208401906200095e565b505050608a819055608854620008159033906200080f90600162000b7a565b62000877565b50505050505062000c05565b3390565b608180546001600160a01b038381166001600160a01b0319831681179093556040519116919082907f8be0079c531659141344cd1fd0a4f28419497f9722a3daafe3b4186f6b6457e090600090a35050565b6001600160a01b038216620008a95760405162461bcd60e51b8152600401620008a09062000b1f565b60405180910390fd5b620008b76000838362000959565b8060856000828254620008cb919062000b5f565b90915550506001600160a01b03821660009081526083602052604081208054839290620008fa90849062000b5f565b90915550506040516001600160a01b038316906000907fddf252ad1be2c89b69c2b068fc378daa952ba7f163c4a11628f55a4df523b3ef906200093f90859062000b56565b60405180910390a3620009556000838362000959565b5050565b505050565b8280546200096c9062000b9c565b90600052602060002090601f016020900481019282620009905760008555620009db565b82601f10620009ab57805160ff1916838001178555620009db565b82800160010185558215620009db579182015b82811115620009db578251825591602001919060010190620009be565b50620009e9929150620009ed565b5090565b5b80821115620009e95760008155600101620009ee565b600082601f83011262000a15578081fd5b81516001600160401b038082111562000a325762000a3262000bef565b6040516020601f8401601f191682018101838111838210171562000a5a5762000a5a62000bef565b604052838252858401810187101562000a71578485fd5b8492505b8383101562000a94578583018101518284018201529182019162000a75565b8383111562000aa557848185840101525b5095945050505050565b60008060006060848603121562000ac4578283fd5b83516001600160401b038082111562000adb578485fd5b62000ae98783880162000a04565b9450602086015191508082111562000aff578384fd5b5062000b0e8682870162000a04565b925050604084015190509250925092565b6020808252601f908201527f45524332303a206d696e7420746f20746865207a65726f206164647265737300604082015260600190565b90815260200190565b6000821982111562000b755762000b7562000bd9565b500190565b600081600019048311821515161562000b975762000b9762000bd9565b500290565b60028104600182168062000bb157607f821691505b6020821081141562000bd357634e487b7160e01b600052602260045260246000fd5b50919050565b634e487b7160e01b600052601160045260246000fd5b634e487b7160e01b600052604160045260246000fd5b612dcd8062000c156000396000f3fe6080604052600436106101855760003560e01c80636d6f1e01116100d15780639a4f318b1161008a578063d2fa635e11610064578063d2fa635e14610418578063dd62ed3e14610438578063f2fde38b14610458578063f51e181a1461047857610194565b80639a4f318b146103b8578063a457c2d7146103d8578063a9059cbb146103f857610194565b80636d6f1e011461031757806370a0823114610337578063715018a6146103575780638da5cb5b1461036c57806395d89b411461038e57806396365d44146103a357610194565b806329a00e7c1161013e5780633de39c11116101185780633de39c11146102ad57806342966c68146102c257806349f9b0f7146102e257806354fd4d501461030257610194565b806329a00e7c1461024b578063313ce5671461026b578063395093511461028d57610194565b806306fdde031461019c578063095ea7b3146101c75780630c7d5cd8146101f45780631249c58b1461019457806318160ddd1461021657806323b872dd1461022b57610194565b366101945761019261048d565b005b61019261048d565b3480156101a857600080fd5b506101b16104c2565b6040516101be9190612751565b60405180910390f35b3480156101d357600080fd5b506101e76101e23660046126ab565b610554565b6040516101be9190612746565b34801561020057600080fd5b50610209610576565b6040516101be9190612c14565b34801561022257600080fd5b5061020961057c565b34801561023757600080fd5b506101e7610246366004612670565b610582565b34801561025757600080fd5b506102096102663660046126ec565b6105b0565b34801561027757600080fd5b5061028061067b565b6040516101be9190612c2b565b34801561029957600080fd5b506101e76102a83660046126ab565b610680565b3480156102b957600080fd5b506102096106cc565b3480156102ce57600080fd5b506101926102dd3660046126d4565b6106d2565b3480156102ee57600080fd5b506102096102fd3660046126ec565b610712565b34801561030e57600080fd5b506101b16107ef565b34801561032357600080fd5b506102096103323660046126d4565b61087d565b34801561034357600080fd5b50610209610352366004612624565b61089e565b34801561036357600080fd5b506101926108b9565b34801561037857600080fd5b50610381610904565b6040516101be9190612732565b34801561039a57600080fd5b506101b1610913565b3480156103af57600080fd5b50610209610922565b3480156103c457600080fd5b506102096103d33660046126d4565b610928565b3480156103e457600080fd5b506101e76103f33660046126ab565b610941565b34801561040457600080fd5b506101e76104133660046126ab565b6109a2565b34801561042457600080fd5b506101e76104333660046126d4565b6109ba565b34801561044457600080fd5b5061020961045336600461263e565b610a04565b34801561046457600080fd5b50610192610473366004612624565b610a2f565b34801561048457600080fd5b50610209610a9d565b600034116104b65760405162461bcd60e51b81526004016104ad90612ae6565b60405180910390fd5b6104bf34610aa3565b50565b6060608680546104d190612d22565b80601f01602080910402602001604051908101604052809291908181526020018280546104fd90612d22565b801561054a5780601f1061051f5761010080835404028352916020019161054a565b820191906000526020600020905b81548152906001019060200180831161052d57829003601f168201915b5050505050905090565b60008061055f610b54565b905061056c818585610b58565b5060019392505050565b608a5481565b60855490565b60008061058d610b54565b905061059a858285610c0c565b6105a5858585610c56565b506001949350505050565b600080851180156105c15750600084115b80156105d3575060008363ffffffff16115b80156105e85750620f424063ffffffff841611155b6105f157600080fd5b816105fe57506000610673565b63ffffffff8316620f4240141561062a576106238461061d8785610d7a565b90610d8d565b9050610673565b600080806106388588610d99565b9050610649818888620f4240610da5565b9093509150600060ff831661065e8a86610d7a565b901c905061066c8982612ccb565b9450505050505b949350505050565b601290565b60008061068b610b54565b6001600160a01b0380821660009081526084602090815260408083209389168352929052205490915061056c90829086906106c7908790612c39565b610b58565b60825481565b60006106dd82610ec3565b604051909150339082156108fc029083906000818181858888f1935050505015801561070d573d6000803e3d6000fd5b505050565b600080851180156107235750600084115b8015610735575060008363ffffffff16115b801561074a5750620f424063ffffffff841611155b80156107565750848211155b61075f57600080fd5b8161076c57506000610673565b8482141561077b575082610673565b63ffffffff8316620f4240141561079a576106238561061d8685610d7a565b600080806107a88589612ccb565b90506107b98882620f424089610da5565b909350915060006107ca8885610d7a565b905060ff831688901b6107e18561061d8484610f93565b9a9950505050505050505050565b600080546107fc90612d22565b80601f016020809104026020016040519081016040528092919081815260200182805461082890612d22565b80156108755780601f1061084a57610100808354040283529160200191610875565b820191906000526020600020905b81548152906001019060200180831161085857829003601f168201915b505050505081565b600061089661088a61057c565b608954608a5485610712565b90505b919050565b6001600160a01b031660009081526083602052604090205490565b6108c1610b54565b6001600160a01b03166108d2610904565b6001600160a01b0316146108f85760405162461bcd60e51b81526004016104ad906129f4565b6109026000610f9f565b565b6081546001600160a01b031690565b6060608780546104d190612d22565b60895481565b600061089661093561057c565b608954608a54856105b0565b60008061094c610b54565b6001600160a01b03808216600090815260846020908152604080832093891683529290522054909150838110156109955760405162461bcd60e51b81526004016104ad90612b98565b6105a58286868403610b58565b6000806109ad610b54565b905061056c818585610c56565b60006109c4610b54565b6001600160a01b03166109d5610904565b6001600160a01b0316146109fb5760405162461bcd60e51b81526004016104ad906129f4565b50608255600190565b6001600160a01b03918216600090815260846020908152604080832093909416825291909152205490565b610a37610b54565b6001600160a01b0316610a48610904565b6001600160a01b031614610a6e5760405162461bcd60e51b81526004016104ad906129f4565b6001600160a01b038116610a945760405162461bcd60e51b81526004016104ad90612829565b6104bf81610f9f565b60885481565b60006082543a1115610ac75760405162461bcd60e51b81526004016104ad9061292e565b8160008111610ae85760405162461bcd60e51b81526004016104ad90612b61565b6000610af384610928565b9050610aff3382610ff1565b608954610b0c9085610d99565b60895560405133907f65ab8b57af027ad387b3f608b0745de61b7dc81d07be6ded03736db32fe46bd990610b439084908890612c1d565b60405180910390a291505b50919050565b3390565b6001600160a01b038316610b7e5760405162461bcd60e51b81526004016104ad90612b1d565b6001600160a01b038216610ba45760405162461bcd60e51b81526004016104ad9061286f565b6001600160a01b0380841660008181526084602090815260408083209487168084529490915290819020849055517f8c5be1e5ebec7d5bd14f71427d1e84f3dd0314c0f7b2291e5b200ac8c7c3b92590610bff908590612c14565b60405180910390a3505050565b6000610c188484610a04565b90506000198114610c505781811015610c435760405162461bcd60e51b81526004016104ad906128b1565b610c508484848403610b58565b50505050565b6001600160a01b038316610c7c5760405162461bcd60e51b81526004016104ad90612aa1565b6001600160a01b038216610ca25760405162461bcd60e51b81526004016104ad906127a4565b610cad83838361070d565b6001600160a01b03831660009081526083602052604090205481811015610ce65760405162461bcd60e51b81526004016104ad906128e8565b6001600160a01b03808516600090815260836020526040808220858503905591851681529081208054849290610d1d908490612c39565b92505081905550826001600160a01b0316846001600160a01b03167fddf252ad1be2c89b69c2b068fc378daa952ba7f163c4a11628f55a4df523b3ef84604051610d679190612c14565b60405180910390a3610c5084848461070d565b6000610d868284612cac565b9392505050565b6000610d868284612c76565b6000610d868284612c39565b600080600160811b8610610dc957634e487b7160e01b600052600160045260246000fd5b84861015610de95760405162461bcd60e51b81526004016104ad90612a29565b60008086610dfb6001607f1b8a612cac565b610e059190612c76565b905070015bf0a8b1457695355fb8ac404e7a79e3811015610e3057610e29816110bd565b9150610e3c565b610e3981611636565b91505b60008563ffffffff168763ffffffff1684610e579190612cac565b610e619190612c76565b9050600160831b811015610e8657610e7881611725565b607f94509450505050610eba565b6000610e9182611d50565b9050610ead610ea182607f612ce2565b60ff1683901c82611e46565b95509350610eba92505050565b94509492505050565b60006082543a1115610ee75760405162461bcd60e51b81526004016104ad9061292e565b8160008111610f085760405162461bcd60e51b81526004016104ad90612b61565b80610f123361089e565b1015610f305760405162461bcd60e51b81526004016104ad906129a9565b6000610f3b8461087d565b608954909150610f4b9082610f93565b608955610f5833856124ad565b336001600160a01b03167f14feb1b32dbb3ebf172a72bc6b201cb3ddcd8dd148da8b8ac41207f2d69bdd328583604051610b43929190612c1d565b6000610d868284612ccb565b608180546001600160a01b038381166001600160a01b0319831681179093556040519116919082907f8be0079c531659141344cd1fd0a4f28419497f9722a3daafe3b4186f6b6457e090600090a35050565b6001600160a01b0382166110175760405162461bcd60e51b81526004016104ad90612bdd565b6110236000838361070d565b80608560008282546110359190612c39565b90915550506001600160a01b03821660009081526083602052604081208054839290611062908490612c39565b90915550506040516001600160a01b038316906000907fddf252ad1be2c89b69c2b068fc378daa952ba7f163c4a11628f55a4df523b3ef906110a5908590612c14565b60405180910390a36110b96000838361070d565b5050565b6000808080806fd3094c70f034de4b96ff7d5b6f99fcd88610611116576110e86001607e1b85612c39565b93506fd3094c70f034de4b96ff7d5b6f99fcd86111096001607f1b88612cac565b6111139190612c76565b95505b6fa45af1e1f40c333b3de1db4dd55f29a786106111695761113b6001607d1b85612c39565b93506fa45af1e1f40c333b3de1db4dd55f29a761115c6001607f1b88612cac565b6111669190612c76565b95505b6f910b022db7ae67ce76b441c27035c6a186106111bc5761118e6001607c1b85612c39565b93506f910b022db7ae67ce76b441c27035c6a16111af6001607f1b88612cac565b6111b99190612c76565b95505b6f88415abbe9a76bead8d00cf112e4d4a8861061120f576111e16001607b1b85612c39565b93506f88415abbe9a76bead8d00cf112e4d4a86112026001607f1b88612cac565b61120c9190612c76565b95505b6f84102b00893f64c705e841d5d4064bd38610611262576112346001607a1b85612c39565b93506f84102b00893f64c705e841d5d4064bd36112556001607f1b88612cac565b61125f9190612c76565b95505b6f8204055aaef1c8bd5c3259f4822735a286106112b557611287600160791b85612c39565b93506f8204055aaef1c8bd5c3259f4822735a26112a86001607f1b88612cac565b6112b29190612c76565b95505b6f810100ab00222d861931c15e39b44e998610611308576112da600160781b85612c39565b93506f810100ab00222d861931c15e39b44e996112fb6001607f1b88612cac565b6113059190612c76565b95505b6f808040155aabbbe9451521693554f733861061135b5761132d600160771b85612c39565b93506f808040155aabbbe9451521693554f73361134e6001607f1b88612cac565b6113589190612c76565b95505b6113696001607f1b87612ccb565b92508291506001607f1b61137d8380612cac565b6113879190612c76565b9050600160801b6113988482612ccb565b6113a29084612cac565b6113ac9190612c76565b6113b69085612c39565b93506001607f1b6113c78284612cac565b6113d19190612c76565b9150600160811b6113f2846faaaaaaaaaaaaaaaaaaaaaaaaaaaaaaaa612ccb565b6113fc9084612cac565b6114069190612c76565b6114109085612c39565b93506001607f1b6114218284612cac565b61142b9190612c76565b9150600360801b61144c846f99999999999999999999999999999999612ccb565b6114569084612cac565b6114609190612c76565b61146a9085612c39565b93506001607f1b61147b8284612cac565b6114859190612c76565b9150600160821b6114a6846f92492492492492492492492492492492612ccb565b6114b09084612cac565b6114ba9190612c76565b6114c49085612c39565b93506001607f1b6114d58284612cac565b6114df9190612c76565b9150600560801b611500846f8e38e38e38e38e38e38e38e38e38e38e612ccb565b61150a9084612cac565b6115149190612c76565b61151e9085612c39565b93506001607f1b61152f8284612cac565b6115399190612c76565b9150600360811b61155a846f8ba2e8ba2e8ba2e8ba2e8ba2e8ba2e8b612ccb565b6115649084612cac565b61156e9190612c76565b6115789085612c39565b93506001607f1b6115898284612cac565b6115939190612c76565b9150600760801b6115b4846f89d89d89d89d89d89d89d89d89d89d89612ccb565b6115be9084612cac565b6115c89190612c76565b6115d29085612c39565b93506001607f1b6115e38284612cac565b6115ed9190612c76565b9150600160831b61160e846f88888888888888888888888888888888612ccb565b6116189084612cac565b6116229190612c76565b61162c9085612c39565b9695505050505050565b60008082600160801b811061167b57600061165d6116586001607f1b84612c76565b61259e565b60ff811692831c92909150611677906001607f1b90612cac565b9250505b6001607f1b8111156116f057607f5b60ff8116156116ee576001607f1b6116a28380612cac565b6116ac9190612c76565b9150600160801b82106116de57600191821c916116c99082612ce2565b60ff166001901b836116db9190612c39565b92505b6116e781612d05565b905061168a565b505b6f05b9de1d10bf4103d647b0955897ba8061171b6f03f80fe03f80fe03f80fe03f80fe03f884612cac565b6106739190612c76565b60008080806117386001607c1b86612d57565b91508190506001607f1b61174c8280612cac565b6117569190612c76565b905061176a816710e1b3be415a0000612cac565b6117749084612c39565b92506001607f1b6117858383612cac565b61178f9190612c76565b90506117a3816705a0913f6b1e0000612cac565b6117ad9084612c39565b92506001607f1b6117be8383612cac565b6117c89190612c76565b90506117dc81670168244fdac78000612cac565b6117e69084612c39565b92506001607f1b6117f78383612cac565b6118019190612c76565b905061181481664807432bc18000612cac565b61181e9084612c39565b92506001607f1b61182f8383612cac565b6118399190612c76565b905061184c81660c0135dca04000612cac565b6118569084612c39565b92506001607f1b6118678383612cac565b6118719190612c76565b9050611884816601b707b1cdc000612cac565b61188e9084612c39565b92506001607f1b61189f8383612cac565b6118a99190612c76565b90506118bb816536e0f639b800612cac565b6118c59084612c39565b92506001607f1b6118d68383612cac565b6118e09190612c76565b90506118f281650618fee9f800612cac565b6118fc9084612c39565b92506001607f1b61190d8383612cac565b6119179190612c76565b905061192881649c197dcc00612cac565b6119329084612c39565b92506001607f1b6119438383612cac565b61194d9190612c76565b905061195e81640e30dce400612cac565b6119689084612c39565b92506001607f1b6119798383612cac565b6119839190612c76565b90506119948164012ebd1300612cac565b61199e9084612c39565b92506001607f1b6119af8383612cac565b6119b99190612c76565b90506119c9816317499f00612cac565b6119d39084612c39565b92506001607f1b6119e48383612cac565b6119ee9190612c76565b90506119fe816301a9d480612cac565b611a089084612c39565b92506001607f1b611a198383612cac565b611a239190612c76565b9050611a3281621c6380612cac565b611a3c9084612c39565b92506001607f1b611a4d8383612cac565b611a579190612c76565b9050611a66816201c638612cac565b611a709084612c39565b92506001607f1b611a818383612cac565b611a8b9190612c76565b9050611a9981611ab8612cac565b611aa39084612c39565b92506001607f1b611ab48383612cac565b611abe9190612c76565b9050611acc8161017c612cac565b611ad69084612c39565b92506001607f1b611ae78383612cac565b611af19190612c76565b9050611afe816014612cac565b611b089084612c39565b92506001607f1b611b198383612cac565b611b239190612c76565b9050611b30816001612cac565b611b3a9084612c39565b92506001607f1b82611b546721c3677c82b4000086612c76565b611b5e9190612c39565b611b689190612c39565b92506001607c1b851615611bb05770018ebef9eac820ae8682b9793ac6d1e776611ba3847001c3d6a24ed82218787d624d3e5eba95f9612cac565b611bad9190612c76565b92505b6001607d1b851615611bf6577001368b2fc6f9609fe7aceb46aa619baed4611be98470018ebef9eac820ae8682b9793ac6d1e778612cac565b611bf39190612c76565b92505b6001607e1b851615611c3b576fbc5ab1b16779be3575bd8f0520a9f21f611c2e847001368b2fc6f9609fe7aceb46aa619baed5612cac565b611c389190612c76565b92505b6001607f1b851615611c7f576f454aaa8efe072e7f6ddbab84b40a55c9611c72846fbc5ab1b16779be3575bd8f0520a9f21e612cac565b611c7c9190612c76565b92505b600160801b851615611cc3576f0960aadc109e7a3bf4578099615711ea611cb6846f454aaa8efe072e7f6ddbab84b40a55c5612cac565b611cc09190612c76565b92505b600160811b851615611d06576e2bf84208204f5977f9a8cf01fdce3d611cf9846f0960aadc109e7a3bf4578099615711d7612cac565b611d039190612c76565b92505b600160821b851615611d47576d03c6ab775dd0b95b4cbee7e65d11611d3a846e2bf84208204f5977f9a8cf01fdc307612cac565b611d449190612c76565b92505b50909392505050565b60006020607f5b60ff8116611d66836001612c51565b60ff161015611dc75760006002611d7d8385612c51565b611d879190612c8a565b90508460018260ff1660808110611dae57634e487b7160e01b600052603260045260246000fd5b015410611dbd57809250611dc1565b8091505b50611d57565b8360018260ff1660808110611dec57634e487b7160e01b600052603260045260246000fd5b015410611dfc5791506108999050565b8360018360ff1660808110611e2157634e487b7160e01b600052603260045260246000fd5b015410611e3057509050610899565b634e487b7160e01b600052600160045260246000fd5b6000828160ff8416611e588380612cac565b901c9150611e76826f03442c4e6074a82f1797f72ac0000000612cac565b611e809082612c39565b905060ff8416611e908684612cac565b901c9150611eae826f0116b96f757c380fb287fd0e40000000612cac565b611eb89082612c39565b905060ff8416611ec88684612cac565b901c9150611ee5826e45ae5bdd5f0e03eca1ff4390000000612cac565b611eef9082612c39565b905060ff8416611eff8684612cac565b901c9150611f1c826e0defabf91302cd95b9ffda50000000612cac565b611f269082612c39565b905060ff8416611f368684612cac565b901c9150611f53826e02529ca9832b22439efff9b8000000612cac565b611f5d9082612c39565b905060ff8416611f6d8684612cac565b901c9150611f89826d54f1cf12bd04e516b6da88000000612cac565b611f939082612c39565b905060ff8416611fa38684612cac565b901c9150611fbf826d0a9e39e257a09ca2d6db51000000612cac565b611fc99082612c39565b905060ff8416611fd98684612cac565b901c9150611ff5826d012e066e7b839fa050c309000000612cac565b611fff9082612c39565b905060ff841661200f8684612cac565b901c915061202a826c1e33d7d926c329a1ad1a800000612cac565b6120349082612c39565b905060ff84166120448684612cac565b901c915061205f826c02bee513bdb4a6b19b5f800000612cac565b6120699082612c39565b905060ff84166120798684612cac565b901c9150612093826b3a9316fa79b88eccf2a00000612cac565b61209d9082612c39565b905060ff84166120ad8684612cac565b901c91506120c7826b048177ebe1fa812375200000612cac565b6120d19082612c39565b905060ff84166120e18684612cac565b901c91506120fa826a5263fe90242dcbacf00000612cac565b6121049082612c39565b905060ff84166121148684612cac565b901c915061212d826a057e22099c030d94100000612cac565b6121379082612c39565b905060ff84166121478684612cac565b901c915061215f826957e22099c030d9410000612cac565b6121699082612c39565b905060ff84166121798684612cac565b901c91506121918269052b6b54569976310000612cac565b61219b9082612c39565b905060ff84166121ab8684612cac565b901c91506121c282684985f67696bf748000612cac565b6121cc9082612c39565b905060ff84166121dc8684612cac565b901c91506121f3826803dea12ea99e498000612cac565b6121fd9082612c39565b905060ff841661220d8684612cac565b901c9150612223826731880f2214b6e000612cac565b61222d9082612c39565b905060ff841661223d8684612cac565b901c91506122538267025bcff56eb36000612cac565b61225d9082612c39565b905060ff841661226d8684612cac565b901c915061228282661b722e10ab1000612cac565b61228c9082612c39565b905060ff841661229c8684612cac565b901c91506122b1826601317c70077000612cac565b6122bb9082612c39565b905060ff84166122cb8684612cac565b901c91506122df82650cba84aafa00612cac565b6122e99082612c39565b905060ff84166122f98684612cac565b901c915061230c826482573a0a00612cac565b6123169082612c39565b905060ff84166123268684612cac565b901c9150612339826405035ad900612cac565b6123439082612c39565b905060ff84166123538684612cac565b901c915061236582632f881b00612cac565b61236f9082612c39565b905060ff841661237f8684612cac565b901c9150612391826301b29340612cac565b61239b9082612c39565b905060ff84166123ab8684612cac565b901c91506123bc82620efc40612cac565b6123c69082612c39565b905060ff84166123d68684612cac565b901c91506123e682617fe0612cac565b6123f09082612c39565b905060ff84166124008684612cac565b901c915061241082610420612cac565b61241a9082612c39565b905060ff841661242a8684612cac565b901c9150612439826021612cac565b6124439082612c39565b905060ff84166124538684612cac565b901c9150612462826001612cac565b61246c9082612c39565b9050600160ff85161b856124906f0688589cc0e9505e2f2fee558000000084612c76565b61249a9190612c39565b6124a49190612c39565b95945050505050565b6001600160a01b0382166124d35760405162461bcd60e51b81526004016104ad90612a60565b6124df8260008361070d565b6001600160a01b038216600090815260836020526040902054818110156125185760405162461bcd60e51b81526004016104ad906127e7565b6001600160a01b0383166000908152608360205260408120838303905560858054849290612547908490612ccb565b90915550506040516000906001600160a01b038516907fddf252ad1be2c89b69c2b068fc378daa952ba7f163c4a11628f55a4df523b3ef9061258a908690612c14565b60405180910390a361070d8360008461070d565b600080826101008110156125d2575b60018111156125cd57600190811c906125c69083612c51565b91506125ad565b612606565b60805b60ff81161561260457600160ff82161b82106125f9579182179160ff81169190911c905b60011c607f166125d5565b505b5092915050565b80356001600160a01b038116811461089957600080fd5b600060208284031215612635578081fd5b610d868261260d565b60008060408385031215612650578081fd5b6126598361260d565b91506126676020840161260d565b90509250929050565b600080600060608486031215612684578081fd5b61268d8461260d565b925061269b6020850161260d565b9150604084013590509250925092565b600080604083850312156126bd578182fd5b6126c68361260d565b946020939093013593505050565b6000602082840312156126e5578081fd5b5035919050565b60008060008060808587031215612701578081fd5b8435935060208501359250604085013563ffffffff81168114612722578182fd5b9396929550929360600135925050565b6001600160a01b0391909116815260200190565b901515815260200190565b6000602080835283518082850152825b8181101561277d57858101830151858201604001528201612761565b8181111561278e5783604083870101525b50601f01601f1916929092016040019392505050565b60208082526023908201527f45524332303a207472616e7366657220746f20746865207a65726f206164647260408201526265737360e81b606082015260800190565b60208082526022908201527f45524332303a206275726e20616d6f756e7420657863656564732062616c616e604082015261636560f01b606082015260800190565b60208082526026908201527f4f776e61626c653a206e6577206f776e657220697320746865207a65726f206160408201526564647265737360d01b606082015260800190565b60208082526022908201527f45524332303a20617070726f766520746f20746865207a65726f206164647265604082015261737360f01b606082015260800190565b6020808252601d908201527f45524332303a20696e73756666696369656e7420616c6c6f77616e6365000000604082015260600190565b60208082526026908201527f45524332303a207472616e7366657220616d6f756e7420657863656564732062604082015265616c616e636560d01b606082015260800190565b60208082526055908201527f4d7573742073656e6420657175616c20746f206f72206c6f776572207468616e60408201527f206d6178696d756d2067617320707269636520746f206d6974696761746520666060820152743937b73a10393ab73734b7339030ba3a30b1b5b99760591b608082015260a00190565b6020808252602b908201527f53656e64657220646f6573206e6f74206861766520656e6f75676820746f6b6560408201526a3739903a3790313ab9371760a91b606082015260800190565b6020808252818101527f4f776e61626c653a2063616c6c6572206973206e6f7420746865206f776e6572604082015260600190565b6020808252601c908201527f4261736573203c203120617265206e6f7420737570706f727465642e00000000604082015260600190565b60208082526021908201527f45524332303a206275726e2066726f6d20746865207a65726f206164647265736040820152607360f81b606082015260800190565b60208082526025908201527f45524332303a207472616e736665722066726f6d20746865207a65726f206164604082015264647265737360d81b606082015260800190565b6020808252601e908201527f4d7573742073656e6420657468657220746f2062757920746f6b656e732e0000604082015260600190565b60208082526024908201527f45524332303a20617070726f76652066726f6d20746865207a65726f206164646040820152637265737360e01b606082015260800190565b60208082526018908201527f416d6f756e74206d757374206265206e6f6e2d7a65726f210000000000000000604082015260600190565b60208082526025908201527f45524332303a2064656372656173656420616c6c6f77616e63652062656c6f77604082015264207a65726f60d81b606082015260800190565b6020808252601f908201527f45524332303a206d696e7420746f20746865207a65726f206164647265737300604082015260600190565b90815260200190565b918252602082015260400190565b60ff91909116815260200190565b60008219821115612c4c57612c4c612d6b565b500190565b600060ff821660ff84168060ff03821115612c6e57612c6e612d6b565b019392505050565b600082612c8557612c85612d81565b500490565b600060ff831680612c9d57612c9d612d81565b8060ff84160491505092915050565b6000816000190483118215151615612cc657612cc6612d6b565b500290565b600082821015612cdd57612cdd612d6b565b500390565b600060ff821660ff841680821015612cfc57612cfc612d6b565b90039392505050565b600060ff821680612d1857612d18612d6b565b6000190192915050565b600281046001821680612d3657607f821691505b60208210811415610b4e57634e487b7160e01b600052602260045260246000fd5b600082612d6657612d66612d81565b500690565b634e487b7160e01b600052601160045260246000fd5b634e487b7160e01b600052601260045260246000fdfea26469706673582212204c61158585b915defe6526b4aa570d7c4f306464d15a2f03ac60946b20bc503264736f6c63430008000033",
  "linkReferences": {},
  "deployedLinkReferences": {}
}