{
  "_format": "hh-sol-artifact-1",
  "contractName": "AllowanceCrowdsale",
  "sourceName": "contracts/crowdsale/emission/AllowanceCrowdsale.sol",
  "abi": [
    {
      "inputs": [
        {
          "internalType": "uint256",
          "name": "_rate",
          "type": "uint256"
        },
        {
          "internalType": "address",
          "name": "_wallet",
          "type": "address"
        },
        {
          "internalType": "contract ERC20",
          "name": "_token",
          "type": "address"
        },
        {
          "internalType": "address",
          "name": "_tokenWallet",
          "type": "address"
        }
      ],
      "stateMutability": "nonpayable",
      "type": "constructor"
    },
    {
      "anonymous": false,
      "inputs": [
        {
          "indexed": false,
          "internalType": "string",
          "name": "name",
          "type": "string"
        },
        {
          "indexed": false,
          "internalType": "address",
          "name": "value",
          "type": "address"
        },
        {
          "indexed": true,
          "internalType": "bool",
          "name": "status",
          "type": "bool"
        }
      ],
      "name": "DebugAddress",
      "type": "event"
    },
    {
      "anonymous": false,
      "inputs": [
        {
          "indexed": false,
          "internalType": "string",
          "name": "name",
          "type": "string"
        },
        {
          "indexed": false,
          "internalType": "string",
          "name": "value",
          "type": "string"
        },
        {
          "indexed": true,
          "internalType": "bool",
          "name": "status",
          "type": "bool"
        }
      ],
      "name": "DebugString",
      "type": "event"
    },
    {
      "anonymous": false,
      "inputs": [
        {
          "indexed": false,
          "internalType": "string",
          "name": "name",
          "type": "string"
        },
        {
          "indexed": false,
          "internalType": "uint256",
          "name": "value",
          "type": "uint256"
        },
        {
          "indexed": true,
          "internalType": "bool",
          "name": "status",
          "type": "bool"
        }
      ],
      "name": "DebugUint256",
      "type": "event"
    },
    {
      "anonymous": false,
      "inputs": [
        {
          "indexed": true,
          "internalType": "address",
          "name": "purchaser",
          "type": "address"
        },
        {
          "indexed": true,
          "internalType": "address",
          "name": "beneficiary",
          "type": "address"
        },
        {
          "indexed": false,
          "internalType": "uint256",
          "name": "value",
          "type": "uint256"
        },
        {
          "indexed": false,
          "internalType": "uint256",
          "name": "amount",
          "type": "uint256"
        }
      ],
      "name": "TokenPurchase",
      "type": "event"
    },
    {
      "stateMutability": "payable",
      "type": "fallback"
    },
    {
      "inputs": [
        {
          "internalType": "address",
          "name": "_beneficiary",
          "type": "address"
        }
      ],
      "name": "buyTokens",
      "outputs": [],
      "stateMutability": "payable",
      "type": "function"
    },
    {
      "inputs": [],
      "name": "rate",
      "outputs": [
        {
          "internalType": "uint256",
          "name": "",
          "type": "uint256"
        }
      ],
      "stateMutability": "view",
      "type": "function"
    },
    {
      "inputs": [],
      "name": "remainingTokens",
      "outputs": [
        {
          "internalType": "uint256",
          "name": "",
          "type": "uint256"
        }
      ],
      "stateMutability": "view",
      "type": "function"
    },
    {
      "inputs": [],
      "name": "token",
      "outputs": [
        {
          "internalType": "contract ERC20",
          "name": "",
          "type": "address"
        }
      ],
      "stateMutability": "view",
      "type": "function"
    },
    {
      "inputs": [],
      "name": "tokenWallet",
      "outputs": [
        {
          "internalType": "address",
          "name": "",
          "type": "address"
        }
      ],
      "stateMutability": "view",
      "type": "function"
    },
    {
      "inputs": [],
      "name": "wallet",
      "outputs": [
        {
          "internalType": "address",
          "name": "",
          "type": "address"
        }
      ],
      "stateMutability": "view",
      "type": "function"
    },
    {
      "inputs": [],
      "name": "weiRaised",
      "outputs": [
        {
          "internalType": "uint256",
          "name": "",
          "type": "uint256"
        }
      ],
      "stateMutability": "view",
      "type": "function"
    },
    {
      "stateMutability": "payable",
      "type": "receive"
    }
  ],
  "bytecode": "0x608060405234801561001057600080fd5b50604051610aea380380610aea83398101604081905261002f9161013f565b8383836000831115157f9f83a56b6b62f46d9c0e9818a1661f72ca56ba06cff353d059436e5832127d84846040516100679190610193565b60405180910390a26040516001600160a01b038316151590600080516020610aca8339815191529061009a908590610208565b60405180910390a26040516001600160a01b038216151590600080516020610aca833981519152906100cd9084906101c0565b60405180910390a2600292909255600180546001600160a01b03199081166001600160a01b03938416179091556000805490911692821692909217909155811661011657600080fd5b600480546001600160a01b0319166001600160a01b039290921691909117905550610259915050565b60008060008060808587031215610154578384fd5b84519350602085015161016681610241565b604086015190935061017781610241565b606086015190925061018881610241565b939692955090935050565b6040808252600b908201526a4e756d6265722f5261746560a81b6060820152602081019190915260800190565b60408082526016908201527f416464726573732f6164647265737328746f6b656e290000000000000000000060608201526001600160a01b0391909116602082015260800190565b6040808252600e908201526d1059191c995cdccbd5d85b1b195d60921b60608201526001600160a01b0391909116602082015260800190565b6001600160a01b038116811461025657600080fd5b50565b610862806102686000396000f3fe6080604052600436106100745760003560e01c8063bf5839031161004e578063bf583903146100ef578063bff99c6c14610104578063ec8ac4d814610119578063fc0c546a1461012c57610084565b80632c4e722e1461008d5780634042b66f146100b8578063521eb273146100cd57610084565b366100845761008233610141565b005b61008233610141565b34801561009957600080fd5b506100a26103da565b6040516100af91906107c8565b60405180910390f35b3480156100c457600080fd5b506100a26103e0565b3480156100d957600080fd5b506100e26103e6565b6040516100af91906106ac565b3480156100fb57600080fd5b506100a26103f5565b34801561011057600080fd5b506100e2610481565b61008261012736600461064d565b610141565b34801561013857600080fd5b506100e2610490565b3461014c828261049f565b600061015782610541565b6000546040516370a0823160e01b815291925082916001600160a01b03909116906370a082319061018c9030906004016106ac565b60206040518083038186803b1580156101a457600080fd5b505afa1580156101b8573d6000803e3d6000fd5b505050506040513d601f19601f820116820180604052508101906101dc9190610694565b6000546040516370a0823160e01b81529290911015917f9f83a56b6b62f46d9c0e9818a1661f72ca56ba06cff353d059436e5832127d84916001600160a01b0316906370a08231906102329030906004016106ac565b60206040518083038186803b15801561024a57600080fd5b505afa15801561025e573d6000803e3d6000fd5b505050506040513d601f19601f820116820180604052508101906102829190610694565b60405161028f919061072a565b60405180910390a26000546040516370a0823160e01b815282916001600160a01b0316906370a08231906102c79030906004016106ac565b60206040518083038186803b1580156102df57600080fd5b505afa1580156102f3573d6000803e3d6000fd5b505050506040513d601f19601f820116820180604052508101906103179190610694565b101515157f9f83a56b6b62f46d9c0e9818a1661f72ca56ba06cff353d059436e5832127d848260405161034a9190610799565b60405180910390a260035461035f908361055e565b60035561036c8382610571565b826001600160a01b0316336001600160a01b03167f623b3804fa71d67900d064613da8f94b9617215ee90799290593e1745087ad1884846040516103b19291906107d1565b60405180910390a36103c3838361053d565b6103cb61057b565b6103d5838361053d565b505050565b60025481565b60035481565b6001546001600160a01b031681565b6000805460048054604051636eb1769f60e11b81526001600160a01b039384169363dd62ed3e9361042c93909116913091016106c0565b60206040518083038186803b15801561044457600080fd5b505afa158015610458573d6000803e3d6000fd5b505050506040513d601f19601f8201168201806040525081019061047c9190610694565b905090565b6004546001600160a01b031681565b6000546001600160a01b031681565b6040516001600160a01b0383161515907facc1fbd861d476a3b70596fb49d0ebb80e2e5d077cdde5d17d8abcd924ef8d20906104dc908590610762565b60405180910390a2604051811515907f9f83a56b6b62f46d9c0e9818a1661f72ca56ba06cff353d059436e5832127d84906105189084906106fe565b60405180910390a26001600160a01b03821661053357600080fd5b8061053d57600080fd5b5050565b6000610558600254836105b790919063ffffffff16565b92915050565b600061056a82846107df565b9392505050565b61053d82826105c3565b6001546040516001600160a01b03909116903480156108fc02916000818181858888f193505050501580156105b4573d6000803e3d6000fd5b50565b600061056a82846107f7565b600054600480546040516323b872dd60e01b81526001600160a01b03938416936323b872dd936105fb939091169187918791016106da565b602060405180830381600087803b15801561061557600080fd5b505af1158015610629573d6000803e3d6000fd5b505050506040513d601f19601f820116820180604052508101906103d59190610674565b60006020828403121561065e578081fd5b81356001600160a01b038116811461056a578182fd5b600060208284031215610685578081fd5b8151801515811461056a578182fd5b6000602082840312156106a5578081fd5b5051919050565b6001600160a01b0391909116815260200190565b6001600160a01b0392831681529116602082015260400190565b6001600160a01b039384168152919092166020820152604081019190915260600190565b6040808252600a908201526917ddd95a505b5bdd5b9d60b21b6060820152602081019190915260800190565b604080825260169082015275273ab6b132b917ba37b5b2b7173130b630b731b2a7b360511b6060820152602081019190915260800190565b6040808252600c908201526b5f62656e656669636961727960a01b60608201526001600160a01b0391909116602082015260800190565b6040808252600d908201526c4e756d6265722f746f6b656e7360981b6060820152602081019190915260800190565b90815260200190565b918252602082015260400190565b600082198211156107f2576107f2610816565b500190565b600081600019048311821515161561081157610811610816565b500290565b634e487b7160e01b600052601160045260246000fdfea2646970667358221220401d02f5888512953099bcfea1240b7cd38a8b371f4e7b306d370f8700cee55764736f6c63430008000033acc1fbd861d476a3b70596fb49d0ebb80e2e5d077cdde5d17d8abcd924ef8d20",
  "linkReferences": {},
  "deployedLinkReferences": {}
}