{
  "_format": "hh-sol-artifact-1",
  "contractName": "MaxGasPrice",
  "sourceName": "contracts/MaxGasPrice.sol",
  "abi": [
    {
      "anonymous": false,
      "inputs": [
        {
          "indexed": true,
          "internalType": "address",
          "name": "previousOwner",
          "type": "address"
        },
        {
          "indexed": true,
          "internalType": "address",
          "name": "newOwner",
          "type": "address"
        }
      ],
      "name": "OwnershipTransferred",
      "type": "event"
    },
    {
      "inputs": [],
      "name": "maxGasPrice",
      "outputs": [
        {
          "internalType": "uint256",
          "name": "",
          "type": "uint256"
        }
      ],
      "stateMutability": "view",
      "type": "function"
    },
    {
      "inputs": [],
      "name": "owner",
      "outputs": [
        {
          "internalType": "address",
          "name": "",
          "type": "address"
        }
      ],
      "stateMutability": "view",
      "type": "function"
    },
    {
      "inputs": [],
      "name": "renounceOwnership",
      "outputs": [],
      "stateMutability": "nonpayable",
      "type": "function"
    },
    {
      "inputs": [
        {
          "internalType": "uint256",
          "name": "newMax",
          "type": "uint256"
        }
      ],
      "name": "setMaxGasPrice",
      "outputs": [
        {
          "internalType": "bool",
          "name": "",
          "type": "bool"
        }
      ],
      "stateMutability": "nonpayable",
      "type": "function"
    },
    {
      "inputs": [
        {
          "internalType": "address",
          "name": "newOwner",
          "type": "address"
        }
      ],
      "name": "transferOwnership",
      "outputs": [],
      "stateMutability": "nonpayable",
      "type": "function"
    }
  ],
  "bytecode": "0x6080604052670de0b6b3a764000060015534801561001c57600080fd5b5061002d610028610032565b610036565b610086565b3390565b600080546001600160a01b038381166001600160a01b0319831681178455604051919092169283917f8be0079c531659141344cd1fd0a4f28419497f9722a3daafe3b4186f6b6457e09190a35050565b610363806100956000396000f3fe608060405234801561001057600080fd5b50600436106100575760003560e01c80633de39c111461005c578063715018a61461007a5780638da5cb5b14610084578063d2fa635e14610099578063f2fde38b146100b9575b600080fd5b6100646100cc565b6040516100719190610324565b60405180910390f35b6100826100d2565b005b61008c610126565b604051610071919061028a565b6100ac6100a7366004610272565b610135565b604051610071919061029e565b6100826100c7366004610244565b61017f565b60015481565b6100da6101f0565b6001600160a01b03166100eb610126565b6001600160a01b03161461011a5760405162461bcd60e51b8152600401610111906102ef565b60405180910390fd5b61012460006101f4565b565b6000546001600160a01b031690565b600061013f6101f0565b6001600160a01b0316610150610126565b6001600160a01b0316146101765760405162461bcd60e51b8152600401610111906102ef565b50600190815590565b6101876101f0565b6001600160a01b0316610198610126565b6001600160a01b0316146101be5760405162461bcd60e51b8152600401610111906102ef565b6001600160a01b0381166101e45760405162461bcd60e51b8152600401610111906102a9565b6101ed816101f4565b50565b3390565b600080546001600160a01b038381166001600160a01b0319831681178455604051919092169283917f8be0079c531659141344cd1fd0a4f28419497f9722a3daafe3b4186f6b6457e09190a35050565b600060208284031215610255578081fd5b81356001600160a01b038116811461026b578182fd5b9392505050565b600060208284031215610283578081fd5b5035919050565b6001600160a01b0391909116815260200190565b901515815260200190565b60208082526026908201527f4f776e61626c653a206e6577206f776e657220697320746865207a65726f206160408201526564647265737360d01b606082015260800190565b6020808252818101527f4f776e61626c653a2063616c6c6572206973206e6f7420746865206f776e6572604082015260600190565b9081526020019056fea26469706673582212201ab5b96d01e44d19d2139b122b77e6b6cd07b2b8f87e682479a7f64e767491cb64736f6c63430008000033",
  "linkReferences": {},
  "deployedLinkReferences": {}
}