{
  "_format": "hh-sol-artifact-1",
  "contractName": "FixedAmountCrowdsale",
  "sourceName": "contracts/crowdsale/validation/FixedAmountCrowdsale.sol",
  "abi": [
    {
      "inputs": [
        {
          "internalType": "uint256",
          "name": "_rate",
          "type": "uint256"
        },
        {
          "internalType": "address",
          "name": "_wallet",
          "type": "address"
        },
        {
          "internalType": "contract ERC20",
          "name": "_token",
          "type": "address"
        },
        {
          "internalType": "uint256",
          "name": "fixed_amount_",
          "type": "uint256"
        }
      ],
      "stateMutability": "nonpayable",
      "type": "constructor"
    },
    {
      "anonymous": false,
      "inputs": [
        {
          "indexed": false,
          "internalType": "string",
          "name": "name",
          "type": "string"
        },
        {
          "indexed": false,
          "internalType": "address",
          "name": "value",
          "type": "address"
        },
        {
          "indexed": true,
          "internalType": "bool",
          "name": "status",
          "type": "bool"
        }
      ],
      "name": "DebugAddress",
      "type": "event"
    },
    {
      "anonymous": false,
      "inputs": [
        {
          "indexed": false,
          "internalType": "string",
          "name": "name",
          "type": "string"
        },
        {
          "indexed": false,
          "internalType": "string",
          "name": "value",
          "type": "string"
        },
        {
          "indexed": true,
          "internalType": "bool",
          "name": "status",
          "type": "bool"
        }
      ],
      "name": "DebugString",
      "type": "event"
    },
    {
      "anonymous": false,
      "inputs": [
        {
          "indexed": false,
          "internalType": "string",
          "name": "name",
          "type": "string"
        },
        {
          "indexed": false,
          "internalType": "uint256",
          "name": "value",
          "type": "uint256"
        },
        {
          "indexed": true,
          "internalType": "bool",
          "name": "status",
          "type": "bool"
        }
      ],
      "name": "DebugUint256",
      "type": "event"
    },
    {
      "anonymous": false,
      "inputs": [
        {
          "indexed": true,
          "internalType": "address",
          "name": "purchaser",
          "type": "address"
        },
        {
          "indexed": true,
          "internalType": "address",
          "name": "beneficiary",
          "type": "address"
        },
        {
          "indexed": false,
          "internalType": "uint256",
          "name": "value",
          "type": "uint256"
        },
        {
          "indexed": false,
          "internalType": "uint256",
          "name": "amount",
          "type": "uint256"
        }
      ],
      "name": "TokenPurchase",
      "type": "event"
    },
    {
      "stateMutability": "payable",
      "type": "fallback"
    },
    {
      "inputs": [
        {
          "internalType": "address",
          "name": "_beneficiary",
          "type": "address"
        }
      ],
      "name": "buyTokens",
      "outputs": [],
      "stateMutability": "payable",
      "type": "function"
    },
    {
      "inputs": [],
      "name": "fixedAmount",
      "outputs": [
        {
          "internalType": "uint256",
          "name": "",
          "type": "uint256"
        }
      ],
      "stateMutability": "view",
      "type": "function"
    },
    {
      "inputs": [],
      "name": "rate",
      "outputs": [
        {
          "internalType": "uint256",
          "name": "",
          "type": "uint256"
        }
      ],
      "stateMutability": "view",
      "type": "function"
    },
    {
      "inputs": [],
      "name": "token",
      "outputs": [
        {
          "internalType": "contract ERC20",
          "name": "",
          "type": "address"
        }
      ],
      "stateMutability": "view",
      "type": "function"
    },
    {
      "inputs": [],
      "name": "wallet",
      "outputs": [
        {
          "internalType": "address",
          "name": "",
          "type": "address"
        }
      ],
      "stateMutability": "view",
      "type": "function"
    },
    {
      "inputs": [],
      "name": "weiRaised",
      "outputs": [
        {
          "internalType": "uint256",
          "name": "",
          "type": "uint256"
        }
      ],
      "stateMutability": "view",
      "type": "function"
    },
    {
      "stateMutability": "payable",
      "type": "receive"
    }
  ],
  "bytecode": "0x608060405234801561001057600080fd5b506040516109e93803806109e983398101604081905261002f9161011d565b8383836000831115157f9f83a56b6b62f46d9c0e9818a1661f72ca56ba06cff353d059436e5832127d84846040516100679190610165565b60405180910390a26040516001600160a01b0383161515906000805160206109c98339815191529061009a9085906101da565b60405180910390a26040516001600160a01b0382161515906000805160206109c9833981519152906100cd908490610192565b60405180910390a2600292909255600180546001600160a01b039283166001600160a01b031991821617909155600080549290931691161790558061011157600080fd5b6004555061022b915050565b60008060008060808587031215610132578384fd5b84519350602085015161014481610213565b604086015190935061015581610213565b6060959095015193969295505050565b6040808252600b908201526a4e756d6265722f5261746560a81b6060820152602081019190915260800190565b60408082526016908201527f416464726573732f6164647265737328746f6b656e290000000000000000000060608201526001600160a01b0391909116602082015260800190565b6040808252600e908201526d1059191c995cdccbd5d85b1b195d60921b60608201526001600160a01b0391909116602082015260800190565b6001600160a01b038116811461022857600080fd5b50565b61078f8061023a6000396000f3fe6080604052600436106100595760003560e01c80632c4e722e146100725780634042b66f1461009d578063521eb273146100b2578063ec8ac4d8146100d4578063fc0c546a146100e7578063ffd34ad5146100fc57610069565b366100695761006733610111565b005b61006733610111565b34801561007e57600080fd5b506100876103aa565b60405161009491906106f5565b60405180910390f35b3480156100a957600080fd5b506100876103b0565b3480156100be57600080fd5b506100c76103b6565b60405161009491906105fe565b6100676100e236600461059f565b610111565b3480156100f357600080fd5b506100c76103c5565b34801561010857600080fd5b506100876103d4565b3461011c82826103da565b6000610127826103fb565b6000546040516370a0823160e01b815291925082916001600160a01b03909116906370a082319061015c9030906004016105fe565b60206040518083038186803b15801561017457600080fd5b505afa158015610188573d6000803e3d6000fd5b505050506040513d601f19601f820116820180604052508101906101ac91906105e6565b6000546040516370a0823160e01b81529290911015917f9f83a56b6b62f46d9c0e9818a1661f72ca56ba06cff353d059436e5832127d84916001600160a01b0316906370a08231906102029030906004016105fe565b60206040518083038186803b15801561021a57600080fd5b505afa15801561022e573d6000803e3d6000fd5b505050506040513d601f19601f8201168201806040525081019061025291906105e6565b60405161025f9190610657565b60405180910390a26000546040516370a0823160e01b815282916001600160a01b0316906370a08231906102979030906004016105fe565b60206040518083038186803b1580156102af57600080fd5b505afa1580156102c3573d6000803e3d6000fd5b505050506040513d601f19601f820116820180604052508101906102e791906105e6565b101515157f9f83a56b6b62f46d9c0e9818a1661f72ca56ba06cff353d059436e5832127d848260405161031a91906106c6565b60405180910390a260035461032f9083610418565b60035561033c838261042b565b826001600160a01b0316336001600160a01b03167f623b3804fa71d67900d064613da8f94b9617215ee90799290593e1745087ad1884846040516103819291906106fe565b60405180910390a361039383836103f7565b61039b610435565b6103a583836103f7565b505050565b60025481565b60035481565b6001546001600160a01b031681565b6000546001600160a01b031681565b60045490565b6103e48282610471565b806103ed6103d4565b146103f757600080fd5b5050565b60006104126002548361050f90919063ffffffff16565b92915050565b6000610424828461070c565b9392505050565b6103f7828261051b565b6001546040516001600160a01b03909116903480156108fc02916000818181858888f1935050505015801561046e573d6000803e3d6000fd5b50565b6040516001600160a01b0383161515907facc1fbd861d476a3b70596fb49d0ebb80e2e5d077cdde5d17d8abcd924ef8d20906104ae90859061068f565b60405180910390a2604051811515907f9f83a56b6b62f46d9c0e9818a1661f72ca56ba06cff353d059436e5832127d84906104ea90849061062b565b60405180910390a26001600160a01b03821661050557600080fd5b806103f757600080fd5b60006104248284610724565b60005460405163a9059cbb60e01b81526001600160a01b039091169063a9059cbb9061054d9085908590600401610612565b602060405180830381600087803b15801561056757600080fd5b505af115801561057b573d6000803e3d6000fd5b505050506040513d601f19601f820116820180604052508101906103a591906105c6565b6000602082840312156105b0578081fd5b81356001600160a01b0381168114610424578182fd5b6000602082840312156105d7578081fd5b81518015158114610424578182fd5b6000602082840312156105f7578081fd5b5051919050565b6001600160a01b0391909116815260200190565b6001600160a01b03929092168252602082015260400190565b6040808252600a908201526917ddd95a505b5bdd5b9d60b21b6060820152602081019190915260800190565b604080825260169082015275273ab6b132b917ba37b5b2b7173130b630b731b2a7b360511b6060820152602081019190915260800190565b6040808252600c908201526b5f62656e656669636961727960a01b60608201526001600160a01b0391909116602082015260800190565b6040808252600d908201526c4e756d6265722f746f6b656e7360981b6060820152602081019190915260800190565b90815260200190565b918252602082015260400190565b6000821982111561071f5761071f610743565b500190565b600081600019048311821515161561073e5761073e610743565b500290565b634e487b7160e01b600052601160045260246000fdfea26469706673582212200a9346beb737af5785f62da58185c6e27586496505c0cc83d0f1a4cb5a5d939564736f6c63430008000033acc1fbd861d476a3b70596fb49d0ebb80e2e5d077cdde5d17d8abcd924ef8d20",
  "linkReferences": {},
  "deployedLinkReferences": {}
}