{
  "_format": "hh-sol-artifact-1",
  "contractName": "Crowdsale",
  "sourceName": "contracts/crowdsale/Crowdsale.sol",
  "abi": [
    {
      "inputs": [
        {
          "internalType": "uint256",
          "name": "_reserveRatio",
          "type": "uint256"
        },
        {
          "internalType": "address",
          "name": "_wallet",
          "type": "address"
        },
        {
          "internalType": "contract ERC20",
          "name": "_token",
          "type": "address"
        }
      ],
      "stateMutability": "nonpayable",
      "type": "constructor"
    },
    {
      "anonymous": false,
      "inputs": [
        {
          "indexed": false,
          "internalType": "string",
          "name": "name",
          "type": "string"
        },
        {
          "indexed": false,
          "internalType": "address",
          "name": "value",
          "type": "address"
        },
        {
          "indexed": true,
          "internalType": "bool",
          "name": "status",
          "type": "bool"
        }
      ],
      "name": "DebugAddress",
      "type": "event"
    },
    {
      "anonymous": false,
      "inputs": [
        {
          "indexed": false,
          "internalType": "string",
          "name": "name",
          "type": "string"
        },
        {
          "indexed": false,
          "internalType": "string",
          "name": "value",
          "type": "string"
        },
        {
          "indexed": true,
          "internalType": "bool",
          "name": "status",
          "type": "bool"
        }
      ],
      "name": "DebugString",
      "type": "event"
    },
    {
      "anonymous": false,
      "inputs": [
        {
          "indexed": false,
          "internalType": "string",
          "name": "name",
          "type": "string"
        },
        {
          "indexed": false,
          "internalType": "uint256",
          "name": "value",
          "type": "uint256"
        },
        {
          "indexed": true,
          "internalType": "bool",
          "name": "status",
          "type": "bool"
        }
      ],
      "name": "DebugUint256",
      "type": "event"
    },
    {
      "anonymous": false,
      "inputs": [
        {
          "indexed": true,
          "internalType": "address",
          "name": "previousOwner",
          "type": "address"
        },
        {
          "indexed": true,
          "internalType": "address",
          "name": "newOwner",
          "type": "address"
        }
      ],
      "name": "OwnershipTransferred",
      "type": "event"
    },
    {
      "anonymous": false,
      "inputs": [
        {
          "indexed": true,
          "internalType": "address",
          "name": "purchaser",
          "type": "address"
        },
        {
          "indexed": true,
          "internalType": "address",
          "name": "beneficiary",
          "type": "address"
        },
        {
          "indexed": false,
          "internalType": "uint256",
          "name": "value",
          "type": "uint256"
        },
        {
          "indexed": false,
          "internalType": "uint256",
          "name": "amount",
          "type": "uint256"
        }
      ],
      "name": "TokenPurchase",
      "type": "event"
    },
    {
      "stateMutability": "payable",
      "type": "fallback"
    },
    {
      "inputs": [],
      "name": "bonosTokenCirculation",
      "outputs": [
        {
          "internalType": "uint256",
          "name": "",
          "type": "uint256"
        }
      ],
      "stateMutability": "view",
      "type": "function"
    },
    {
      "inputs": [
        {
          "internalType": "address",
          "name": "_beneficiary",
          "type": "address"
        }
      ],
      "name": "buyTokens",
      "outputs": [],
      "stateMutability": "payable",
      "type": "function"
    },
    {
      "inputs": [
        {
          "internalType": "uint256",
          "name": "_amount",
          "type": "uint256"
        }
      ],
      "name": "calculateBuyAmountByBancor",
      "outputs": [
        {
          "internalType": "uint256",
          "name": "mintAmount",
          "type": "uint256"
        }
      ],
      "stateMutability": "view",
      "type": "function"
    },
    {
      "inputs": [
        {
          "internalType": "uint256",
          "name": "_supply",
          "type": "uint256"
        },
        {
          "internalType": "uint256",
          "name": "_connectorBalance",
          "type": "uint256"
        },
        {
          "internalType": "uint32",
          "name": "_connectorWeight",
          "type": "uint32"
        },
        {
          "internalType": "uint256",
          "name": "_depositAmount",
          "type": "uint256"
        }
      ],
      "name": "calculatePurchaseReturn",
      "outputs": [
        {
          "internalType": "uint256",
          "name": "",
          "type": "uint256"
        }
      ],
      "stateMutability": "view",
      "type": "function"
    },
    {
      "inputs": [
        {
          "internalType": "uint256",
          "name": "_amount",
          "type": "uint256"
        }
      ],
      "name": "calculateReimbursementByBancor",
      "outputs": [
        {
          "internalType": "uint256",
          "name": "burnAmount",
          "type": "uint256"
        }
      ],
      "stateMutability": "view",
      "type": "function"
    },
    {
      "inputs": [
        {
          "internalType": "uint256",
          "name": "_supply",
          "type": "uint256"
        },
        {
          "internalType": "uint256",
          "name": "_connectorBalance",
          "type": "uint256"
        },
        {
          "internalType": "uint32",
          "name": "_connectorWeight",
          "type": "uint32"
        },
        {
          "internalType": "uint256",
          "name": "_sellAmount",
          "type": "uint256"
        }
      ],
      "name": "calculateSaleReturn",
      "outputs": [
        {
          "internalType": "uint256",
          "name": "",
          "type": "uint256"
        }
      ],
      "stateMutability": "view",
      "type": "function"
    },
    {
      "inputs": [],
      "name": "maxGasPrice",
      "outputs": [
        {
          "internalType": "uint256",
          "name": "",
          "type": "uint256"
        }
      ],
      "stateMutability": "view",
      "type": "function"
    },
    {
      "inputs": [],
      "name": "owner",
      "outputs": [
        {
          "internalType": "address",
          "name": "",
          "type": "address"
        }
      ],
      "stateMutability": "view",
      "type": "function"
    },
    {
      "inputs": [],
      "name": "poolBalance",
      "outputs": [
        {
          "internalType": "uint256",
          "name": "",
          "type": "uint256"
        }
      ],
      "stateMutability": "view",
      "type": "function"
    },
    {
      "inputs": [],
      "name": "renounceOwnership",
      "outputs": [],
      "stateMutability": "nonpayable",
      "type": "function"
    },
    {
      "inputs": [],
      "name": "reserveRatio",
      "outputs": [
        {
          "internalType": "uint256",
          "name": "",
          "type": "uint256"
        }
      ],
      "stateMutability": "view",
      "type": "function"
    },
    {
      "inputs": [],
      "name": "scale",
      "outputs": [
        {
          "internalType": "uint256",
          "name": "",
          "type": "uint256"
        }
      ],
      "stateMutability": "view",
      "type": "function"
    },
    {
      "inputs": [
        {
          "internalType": "uint256",
          "name": "tokenAmount",
          "type": "uint256"
        }
      ],
      "name": "sellTokens",
      "outputs": [],
      "stateMutability": "nonpayable",
      "type": "function"
    },
    {
      "inputs": [
        {
          "internalType": "uint256",
          "name": "newMax",
          "type": "uint256"
        }
      ],
      "name": "setMaxGasPrice",
      "outputs": [
        {
          "internalType": "bool",
          "name": "",
          "type": "bool"
        }
      ],
      "stateMutability": "nonpayable",
      "type": "function"
    },
    {
      "inputs": [],
      "name": "token",
      "outputs": [
        {
          "internalType": "contract ERC20",
          "name": "",
          "type": "address"
        }
      ],
      "stateMutability": "view",
      "type": "function"
    },
    {
      "inputs": [
        {
          "internalType": "address",
          "name": "newOwner",
          "type": "address"
        }
      ],
      "name": "transferOwnership",
      "outputs": [],
      "stateMutability": "nonpayable",
      "type": "function"
    },
    {
      "inputs": [],
      "name": "version",
      "outputs": [
        {
          "internalType": "string",
          "name": "",
          "type": "string"
        }
      ],
      "stateMutability": "view",
      "type": "function"
    },
    {
      "inputs": [],
      "name": "wallet",
      "outputs": [
        {
          "internalType": "address",
          "name": "",
          "type": "address"
        }
      ],
      "stateMutability": "view",
      "type": "function"
    },
    {
      "inputs": [],
      "name": "weiRaised",
      "outputs": [
        {
          "internalType": "uint256",
          "name": "",
          "type": "uint256"
        }
      ],
      "stateMutability": "view",
      "type": "function"
    },
    {
      "stateMutability": "payable",
      "type": "receive"
    }
  ],
  "bytecode": "0x60c06040526003608081905262302e3360e81b60a0908152620000269160009190620008cc565b50670de0b6b3a7640000608255670de0b6b3a7640000608355608354600162000050919062000a3a565b6084556083546200006390600162000a3a565b6086553480156200007357600080fd5b506040516200310c3803806200310c833981016040819052620000969162000972565b6001641c35fedd1560601b036021556001646c3390ecc9605e1b036022556001640cf801476160611b0360235560016431bdb23e1d605f1b0360245560016502fb1d8fe083605b1b0360255560016505b771955b37605a1b036026556001650af67a93bb5160591b0360275560016515060c256cb360581b036028556001651428a2f98d7360581b036029556001654d515663970960561b03602a55600165944620b0e70f60551b03602b55600166011c592761c66760541b03602c5560016602214d10d014eb60531b03602d55600166020ade36b7dbef60531b03602e5560016603eab73b3bbfe360521b03602f556001660782ee3593f6d760511b036030556001661ccf4b44bb4821604f1b0360315560016606e7f88ad8a77760511b0360325560016669f3d1c921891d604d1b03603355600166cb2ff529eb71e5604c1b03603455600166c2d415c3db974b604c1b0360355560016702eb40f9f620fda7604a1b0360365560016705990681d961a1eb60491b03603755600167055e12902701414760491b0360385560016714962dee9dc9764160471b0360395560016704ef57b9b560fab560491b03603a5560016712ed7b32a58f552b60471b03603b556001679131271922eaa60760441b03603c556001678b380f3558668c4760441b03603d556001680215f77c045fbe885760421b03603e556001600160831b03603f556001670f577eded5773a1160471b036040556001680eb5ec597592befbf5603f1b036041556001681c35fedd14b861eb05603e1b036042556001683619c87664579bc94b603d1b0360435560016867c00a3b07ffc01fd7603c1b03604455600168c6f6c8f8739773a7a5603b1b03604555600168bec763f8209b7a72b1603b1b0360465560016902dbb8caad9b7097b91b60391b03604755600169057b3d49dda84556d6f760381b03604855600169054183095b2c8ececf3160381b036049556001690a14517cc6b9457111ef60371b03604a5560016913545598e5c23276ccf160361b03604b556001692511882c39c3adea96ff60351b03604c55600169471649d87199aa99075760341b03604d557004429a21a029d4c1457cfbffffffffffff604e55700415bc6d6fb7dd71af2cb3ffffffffffff604f557003eab73b3bbfe282243ce1ffffffffffff6050557003c1771ac9fb6b4c18e229ffffffffffff605155700399e96897690418f785257fffffffffff605255700373fc456c53bb779bf0ea9fffffffffff60535570034f9e8e490c48e67e6ab8bfffffffffff60545570032cbfd4a7adc790560b3337ffffffffff60555570030b50570f6e5d2acca94613ffffffffff6056557002eb40f9f620fda6b56c2861ffffffffff6057557002cc8340ecb0d0f520a6af58ffffffffff6058557002af09481380a0a35cf1ba02ffffffffff605955700292c5bdd3b92ec810287b1b3fffffffff605a55700277abdcdab07d5a77ac6d6b9fffffffff605b5570025daf6654b1eaa55fd64df5efffffffff605c55700244c49c648baa98192dce88b7ffffffff605d5570022ce03cd5619a311b2471268bffffffff605e55700215f77c045fbe885654a44a0fffffffff605f556001600160811b036060557001eaefdbdaaee7421fc4d3ede5ffffffff6061557001d6bd8b2eb257df7e8ca57b09bfffffff6062557001c35fedd14b861eb0443f7f133fffffff6063557001b0ce43b322bcde4a56e8ada5afffffff60645570019f0028ec1fff007f5a195a39dfffffff60655570018ded91f0e72ee74f49b15ba527ffffff60665570017d8ec7f04136f4e5615fd41a63ffffff60675570016ddc6556cdb84bdc8d12d22e6fffffff60685570015ecf52776a1155b5bd8395814f7fffff60695570015060c256cb23b3b3cc3754cf40ffffff606a557001428a2f98d728ae223ddab715be3fffff606b5570013545598e5c23276ccf0ede68034fffff606c557001288c4161ce1d6f54b7f61081194fffff606d5570011c592761c666aa641d5a01a40f17ffff606e55700110a688680a7530515f3e6e6cfdcdffff606f557001056f1b5bedf75c6bcb2ce8aed428ffff6070556ffaadceceeff8a0890f3875f008277fff6071556ff05dc6b27edad306388a600f6ba0bfff6072556fe67a5a25da41063de1495d5b18cdbfff6073556fdcff115b14eedde6fc3aa5353f2e4fff6074556fd3e7a3924312399f9aae2e0f868f8fff6075556fcb2ff529eb71e41582cccd5a1ee26fff6076556fc2d415c3db974ab32a51840c0b67edff6077556fbad03e7d883f69ad5b0a186184e06bff6078556fb320d03b2c343d4829abd6075f0cc5ff6079556fabc25204e02828d73c6e80bcdb1a95bf607a556fa4b16f74ee4bb2040a1ec6c15fbbf2df607b556f9deaf736ac1f569deb1b5ae3f36c130f607c556f976bd9952c7aa957f5937d790ef65037607d556f9131271922eaa6064b73a22d0bd4f2bf607e556f8b380f3558668c46c91c49a2f8e967b9607f556f857ddf0117efa215952912839f6473e660805582620007d4620007ce62000876565b6200087a565b6085556040516001600160a01b038316151590600080516020620030ec833981519152906200080590859062000a01565b60405180910390a26040516001600160a01b038216151590600080516020620030ec833981519152906200083b908490620009b9565b60405180910390a2608880546001600160a01b039384166001600160a01b031991821617909155608780549290931691161790555062000abc565b3390565b608180546001600160a01b038381166001600160a01b0319831681179093556040519116919082907f8be0079c531659141344cd1fd0a4f28419497f9722a3daafe3b4186f6b6457e090600090a35050565b828054620008da9062000a66565b90600052602060002090601f016020900481019282620008fe576000855562000949565b82601f106200091957805160ff191683800117855562000949565b8280016001018555821562000949579182015b82811115620009495782518255916020019190600101906200092c565b50620009579291506200095b565b5090565b5b808211156200095757600081556001016200095c565b60008060006060848603121562000987578283fd5b8351925060208401516200099b8162000aa3565b6040850151909250620009ae8162000aa3565b809150509250925092565b60408082526016908201527f416464726573732f6164647265737328746f6b656e290000000000000000000060608201526001600160a01b0391909116602082015260800190565b6040808252600e908201526d1059191c995cdccbd5d85b1b195d60921b60608201526001600160a01b0391909116602082015260800190565b600081600019048311821515161562000a6157634e487b7160e01b81526011600452602481fd5b500290565b60028104600182168062000a7b57607f821691505b6020821081141562000a9d57634e487b7160e01b600052602260045260246000fd5b50919050565b6001600160a01b038116811462000ab957600080fd5b50565b6126208062000acc6000396000f3fe6080604052600436106101185760003560e01c8063715018a6116100a0578063ec8ac4d811610064578063ec8ac4d8146102cb578063f08bb3ff146102de578063f2fde38b146102fe578063f51e181a1461031e578063fc0c546a1461033357610128565b8063715018a61461024a57806374e2f5621461025f5780638da5cb5b1461027457806396365d4414610289578063d2fa635e1461029e57610128565b80634042b66f116100e75780634042b66f146101b157806349f9b0f7146101c6578063521eb273146101e657806354fd4d50146102085780636c11bcd31461022a57610128565b80630c7d5cd8146101315780631cd1040e1461015c57806329a00e7c1461017c5780633de39c111461019c57610128565b366101285761012633610348565b005b61012633610348565b34801561013d57600080fd5b506101466105de565b604051610153919061246f565b60405180910390f35b34801561016857600080fd5b506101466101773660046121f2565b6105e4565b34801561018857600080fd5b50610146610197366004612222565b610600565b3480156101a857600080fd5b506101466106cb565b3480156101bd57600080fd5b506101466106d1565b3480156101d257600080fd5b506101466101e1366004612222565b6106d7565b3480156101f257600080fd5b506101fb6107b4565b6040516101539190612268565b34801561021457600080fd5b5061021d6107c3565b60405161015391906122a0565b34801561023657600080fd5b506101266102453660046121f2565b610851565b34801561025657600080fd5b5061012661088e565b34801561026b57600080fd5b506101466108e2565b34801561028057600080fd5b506101fb6108e8565b34801561029557600080fd5b506101466108f7565b3480156102aa57600080fd5b506102be6102b93660046121f2565b6108fd565b6040516101539190612295565b6101266102d93660046121ab565b610348565b3480156102ea57600080fd5b506101466102f93660046121f2565b610947565b34801561030a57600080fd5b506101266103193660046121ab565b61095b565b34801561032a57600080fd5b506101466109cc565b34801561033f57600080fd5b506101fb6109d2565b3461035382826109e1565b600061035e82610a83565b6087546040516370a0823160e01b815291925082916001600160a01b03909116906370a0823190610393903090600401612268565b60206040518083038186803b1580156103ab57600080fd5b505afa1580156103bf573d6000803e3d6000fd5b505050506040513d601f19601f820116820180604052508101906103e3919061220a565b6087546040516370a0823160e01b81529290911015917f9f83a56b6b62f46d9c0e9818a1661f72ca56ba06cff353d059436e5832127d84916001600160a01b0316906370a0823190610439903090600401612268565b60206040518083038186803b15801561045157600080fd5b505afa158015610465573d6000803e3d6000fd5b505050506040513d601f19601f82011682018060405250810190610489919061220a565b6040516104969190612365565b60405180910390a26087546040516370a0823160e01b815282916001600160a01b0316906370a08231906104ce903090600401612268565b60206040518083038186803b1580156104e657600080fd5b505afa1580156104fa573d6000803e3d6000fd5b505050506040513d601f19601f8201168201806040525081019061051e919061220a565b101515157f9f83a56b6b62f46d9c0e9818a1661f72ca56ba06cff353d059436e5832127d84826040516105519190612440565b60405180910390a26089546105669083610ab8565b6089556105738382610acb565b826001600160a01b0316336001600160a01b03167f623b3804fa71d67900d064613da8f94b9617215ee90799290593e1745087ad1884846040516105b8929190612478565b60405180910390a360006105cd346002610ad5565b90506105d881610ae1565b50505050565b60855481565b60006105f860865460845460855485610600565b90505b919050565b600080851180156106115750600084115b8015610623575060008363ffffffff16115b80156106385750620f424063ffffffff841611155b61064157600080fd5b8161064e575060006106c3565b63ffffffff8316620f4240141561067a576106738461066d8785610b1b565b90610ad5565b90506106c3565b600080806106888588610ab8565b9050610699818888620f4240610b27565b9093509150600060ff83166106ae8a86610b1b565b901c90506106bc8982612518565b9450505050505b949350505050565b60825481565b60895481565b600080851180156106e85750600084115b80156106fa575060008363ffffffff16115b801561070f5750620f424063ffffffff841611155b801561071b5750848211155b61072457600080fd5b81610731575060006106c3565b848214156107405750826106c3565b63ffffffff8316620f4240141561075f576106738561066d8685610b1b565b6000808061076d8589612518565b905061077e8882620f424089610b27565b9093509150600061078f8885610b1b565b905060ff831688901b6107a68561066d8484610c45565b9a9950505050505050505050565b6088546001600160a01b031681565b600080546107d09061256f565b80601f01602080910402602001604051908101604052809291908181526020018280546107fc9061256f565b80156108495780601f1061081e57610100808354040283529160200191610849565b820191906000526020600020905b81548152906001019060200180831161082c57829003601f168201915b505050505081565b600061085c82610c51565b6040519091503390819083156108fc029084906000818181858888f193505050501580156105d8573d6000803e3d6000fd5b610896610c6d565b6001600160a01b03166108a76108e8565b6001600160a01b0316146108d65760405162461bcd60e51b81526004016108cd906123d4565b60405180910390fd5b6108e06000610c71565b565b60865481565b6081546001600160a01b031690565b60845481565b6000610907610c6d565b6001600160a01b03166109186108e8565b6001600160a01b03161461093e5760405162461bcd60e51b81526004016108cd906123d4565b50608255600190565b60006105f8608654608454608554856106d7565b610963610c6d565b6001600160a01b03166109746108e8565b6001600160a01b03161461099a5760405162461bcd60e51b81526004016108cd906123d4565b6001600160a01b0381166109c05760405162461bcd60e51b81526004016108cd9061231f565b6109c981610c71565b50565b60835481565b6087546001600160a01b031681565b6040516001600160a01b0383161515907facc1fbd861d476a3b70596fb49d0ebb80e2e5d077cdde5d17d8abcd924ef8d2090610a1e90859061239d565b60405180910390a2604051811515907f9f83a56b6b62f46d9c0e9818a1661f72ca56ba06cff353d059436e5832127d8490610a5a9084906122f3565b60405180910390a26001600160a01b038216610a7557600080fd5b80610a7f57600080fd5b5050565b600080610a8f836105e4565b608654909150610a9f9082610ab8565b608655608454610aaf9084610ab8565b60845592915050565b6000610ac48284612486565b9392505050565b610a7f8282610cc3565b6000610ac482846124c3565b6088546040516001600160a01b039091169082156108fc029083906000818181858888f19350505050158015610a7f573d6000803e3d6000fd5b6000610ac482846124f9565b600080600160811b8610610b4b57634e487b7160e01b600052600160045260246000fd5b84861015610b6b5760405162461bcd60e51b81526004016108cd90612409565b60008086610b7d6001607f1b8a6124f9565b610b8791906124c3565b905070015bf0a8b1457695355fb8ac404e7a79e3811015610bb257610bab81610d4c565b9150610bbe565b610bbb816112c5565b91505b60008563ffffffff168763ffffffff1684610bd991906124f9565b610be391906124c3565b9050600160831b811015610c0857610bfa816113b4565b607f94509450505050610c3c565b6000610c13826119df565b9050610c2f610c2382607f61252f565b60ff1683901c82611ad5565b95509350610c3c92505050565b94509492505050565b6000610ac48284612518565b600080610c5d83610947565b608454909150610aaf9082610c45565b3390565b608180546001600160a01b038381166001600160a01b0319831681179093556040519116919082907f8be0079c531659141344cd1fd0a4f28419497f9722a3daafe3b4186f6b6457e090600090a35050565b60875460405163a9059cbb60e01b81526001600160a01b039091169063a9059cbb90610cf5908590859060040161227c565b602060405180830381600087803b158015610d0f57600080fd5b505af1158015610d23573d6000803e3d6000fd5b505050506040513d601f19601f82011682018060405250810190610d4791906121d2565b505050565b6000808080806fd3094c70f034de4b96ff7d5b6f99fcd88610610da557610d776001607e1b85612486565b93506fd3094c70f034de4b96ff7d5b6f99fcd8610d986001607f1b886124f9565b610da291906124c3565b95505b6fa45af1e1f40c333b3de1db4dd55f29a78610610df857610dca6001607d1b85612486565b93506fa45af1e1f40c333b3de1db4dd55f29a7610deb6001607f1b886124f9565b610df591906124c3565b95505b6f910b022db7ae67ce76b441c27035c6a18610610e4b57610e1d6001607c1b85612486565b93506f910b022db7ae67ce76b441c27035c6a1610e3e6001607f1b886124f9565b610e4891906124c3565b95505b6f88415abbe9a76bead8d00cf112e4d4a88610610e9e57610e706001607b1b85612486565b93506f88415abbe9a76bead8d00cf112e4d4a8610e916001607f1b886124f9565b610e9b91906124c3565b95505b6f84102b00893f64c705e841d5d4064bd38610610ef157610ec36001607a1b85612486565b93506f84102b00893f64c705e841d5d4064bd3610ee46001607f1b886124f9565b610eee91906124c3565b95505b6f8204055aaef1c8bd5c3259f4822735a28610610f4457610f16600160791b85612486565b93506f8204055aaef1c8bd5c3259f4822735a2610f376001607f1b886124f9565b610f4191906124c3565b95505b6f810100ab00222d861931c15e39b44e998610610f9757610f69600160781b85612486565b93506f810100ab00222d861931c15e39b44e99610f8a6001607f1b886124f9565b610f9491906124c3565b95505b6f808040155aabbbe9451521693554f7338610610fea57610fbc600160771b85612486565b93506f808040155aabbbe9451521693554f733610fdd6001607f1b886124f9565b610fe791906124c3565b95505b610ff86001607f1b87612518565b92508291506001607f1b61100c83806124f9565b61101691906124c3565b9050600160801b6110278482612518565b61103190846124f9565b61103b91906124c3565b6110459085612486565b93506001607f1b61105682846124f9565b61106091906124c3565b9150600160811b611081846faaaaaaaaaaaaaaaaaaaaaaaaaaaaaaaa612518565b61108b90846124f9565b61109591906124c3565b61109f9085612486565b93506001607f1b6110b082846124f9565b6110ba91906124c3565b9150600360801b6110db846f99999999999999999999999999999999612518565b6110e590846124f9565b6110ef91906124c3565b6110f99085612486565b93506001607f1b61110a82846124f9565b61111491906124c3565b9150600160821b611135846f92492492492492492492492492492492612518565b61113f90846124f9565b61114991906124c3565b6111539085612486565b93506001607f1b61116482846124f9565b61116e91906124c3565b9150600560801b61118f846f8e38e38e38e38e38e38e38e38e38e38e612518565b61119990846124f9565b6111a391906124c3565b6111ad9085612486565b93506001607f1b6111be82846124f9565b6111c891906124c3565b9150600360811b6111e9846f8ba2e8ba2e8ba2e8ba2e8ba2e8ba2e8b612518565b6111f390846124f9565b6111fd91906124c3565b6112079085612486565b93506001607f1b61121882846124f9565b61122291906124c3565b9150600760801b611243846f89d89d89d89d89d89d89d89d89d89d89612518565b61124d90846124f9565b61125791906124c3565b6112619085612486565b93506001607f1b61127282846124f9565b61127c91906124c3565b9150600160831b61129d846f88888888888888888888888888888888612518565b6112a790846124f9565b6112b191906124c3565b6112bb9085612486565b9695505050505050565b60008082600160801b811061130a5760006112ec6112e76001607f1b846124c3565b61213c565b60ff811692831c92909150611306906001607f1b906124f9565b9250505b6001607f1b81111561137f57607f5b60ff81161561137d576001607f1b61133183806124f9565b61133b91906124c3565b9150600160801b821061136d57600191821c91611358908261252f565b60ff166001901b8361136a9190612486565b92505b61137681612552565b9050611319565b505b6f05b9de1d10bf4103d647b0955897ba806113aa6f03f80fe03f80fe03f80fe03f80fe03f8846124f9565b6106c391906124c3565b60008080806113c76001607c1b866125aa565b91508190506001607f1b6113db82806124f9565b6113e591906124c3565b90506113f9816710e1b3be415a00006124f9565b6114039084612486565b92506001607f1b61141483836124f9565b61141e91906124c3565b9050611432816705a0913f6b1e00006124f9565b61143c9084612486565b92506001607f1b61144d83836124f9565b61145791906124c3565b905061146b81670168244fdac780006124f9565b6114759084612486565b92506001607f1b61148683836124f9565b61149091906124c3565b90506114a381664807432bc180006124f9565b6114ad9084612486565b92506001607f1b6114be83836124f9565b6114c891906124c3565b90506114db81660c0135dca040006124f9565b6114e59084612486565b92506001607f1b6114f683836124f9565b61150091906124c3565b9050611513816601b707b1cdc0006124f9565b61151d9084612486565b92506001607f1b61152e83836124f9565b61153891906124c3565b905061154a816536e0f639b8006124f9565b6115549084612486565b92506001607f1b61156583836124f9565b61156f91906124c3565b905061158181650618fee9f8006124f9565b61158b9084612486565b92506001607f1b61159c83836124f9565b6115a691906124c3565b90506115b781649c197dcc006124f9565b6115c19084612486565b92506001607f1b6115d283836124f9565b6115dc91906124c3565b90506115ed81640e30dce4006124f9565b6115f79084612486565b92506001607f1b61160883836124f9565b61161291906124c3565b90506116238164012ebd13006124f9565b61162d9084612486565b92506001607f1b61163e83836124f9565b61164891906124c3565b9050611658816317499f006124f9565b6116629084612486565b92506001607f1b61167383836124f9565b61167d91906124c3565b905061168d816301a9d4806124f9565b6116979084612486565b92506001607f1b6116a883836124f9565b6116b291906124c3565b90506116c181621c63806124f9565b6116cb9084612486565b92506001607f1b6116dc83836124f9565b6116e691906124c3565b90506116f5816201c6386124f9565b6116ff9084612486565b92506001607f1b61171083836124f9565b61171a91906124c3565b905061172881611ab86124f9565b6117329084612486565b92506001607f1b61174383836124f9565b61174d91906124c3565b905061175b8161017c6124f9565b6117659084612486565b92506001607f1b61177683836124f9565b61178091906124c3565b905061178d8160146124f9565b6117979084612486565b92506001607f1b6117a883836124f9565b6117b291906124c3565b90506117bf8160016124f9565b6117c99084612486565b92506001607f1b826117e36721c3677c82b40000866124c3565b6117ed9190612486565b6117f79190612486565b92506001607c1b85161561183f5770018ebef9eac820ae8682b9793ac6d1e776611832847001c3d6a24ed82218787d624d3e5eba95f96124f9565b61183c91906124c3565b92505b6001607d1b851615611885577001368b2fc6f9609fe7aceb46aa619baed46118788470018ebef9eac820ae8682b9793ac6d1e7786124f9565b61188291906124c3565b92505b6001607e1b8516156118ca576fbc5ab1b16779be3575bd8f0520a9f21f6118bd847001368b2fc6f9609fe7aceb46aa619baed56124f9565b6118c791906124c3565b92505b6001607f1b85161561190e576f454aaa8efe072e7f6ddbab84b40a55c9611901846fbc5ab1b16779be3575bd8f0520a9f21e6124f9565b61190b91906124c3565b92505b600160801b851615611952576f0960aadc109e7a3bf4578099615711ea611945846f454aaa8efe072e7f6ddbab84b40a55c56124f9565b61194f91906124c3565b92505b600160811b851615611995576e2bf84208204f5977f9a8cf01fdce3d611988846f0960aadc109e7a3bf4578099615711d76124f9565b61199291906124c3565b92505b600160821b8516156119d6576d03c6ab775dd0b95b4cbee7e65d116119c9846e2bf84208204f5977f9a8cf01fdc3076124f9565b6119d391906124c3565b92505b50909392505050565b60006020607f5b60ff81166119f583600161249e565b60ff161015611a565760006002611a0c838561249e565b611a1691906124d7565b90508460018260ff1660808110611a3d57634e487b7160e01b600052603260045260246000fd5b015410611a4c57809250611a50565b8091505b506119e6565b8360018260ff1660808110611a7b57634e487b7160e01b600052603260045260246000fd5b015410611a8b5791506105fb9050565b8360018360ff1660808110611ab057634e487b7160e01b600052603260045260246000fd5b015410611abf575090506105fb565b634e487b7160e01b600052600160045260246000fd5b6000828160ff8416611ae783806124f9565b901c9150611b05826f03442c4e6074a82f1797f72ac00000006124f9565b611b0f9082612486565b905060ff8416611b1f86846124f9565b901c9150611b3d826f0116b96f757c380fb287fd0e400000006124f9565b611b479082612486565b905060ff8416611b5786846124f9565b901c9150611b74826e45ae5bdd5f0e03eca1ff43900000006124f9565b611b7e9082612486565b905060ff8416611b8e86846124f9565b901c9150611bab826e0defabf91302cd95b9ffda500000006124f9565b611bb59082612486565b905060ff8416611bc586846124f9565b901c9150611be2826e02529ca9832b22439efff9b80000006124f9565b611bec9082612486565b905060ff8416611bfc86846124f9565b901c9150611c18826d54f1cf12bd04e516b6da880000006124f9565b611c229082612486565b905060ff8416611c3286846124f9565b901c9150611c4e826d0a9e39e257a09ca2d6db510000006124f9565b611c589082612486565b905060ff8416611c6886846124f9565b901c9150611c84826d012e066e7b839fa050c3090000006124f9565b611c8e9082612486565b905060ff8416611c9e86846124f9565b901c9150611cb9826c1e33d7d926c329a1ad1a8000006124f9565b611cc39082612486565b905060ff8416611cd386846124f9565b901c9150611cee826c02bee513bdb4a6b19b5f8000006124f9565b611cf89082612486565b905060ff8416611d0886846124f9565b901c9150611d22826b3a9316fa79b88eccf2a000006124f9565b611d2c9082612486565b905060ff8416611d3c86846124f9565b901c9150611d56826b048177ebe1fa8123752000006124f9565b611d609082612486565b905060ff8416611d7086846124f9565b901c9150611d89826a5263fe90242dcbacf000006124f9565b611d939082612486565b905060ff8416611da386846124f9565b901c9150611dbc826a057e22099c030d941000006124f9565b611dc69082612486565b905060ff8416611dd686846124f9565b901c9150611dee826957e22099c030d94100006124f9565b611df89082612486565b905060ff8416611e0886846124f9565b901c9150611e208269052b6b545699763100006124f9565b611e2a9082612486565b905060ff8416611e3a86846124f9565b901c9150611e5182684985f67696bf7480006124f9565b611e5b9082612486565b905060ff8416611e6b86846124f9565b901c9150611e82826803dea12ea99e4980006124f9565b611e8c9082612486565b905060ff8416611e9c86846124f9565b901c9150611eb2826731880f2214b6e0006124f9565b611ebc9082612486565b905060ff8416611ecc86846124f9565b901c9150611ee28267025bcff56eb360006124f9565b611eec9082612486565b905060ff8416611efc86846124f9565b901c9150611f1182661b722e10ab10006124f9565b611f1b9082612486565b905060ff8416611f2b86846124f9565b901c9150611f40826601317c700770006124f9565b611f4a9082612486565b905060ff8416611f5a86846124f9565b901c9150611f6e82650cba84aafa006124f9565b611f789082612486565b905060ff8416611f8886846124f9565b901c9150611f9b826482573a0a006124f9565b611fa59082612486565b905060ff8416611fb586846124f9565b901c9150611fc8826405035ad9006124f9565b611fd29082612486565b905060ff8416611fe286846124f9565b901c9150611ff482632f881b006124f9565b611ffe9082612486565b905060ff841661200e86846124f9565b901c9150612020826301b293406124f9565b61202a9082612486565b905060ff841661203a86846124f9565b901c915061204b82620efc406124f9565b6120559082612486565b905060ff841661206586846124f9565b901c915061207582617fe06124f9565b61207f9082612486565b905060ff841661208f86846124f9565b901c915061209f826104206124f9565b6120a99082612486565b905060ff84166120b986846124f9565b901c91506120c88260216124f9565b6120d29082612486565b905060ff84166120e286846124f9565b901c91506120f18260016124f9565b6120fb9082612486565b9050600160ff85161b8561211f6f0688589cc0e9505e2f2fee5580000000846124c3565b6121299190612486565b6121339190612486565b95945050505050565b60008082610100811015612170575b600181111561216b57600190811c90612164908361249e565b915061214b565b6121a4565b60805b60ff8116156121a257600160ff82161b8210612197579182179160ff81169190911c905b60011c607f16612173565b505b5092915050565b6000602082840312156121bc578081fd5b81356001600160a01b0381168114610ac4578182fd5b6000602082840312156121e3578081fd5b81518015158114610ac4578182fd5b600060208284031215612203578081fd5b5035919050565b60006020828403121561221b578081fd5b5051919050565b60008060008060808587031215612237578283fd5b8435935060208501359250604085013563ffffffff81168114612258578283fd5b9396929550929360600135925050565b6001600160a01b0391909116815260200190565b6001600160a01b03929092168252602082015260400190565b901515815260200190565b6000602080835283518082850152825b818110156122cc578581018301518582016040015282016122b0565b818111156122dd5783604083870101525b50601f01601f1916929092016040019392505050565b6040808252600a908201526917ddd95a505b5bdd5b9d60b21b6060820152602081019190915260800190565b60208082526026908201527f4f776e61626c653a206e6577206f776e657220697320746865207a65726f206160408201526564647265737360d01b606082015260800190565b604080825260169082015275273ab6b132b917ba37b5b2b7173130b630b731b2a7b360511b6060820152602081019190915260800190565b6040808252600c908201526b5f62656e656669636961727960a01b60608201526001600160a01b0391909116602082015260800190565b6020808252818101527f4f776e61626c653a2063616c6c6572206973206e6f7420746865206f776e6572604082015260600190565b6020808252601c908201527f4261736573203c203120617265206e6f7420737570706f727465642e00000000604082015260600190565b6040808252600d908201526c4e756d6265722f746f6b656e7360981b6060820152602081019190915260800190565b90815260200190565b918252602082015260400190565b60008219821115612499576124996125be565b500190565b600060ff821660ff84168060ff038211156124bb576124bb6125be565b019392505050565b6000826124d2576124d26125d4565b500490565b600060ff8316806124ea576124ea6125d4565b8060ff84160491505092915050565b6000816000190483118215151615612513576125136125be565b500290565b60008282101561252a5761252a6125be565b500390565b600060ff821660ff841680821015612549576125496125be565b90039392505050565b600060ff821680612565576125656125be565b6000190192915050565b60028104600182168061258357607f821691505b602082108114156125a457634e487b7160e01b600052602260045260246000fd5b50919050565b6000826125b9576125b96125d4565b500690565b634e487b7160e01b600052601160045260246000fd5b634e487b7160e01b600052601260045260246000fdfea26469706673582212206e42804e7ecde5715102303fba11ef1042c6cd742d580e400a03d8506fa4ad1264736f6c63430008000033acc1fbd861d476a3b70596fb49d0ebb80e2e5d077cdde5d17d8abcd924ef8d20",
  "linkReferences": {},
  "deployedLinkReferences": {}
}