{
  "_format": "hh-sol-artifact-1",
  "contractName": "Crowdsale",
  "sourceName": "contracts/crowdsale/Crowdsale.sol",
  "abi": [
    {
      "inputs": [
        {
          "internalType": "uint256",
          "name": "_reserveRatio",
          "type": "uint256"
        },
        {
          "internalType": "address",
          "name": "_wallet",
          "type": "address"
        },
        {
          "internalType": "contract ERC20",
          "name": "_token",
          "type": "address"
        }
      ],
      "stateMutability": "nonpayable",
      "type": "constructor"
    },
    {
      "anonymous": false,
      "inputs": [
        {
          "indexed": false,
          "internalType": "string",
          "name": "name",
          "type": "string"
        },
        {
          "indexed": false,
          "internalType": "address",
          "name": "value",
          "type": "address"
        },
        {
          "indexed": true,
          "internalType": "bool",
          "name": "status",
          "type": "bool"
        }
      ],
      "name": "DebugAddress",
      "type": "event"
    },
    {
      "anonymous": false,
      "inputs": [
        {
          "indexed": false,
          "internalType": "string",
          "name": "name",
          "type": "string"
        },
        {
          "indexed": false,
          "internalType": "string",
          "name": "value",
          "type": "string"
        },
        {
          "indexed": true,
          "internalType": "bool",
          "name": "status",
          "type": "bool"
        }
      ],
      "name": "DebugString",
      "type": "event"
    },
    {
      "anonymous": false,
      "inputs": [
        {
          "indexed": false,
          "internalType": "string",
          "name": "name",
          "type": "string"
        },
        {
          "indexed": false,
          "internalType": "uint256",
          "name": "value",
          "type": "uint256"
        },
        {
          "indexed": true,
          "internalType": "bool",
          "name": "status",
          "type": "bool"
        }
      ],
      "name": "DebugUint256",
      "type": "event"
    },
    {
      "anonymous": false,
      "inputs": [
        {
          "indexed": true,
          "internalType": "address",
          "name": "purchaser",
          "type": "address"
        },
        {
          "indexed": true,
          "internalType": "address",
          "name": "beneficiary",
          "type": "address"
        },
        {
          "indexed": false,
          "internalType": "uint256",
          "name": "value",
          "type": "uint256"
        },
        {
          "indexed": false,
          "internalType": "uint256",
          "name": "amount",
          "type": "uint256"
        }
      ],
      "name": "TokenPurchase",
      "type": "event"
    },
    {
      "stateMutability": "payable",
      "type": "fallback"
    },
    {
      "inputs": [],
      "name": "bonosTokenCirculation",
      "outputs": [
        {
          "internalType": "uint256",
          "name": "",
          "type": "uint256"
        }
      ],
      "stateMutability": "view",
      "type": "function"
    },
    {
      "inputs": [
        {
          "internalType": "address",
          "name": "_beneficiary",
          "type": "address"
        }
      ],
      "name": "buyTokens",
      "outputs": [],
      "stateMutability": "payable",
      "type": "function"
    },
    {
      "inputs": [
        {
          "internalType": "uint256",
          "name": "_amount",
          "type": "uint256"
        }
      ],
      "name": "calculateBuyAmount",
      "outputs": [
        {
          "internalType": "uint256",
          "name": "mintAmount",
          "type": "uint256"
        }
      ],
      "stateMutability": "view",
      "type": "function"
    },
    {
      "inputs": [
        {
          "internalType": "uint256",
          "name": "_supply",
          "type": "uint256"
        },
        {
          "internalType": "uint256",
          "name": "_connectorBalance",
          "type": "uint256"
        },
        {
          "internalType": "uint32",
          "name": "_connectorWeight",
          "type": "uint32"
        },
        {
          "internalType": "uint256",
          "name": "_depositAmount",
          "type": "uint256"
        }
      ],
      "name": "calculatePurchaseReturn",
      "outputs": [
        {
          "internalType": "uint256",
          "name": "",
          "type": "uint256"
        }
      ],
      "stateMutability": "view",
      "type": "function"
    },
    {
      "inputs": [
        {
          "internalType": "uint256",
          "name": "_supply",
          "type": "uint256"
        },
        {
          "internalType": "uint256",
          "name": "_connectorBalance",
          "type": "uint256"
        },
        {
          "internalType": "uint32",
          "name": "_connectorWeight",
          "type": "uint32"
        },
        {
          "internalType": "uint256",
          "name": "_sellAmount",
          "type": "uint256"
        }
      ],
      "name": "calculateSaleReturn",
      "outputs": [
        {
          "internalType": "uint256",
          "name": "",
          "type": "uint256"
        }
      ],
      "stateMutability": "view",
      "type": "function"
    },
    {
      "inputs": [],
      "name": "poolBalance",
      "outputs": [
        {
          "internalType": "uint256",
          "name": "",
          "type": "uint256"
        }
      ],
      "stateMutability": "view",
      "type": "function"
    },
    {
      "inputs": [],
      "name": "reserveRatio",
      "outputs": [
        {
          "internalType": "uint256",
          "name": "",
          "type": "uint256"
        }
      ],
      "stateMutability": "view",
      "type": "function"
    },
    {
      "inputs": [],
      "name": "scale",
      "outputs": [
        {
          "internalType": "uint256",
          "name": "",
          "type": "uint256"
        }
      ],
      "stateMutability": "view",
      "type": "function"
    },
    {
      "inputs": [],
      "name": "token",
      "outputs": [
        {
          "internalType": "contract ERC20",
          "name": "",
          "type": "address"
        }
      ],
      "stateMutability": "view",
      "type": "function"
    },
    {
      "inputs": [],
      "name": "version",
      "outputs": [
        {
          "internalType": "string",
          "name": "",
          "type": "string"
        }
      ],
      "stateMutability": "view",
      "type": "function"
    },
    {
      "inputs": [],
      "name": "wallet",
      "outputs": [
        {
          "internalType": "address",
          "name": "",
          "type": "address"
        }
      ],
      "stateMutability": "view",
      "type": "function"
    },
    {
      "inputs": [],
      "name": "weiRaised",
      "outputs": [
        {
          "internalType": "uint256",
          "name": "",
          "type": "uint256"
        }
      ],
      "stateMutability": "view",
      "type": "function"
    },
    {
      "stateMutability": "payable",
      "type": "receive"
    }
  ],
  "bytecode": "0x60c06040526003608081905262302e3360e81b60a090815262000026916000919062000855565b50670de0b6b3a7640000608181905562000042906001620009c3565b60825560815462000055906001620009c3565b6084553480156200006557600080fd5b5060405162002cef38038062002cef8339810160408190526200008891620008fb565b6001641c35fedd1560601b036021556001646c3390ecc9605e1b036022556001640cf801476160611b0360235560016431bdb23e1d605f1b0360245560016502fb1d8fe083605b1b0360255560016505b771955b37605a1b036026556001650af67a93bb5160591b0360275560016515060c256cb360581b036028556001651428a2f98d7360581b036029556001654d515663970960561b03602a55600165944620b0e70f60551b03602b55600166011c592761c66760541b03602c5560016602214d10d014eb60531b03602d55600166020ade36b7dbef60531b03602e5560016603eab73b3bbfe360521b03602f556001660782ee3593f6d760511b036030556001661ccf4b44bb4821604f1b0360315560016606e7f88ad8a77760511b0360325560016669f3d1c921891d604d1b03603355600166cb2ff529eb71e5604c1b03603455600166c2d415c3db974b604c1b0360355560016702eb40f9f620fda7604a1b0360365560016705990681d961a1eb60491b03603755600167055e12902701414760491b0360385560016714962dee9dc9764160471b0360395560016704ef57b9b560fab560491b03603a5560016712ed7b32a58f552b60471b03603b556001679131271922eaa60760441b03603c556001678b380f3558668c4760441b03603d556001680215f77c045fbe885760421b03603e556001600160831b03603f556001670f577eded5773a1160471b0360409081556001680eb5ec597592befbf5603f1b036041556001681c35fedd14b861eb05603e1b036042556001683619c87664579bc94b603d1b0360435560016867c00a3b07ffc01fd7603c1b03604455600168c6f6c8f8739773a7a5603b1b03604555600168bec763f8209b7a72b1603b1b0360465560016902dbb8caad9b7097b91b60391b03604755600169057b3d49dda84556d6f760381b03604855600169054183095b2c8ececf3160381b036049556001690a14517cc6b9457111ef60371b03604a5560016913545598e5c23276ccf160361b03604b556001692511882c39c3adea96ff60351b03604c55600169471649d87199aa99075760341b03604d557004429a21a029d4c1457cfbffffffffffff604e55700415bc6d6fb7dd71af2cb3ffffffffffff604f557003eab73b3bbfe282243ce1ffffffffffff6050557003c1771ac9fb6b4c18e229ffffffffffff605155700399e96897690418f785257fffffffffff605255700373fc456c53bb779bf0ea9fffffffffff60535570034f9e8e490c48e67e6ab8bfffffffffff60545570032cbfd4a7adc790560b3337ffffffffff60555570030b50570f6e5d2acca94613ffffffffff6056557002eb40f9f620fda6b56c2861ffffffffff6057557002cc8340ecb0d0f520a6af58ffffffffff6058557002af09481380a0a35cf1ba02ffffffffff605955700292c5bdd3b92ec810287b1b3fffffffff605a55700277abdcdab07d5a77ac6d6b9fffffffff605b5570025daf6654b1eaa55fd64df5efffffffff605c55700244c49c648baa98192dce88b7ffffffff605d5570022ce03cd5619a311b2471268bffffffff605e55700215f77c045fbe885654a44a0fffffffff605f556001600160811b036060557001eaefdbdaaee7421fc4d3ede5ffffffff6061557001d6bd8b2eb257df7e8ca57b09bfffffff6062557001c35fedd14b861eb0443f7f133fffffff6063557001b0ce43b322bcde4a56e8ada5afffffff60645570019f0028ec1fff007f5a195a39dfffffff60655570018ded91f0e72ee74f49b15ba527ffffff60665570017d8ec7f04136f4e5615fd41a63ffffff60675570016ddc6556cdb84bdc8d12d22e6fffffff60685570015ecf52776a1155b5bd8395814f7fffff60695570015060c256cb23b3b3cc3754cf40ffffff606a557001428a2f98d728ae223ddab715be3fffff606b5570013545598e5c23276ccf0ede68034fffff606c557001288c4161ce1d6f54b7f61081194fffff606d5570011c592761c666aa641d5a01a40f17ffff606e55700110a688680a7530515f3e6e6cfdcdffff606f557001056f1b5bedf75c6bcb2ce8aed428ffff6070556ffaadceceeff8a0890f3875f008277fff6071556ff05dc6b27edad306388a600f6ba0bfff6072556fe67a5a25da41063de1495d5b18cdbfff6073556fdcff115b14eedde6fc3aa5353f2e4fff6074556fd3e7a3924312399f9aae2e0f868f8fff6075556fcb2ff529eb71e41582cccd5a1ee26fff6076556fc2d415c3db974ab32a51840c0b67edff6077556fbad03e7d883f69ad5b0a186184e06bff6078556fb320d03b2c343d4829abd6075f0cc5ff6079556fabc25204e02828d73c6e80bcdb1a95bf607a556fa4b16f74ee4bb2040a1ec6c15fbbf2df607b556f9deaf736ac1f569deb1b5ae3f36c130f607c556f976bd9952c7aa957f5937d790ef65037607d556f9131271922eaa6064b73a22d0bd4f2bf607e556f8b380f3558668c46c91c49a2f8e967b9607f556f857ddf0117efa215952912839f6473e66080556083849055516001600160a01b03831615159060008051602062002ccf83398151915290620007e49085906200098a565b60405180910390a26040516001600160a01b03821615159060008051602062002ccf833981519152906200081a90849062000942565b60405180910390a2608680546001600160a01b039384166001600160a01b031991821617909155608580549290931691161790555062000a45565b8280546200086390620009ef565b90600052602060002090601f016020900481019282620008875760008555620008d2565b82601f10620008a257805160ff1916838001178555620008d2565b82800160010185558215620008d2579182015b82811115620008d2578251825591602001919060010190620008b5565b50620008e0929150620008e4565b5090565b5b80821115620008e05760008155600101620008e5565b60008060006060848603121562000910578283fd5b835192506020840151620009248162000a2c565b6040850151909250620009378162000a2c565b809150509250925092565b60408082526016908201527f416464726573732f6164647265737328746f6b656e290000000000000000000060608201526001600160a01b0391909116602082015260800190565b6040808252600e908201526d1059191c995cdccbd5d85b1b195d60921b60608201526001600160a01b0391909116602082015260800190565b6000816000190483118215151615620009ea57634e487b7160e01b81526011600452602481fd5b500290565b60028104600182168062000a0457607f821691505b6020821081141562000a2657634e487b7160e01b600052602260045260246000fd5b50919050565b6001600160a01b038116811462000a4257600080fd5b50565b61227a8062000a556000396000f3fe6080604052600436106100ab5760003560e01c806374e2f5621161006457806374e2f56214610188578063826398521461019d57806396365d44146101bd578063ec8ac4d8146101d2578063f51e181a146101e5578063fc0c546a146101fa576100bb565b80630c7d5cd8146100c457806329a00e7c146100ef5780634042b66f1461010f57806349f9b0f714610124578063521eb2731461014457806354fd4d5014610166576100bb565b366100bb576100b93361020f565b005b6100b93361020f565b3480156100d057600080fd5b506100d9610494565b6040516100e691906120c9565b60405180910390f35b3480156100fb57600080fd5b506100d961010a366004611f02565b61049a565b34801561011b57600080fd5b506100d9610565565b34801561013057600080fd5b506100d961013f366004611f02565b61056b565b34801561015057600080fd5b50610159610648565b6040516100e69190611f48565b34801561017257600080fd5b5061017b610657565b6040516100e69190611f75565b34801561019457600080fd5b506100d96106e5565b3480156101a957600080fd5b506100d96101b8366004611ed2565b6106eb565b3480156101c957600080fd5b506100d9610707565b6100b96101e0366004611e8b565b61020f565b3480156101f157600080fd5b506100d961070d565b34801561020657600080fd5b50610159610713565b3461021a8282610722565b6000610225826107c4565b6085546040516370a0823160e01b815291925082916001600160a01b03909116906370a082319061025a903090600401611f48565b60206040518083038186803b15801561027257600080fd5b505afa158015610286573d6000803e3d6000fd5b505050506040513d601f19601f820116820180604052508101906102aa9190611eea565b6085546040516370a0823160e01b81529290911015917f9f83a56b6b62f46d9c0e9818a1661f72ca56ba06cff353d059436e5832127d84916001600160a01b0316906370a0823190610300903090600401611f48565b60206040518083038186803b15801561031857600080fd5b505afa15801561032c573d6000803e3d6000fd5b505050506040513d601f19601f820116820180604052508101906103509190611eea565b60405161035d9190611ff4565b60405180910390a26085546040516370a0823160e01b815282916001600160a01b0316906370a0823190610395903090600401611f48565b60206040518083038186803b1580156103ad57600080fd5b505afa1580156103c1573d6000803e3d6000fd5b505050506040513d601f19601f820116820180604052508101906103e59190611eea565b101515157f9f83a56b6b62f46d9c0e9818a1661f72ca56ba06cff353d059436e5832127d8482604051610418919061209a565b60405180910390a260875461042d90836107cf565b60875561043a83826107e2565b826001600160a01b0316336001600160a01b03167f623b3804fa71d67900d064613da8f94b9617215ee90799290593e1745087ad18848460405161047f9291906120d2565b60405180910390a361048f6107ec565b505050565b60835481565b600080851180156104ab5750600084115b80156104bd575060008363ffffffff16115b80156104d25750620f424063ffffffff841611155b6104db57600080fd5b816104e85750600061055d565b63ffffffff8316620f424014156105145761050d846105078785610828565b90610834565b905061055d565b6000808061052285886107cf565b9050610533818888620f4240610840565b9093509150600060ff83166105488a86610828565b901c90506105568982612172565b9450505050505b949350505050565b60875481565b6000808511801561057c5750600084115b801561058e575060008363ffffffff16115b80156105a35750620f424063ffffffff841611155b80156105af5750848211155b6105b857600080fd5b816105c55750600061055d565b848214156105d457508261055d565b63ffffffff8316620f424014156105f35761050d856105078685610828565b600080806106018589612172565b90506106128882620f424089610840565b909350915060006106238885610828565b905060ff831688901b61063a856105078484610967565b9a9950505050505050505050565b6086546001600160a01b031681565b60008054610664906121c9565b80601f0160208091040260200160405190810160405280929190818152602001828054610690906121c9565b80156106dd5780601f106106b2576101008083540402835291602001916106dd565b820191906000526020600020905b8154815290600101906020018083116106c057829003601f168201915b505050505081565b60845481565b60006106ff6084546082546083548561049a565b90505b919050565b60825481565b60815481565b6085546001600160a01b031681565b6040516001600160a01b0383161515907facc1fbd861d476a3b70596fb49d0ebb80e2e5d077cdde5d17d8abcd924ef8d209061075f90859061202c565b60405180910390a2604051811515907f9f83a56b6b62f46d9c0e9818a1661f72ca56ba06cff353d059436e5832127d849061079b908490611fc8565b60405180910390a26001600160a01b0382166107b657600080fd5b806107c057600080fd5b5050565b60006106ff82610973565b60006107db82846120e0565b9392505050565b6107c082826109a8565b6086546040516001600160a01b03909116903480156108fc02916000818181858888f19350505050158015610825573d6000803e3d6000fd5b50565b60006107db8284612153565b60006107db828461211d565b600080600160811b861061086457634e487b7160e01b600052600160045260246000fd5b8486101561088d5760405162461bcd60e51b815260040161088490612063565b60405180910390fd5b6000808661089f6001607f1b8a612153565b6108a9919061211d565b905070015bf0a8b1457695355fb8ac404e7a79e38110156108d4576108cd81610a2c565b91506108e0565b6108dd81610fa5565b91505b60008563ffffffff168763ffffffff16846108fb9190612153565b610905919061211d565b9050600160831b81101561092a5761091c81611094565b607f9450945050505061095e565b6000610935826116bf565b905061095161094582607f612189565b60ff1683901c826117b5565b9550935061095e92505050565b94509492505050565b60006107db8284612172565b60008061097f836106eb565b60845490915061098f90826107cf565b60845560825461099f90846107cf565b60825592915050565b60855460405163a9059cbb60e01b81526001600160a01b039091169063a9059cbb906109da9085908590600401611f5c565b602060405180830381600087803b1580156109f457600080fd5b505af1158015610a08573d6000803e3d6000fd5b505050506040513d601f19601f8201168201806040525081019061048f9190611eb2565b6000808080806fd3094c70f034de4b96ff7d5b6f99fcd88610610a8557610a576001607e1b856120e0565b93506fd3094c70f034de4b96ff7d5b6f99fcd8610a786001607f1b88612153565b610a82919061211d565b95505b6fa45af1e1f40c333b3de1db4dd55f29a78610610ad857610aaa6001607d1b856120e0565b93506fa45af1e1f40c333b3de1db4dd55f29a7610acb6001607f1b88612153565b610ad5919061211d565b95505b6f910b022db7ae67ce76b441c27035c6a18610610b2b57610afd6001607c1b856120e0565b93506f910b022db7ae67ce76b441c27035c6a1610b1e6001607f1b88612153565b610b28919061211d565b95505b6f88415abbe9a76bead8d00cf112e4d4a88610610b7e57610b506001607b1b856120e0565b93506f88415abbe9a76bead8d00cf112e4d4a8610b716001607f1b88612153565b610b7b919061211d565b95505b6f84102b00893f64c705e841d5d4064bd38610610bd157610ba36001607a1b856120e0565b93506f84102b00893f64c705e841d5d4064bd3610bc46001607f1b88612153565b610bce919061211d565b95505b6f8204055aaef1c8bd5c3259f4822735a28610610c2457610bf6600160791b856120e0565b93506f8204055aaef1c8bd5c3259f4822735a2610c176001607f1b88612153565b610c21919061211d565b95505b6f810100ab00222d861931c15e39b44e998610610c7757610c49600160781b856120e0565b93506f810100ab00222d861931c15e39b44e99610c6a6001607f1b88612153565b610c74919061211d565b95505b6f808040155aabbbe9451521693554f7338610610cca57610c9c600160771b856120e0565b93506f808040155aabbbe9451521693554f733610cbd6001607f1b88612153565b610cc7919061211d565b95505b610cd86001607f1b87612172565b92508291506001607f1b610cec8380612153565b610cf6919061211d565b9050600160801b610d078482612172565b610d119084612153565b610d1b919061211d565b610d2590856120e0565b93506001607f1b610d368284612153565b610d40919061211d565b9150600160811b610d61846faaaaaaaaaaaaaaaaaaaaaaaaaaaaaaaa612172565b610d6b9084612153565b610d75919061211d565b610d7f90856120e0565b93506001607f1b610d908284612153565b610d9a919061211d565b9150600360801b610dbb846f99999999999999999999999999999999612172565b610dc59084612153565b610dcf919061211d565b610dd990856120e0565b93506001607f1b610dea8284612153565b610df4919061211d565b9150600160821b610e15846f92492492492492492492492492492492612172565b610e1f9084612153565b610e29919061211d565b610e3390856120e0565b93506001607f1b610e448284612153565b610e4e919061211d565b9150600560801b610e6f846f8e38e38e38e38e38e38e38e38e38e38e612172565b610e799084612153565b610e83919061211d565b610e8d90856120e0565b93506001607f1b610e9e8284612153565b610ea8919061211d565b9150600360811b610ec9846f8ba2e8ba2e8ba2e8ba2e8ba2e8ba2e8b612172565b610ed39084612153565b610edd919061211d565b610ee790856120e0565b93506001607f1b610ef88284612153565b610f02919061211d565b9150600760801b610f23846f89d89d89d89d89d89d89d89d89d89d89612172565b610f2d9084612153565b610f37919061211d565b610f4190856120e0565b93506001607f1b610f528284612153565b610f5c919061211d565b9150600160831b610f7d846f88888888888888888888888888888888612172565b610f879084612153565b610f91919061211d565b610f9b90856120e0565b9695505050505050565b60008082600160801b8110610fea576000610fcc610fc76001607f1b8461211d565b611e1c565b60ff811692831c92909150610fe6906001607f1b90612153565b9250505b6001607f1b81111561105f57607f5b60ff81161561105d576001607f1b6110118380612153565b61101b919061211d565b9150600160801b821061104d57600191821c916110389082612189565b60ff166001901b8361104a91906120e0565b92505b611056816121ac565b9050610ff9565b505b6f05b9de1d10bf4103d647b0955897ba8061108a6f03f80fe03f80fe03f80fe03f80fe03f884612153565b61055d919061211d565b60008080806110a76001607c1b86612204565b91508190506001607f1b6110bb8280612153565b6110c5919061211d565b90506110d9816710e1b3be415a0000612153565b6110e390846120e0565b92506001607f1b6110f48383612153565b6110fe919061211d565b9050611112816705a0913f6b1e0000612153565b61111c90846120e0565b92506001607f1b61112d8383612153565b611137919061211d565b905061114b81670168244fdac78000612153565b61115590846120e0565b92506001607f1b6111668383612153565b611170919061211d565b905061118381664807432bc18000612153565b61118d90846120e0565b92506001607f1b61119e8383612153565b6111a8919061211d565b90506111bb81660c0135dca04000612153565b6111c590846120e0565b92506001607f1b6111d68383612153565b6111e0919061211d565b90506111f3816601b707b1cdc000612153565b6111fd90846120e0565b92506001607f1b61120e8383612153565b611218919061211d565b905061122a816536e0f639b800612153565b61123490846120e0565b92506001607f1b6112458383612153565b61124f919061211d565b905061126181650618fee9f800612153565b61126b90846120e0565b92506001607f1b61127c8383612153565b611286919061211d565b905061129781649c197dcc00612153565b6112a190846120e0565b92506001607f1b6112b28383612153565b6112bc919061211d565b90506112cd81640e30dce400612153565b6112d790846120e0565b92506001607f1b6112e88383612153565b6112f2919061211d565b90506113038164012ebd1300612153565b61130d90846120e0565b92506001607f1b61131e8383612153565b611328919061211d565b9050611338816317499f00612153565b61134290846120e0565b92506001607f1b6113538383612153565b61135d919061211d565b905061136d816301a9d480612153565b61137790846120e0565b92506001607f1b6113888383612153565b611392919061211d565b90506113a181621c6380612153565b6113ab90846120e0565b92506001607f1b6113bc8383612153565b6113c6919061211d565b90506113d5816201c638612153565b6113df90846120e0565b92506001607f1b6113f08383612153565b6113fa919061211d565b905061140881611ab8612153565b61141290846120e0565b92506001607f1b6114238383612153565b61142d919061211d565b905061143b8161017c612153565b61144590846120e0565b92506001607f1b6114568383612153565b611460919061211d565b905061146d816014612153565b61147790846120e0565b92506001607f1b6114888383612153565b611492919061211d565b905061149f816001612153565b6114a990846120e0565b92506001607f1b826114c36721c3677c82b400008661211d565b6114cd91906120e0565b6114d791906120e0565b92506001607c1b85161561151f5770018ebef9eac820ae8682b9793ac6d1e776611512847001c3d6a24ed82218787d624d3e5eba95f9612153565b61151c919061211d565b92505b6001607d1b851615611565577001368b2fc6f9609fe7aceb46aa619baed46115588470018ebef9eac820ae8682b9793ac6d1e778612153565b611562919061211d565b92505b6001607e1b8516156115aa576fbc5ab1b16779be3575bd8f0520a9f21f61159d847001368b2fc6f9609fe7aceb46aa619baed5612153565b6115a7919061211d565b92505b6001607f1b8516156115ee576f454aaa8efe072e7f6ddbab84b40a55c96115e1846fbc5ab1b16779be3575bd8f0520a9f21e612153565b6115eb919061211d565b92505b600160801b851615611632576f0960aadc109e7a3bf4578099615711ea611625846f454aaa8efe072e7f6ddbab84b40a55c5612153565b61162f919061211d565b92505b600160811b851615611675576e2bf84208204f5977f9a8cf01fdce3d611668846f0960aadc109e7a3bf4578099615711d7612153565b611672919061211d565b92505b600160821b8516156116b6576d03c6ab775dd0b95b4cbee7e65d116116a9846e2bf84208204f5977f9a8cf01fdc307612153565b6116b3919061211d565b92505b50909392505050565b60006020607f5b60ff81166116d58360016120f8565b60ff16101561173657600060026116ec83856120f8565b6116f69190612131565b90508460018260ff166080811061171d57634e487b7160e01b600052603260045260246000fd5b01541061172c57809250611730565b8091505b506116c6565b8360018260ff166080811061175b57634e487b7160e01b600052603260045260246000fd5b01541061176b5791506107029050565b8360018360ff166080811061179057634e487b7160e01b600052603260045260246000fd5b01541061179f57509050610702565b634e487b7160e01b600052600160045260246000fd5b6000828160ff84166117c78380612153565b901c91506117e5826f03442c4e6074a82f1797f72ac0000000612153565b6117ef90826120e0565b905060ff84166117ff8684612153565b901c915061181d826f0116b96f757c380fb287fd0e40000000612153565b61182790826120e0565b905060ff84166118378684612153565b901c9150611854826e45ae5bdd5f0e03eca1ff4390000000612153565b61185e90826120e0565b905060ff841661186e8684612153565b901c915061188b826e0defabf91302cd95b9ffda50000000612153565b61189590826120e0565b905060ff84166118a58684612153565b901c91506118c2826e02529ca9832b22439efff9b8000000612153565b6118cc90826120e0565b905060ff84166118dc8684612153565b901c91506118f8826d54f1cf12bd04e516b6da88000000612153565b61190290826120e0565b905060ff84166119128684612153565b901c915061192e826d0a9e39e257a09ca2d6db51000000612153565b61193890826120e0565b905060ff84166119488684612153565b901c9150611964826d012e066e7b839fa050c309000000612153565b61196e90826120e0565b905060ff841661197e8684612153565b901c9150611999826c1e33d7d926c329a1ad1a800000612153565b6119a390826120e0565b905060ff84166119b38684612153565b901c91506119ce826c02bee513bdb4a6b19b5f800000612153565b6119d890826120e0565b905060ff84166119e88684612153565b901c9150611a02826b3a9316fa79b88eccf2a00000612153565b611a0c90826120e0565b905060ff8416611a1c8684612153565b901c9150611a36826b048177ebe1fa812375200000612153565b611a4090826120e0565b905060ff8416611a508684612153565b901c9150611a69826a5263fe90242dcbacf00000612153565b611a7390826120e0565b905060ff8416611a838684612153565b901c9150611a9c826a057e22099c030d94100000612153565b611aa690826120e0565b905060ff8416611ab68684612153565b901c9150611ace826957e22099c030d9410000612153565b611ad890826120e0565b905060ff8416611ae88684612153565b901c9150611b008269052b6b54569976310000612153565b611b0a90826120e0565b905060ff8416611b1a8684612153565b901c9150611b3182684985f67696bf748000612153565b611b3b90826120e0565b905060ff8416611b4b8684612153565b901c9150611b62826803dea12ea99e498000612153565b611b6c90826120e0565b905060ff8416611b7c8684612153565b901c9150611b92826731880f2214b6e000612153565b611b9c90826120e0565b905060ff8416611bac8684612153565b901c9150611bc28267025bcff56eb36000612153565b611bcc90826120e0565b905060ff8416611bdc8684612153565b901c9150611bf182661b722e10ab1000612153565b611bfb90826120e0565b905060ff8416611c0b8684612153565b901c9150611c20826601317c70077000612153565b611c2a90826120e0565b905060ff8416611c3a8684612153565b901c9150611c4e82650cba84aafa00612153565b611c5890826120e0565b905060ff8416611c688684612153565b901c9150611c7b826482573a0a00612153565b611c8590826120e0565b905060ff8416611c958684612153565b901c9150611ca8826405035ad900612153565b611cb290826120e0565b905060ff8416611cc28684612153565b901c9150611cd482632f881b00612153565b611cde90826120e0565b905060ff8416611cee8684612153565b901c9150611d00826301b29340612153565b611d0a90826120e0565b905060ff8416611d1a8684612153565b901c9150611d2b82620efc40612153565b611d3590826120e0565b905060ff8416611d458684612153565b901c9150611d5582617fe0612153565b611d5f90826120e0565b905060ff8416611d6f8684612153565b901c9150611d7f82610420612153565b611d8990826120e0565b905060ff8416611d998684612153565b901c9150611da8826021612153565b611db290826120e0565b905060ff8416611dc28684612153565b901c9150611dd1826001612153565b611ddb90826120e0565b9050600160ff85161b85611dff6f0688589cc0e9505e2f2fee55800000008461211d565b611e0991906120e0565b611e1391906120e0565b95945050505050565b60008082610100811015611e50575b6001811115611e4b57600190811c90611e4490836120f8565b9150611e2b565b611e84565b60805b60ff811615611e8257600160ff82161b8210611e77579182179160ff81169190911c905b60011c607f16611e53565b505b5092915050565b600060208284031215611e9c578081fd5b81356001600160a01b03811681146107db578182fd5b600060208284031215611ec3578081fd5b815180151581146107db578182fd5b600060208284031215611ee3578081fd5b5035919050565b600060208284031215611efb578081fd5b5051919050565b60008060008060808587031215611f17578283fd5b8435935060208501359250604085013563ffffffff81168114611f38578283fd5b9396929550929360600135925050565b6001600160a01b0391909116815260200190565b6001600160a01b03929092168252602082015260400190565b6000602080835283518082850152825b81811015611fa157858101830151858201604001528201611f85565b81811115611fb25783604083870101525b50601f01601f1916929092016040019392505050565b6040808252600a908201526917ddd95a505b5bdd5b9d60b21b6060820152602081019190915260800190565b604080825260169082015275273ab6b132b917ba37b5b2b7173130b630b731b2a7b360511b6060820152602081019190915260800190565b6040808252600c908201526b5f62656e656669636961727960a01b60608201526001600160a01b0391909116602082015260800190565b6020808252601c908201527f4261736573203c203120617265206e6f7420737570706f727465642e00000000604082015260600190565b6040808252600d908201526c4e756d6265722f746f6b656e7360981b6060820152602081019190915260800190565b90815260200190565b918252602082015260400190565b600082198211156120f3576120f3612218565b500190565b600060ff821660ff84168060ff0382111561211557612115612218565b019392505050565b60008261212c5761212c61222e565b500490565b600060ff8316806121445761214461222e565b8060ff84160491505092915050565b600081600019048311821515161561216d5761216d612218565b500290565b60008282101561218457612184612218565b500390565b600060ff821660ff8416808210156121a3576121a3612218565b90039392505050565b600060ff8216806121bf576121bf612218565b6000190192915050565b6002810460018216806121dd57607f821691505b602082108114156121fe57634e487b7160e01b600052602260045260246000fd5b50919050565b6000826122135761221361222e565b500690565b634e487b7160e01b600052601160045260246000fd5b634e487b7160e01b600052601260045260246000fdfea2646970667358221220ba91625adeec066121ad6bec581c3154002a131643ed40a0b38903fa138e53c264736f6c63430008000033acc1fbd861d476a3b70596fb49d0ebb80e2e5d077cdde5d17d8abcd924ef8d20",
  "linkReferences": {},
  "deployedLinkReferences": {}
}