{
  "_format": "hh-sol-artifact-1",
  "contractName": "PostDeliveryCrowdsale",
  "sourceName": "contracts/crowdsale/distrbution/PostDeliveryCrowdsale.sol",
  "abi": [
    {
      "inputs": [
        {
          "internalType": "uint256",
          "name": "_rate",
          "type": "uint256"
        },
        {
          "internalType": "address",
          "name": "_wallet",
          "type": "address"
        },
        {
          "internalType": "contract ERC20",
          "name": "_token",
          "type": "address"
        },
        {
          "internalType": "uint256",
          "name": "openingTime_",
          "type": "uint256"
        },
        {
          "internalType": "uint256",
          "name": "closingTime_",
          "type": "uint256"
        }
      ],
      "stateMutability": "nonpayable",
      "type": "constructor"
    },
    {
      "anonymous": false,
      "inputs": [
        {
          "indexed": false,
          "internalType": "string",
          "name": "name",
          "type": "string"
        },
        {
          "indexed": false,
          "internalType": "address",
          "name": "value",
          "type": "address"
        },
        {
          "indexed": true,
          "internalType": "bool",
          "name": "status",
          "type": "bool"
        }
      ],
      "name": "DebugAddress",
      "type": "event"
    },
    {
      "anonymous": false,
      "inputs": [
        {
          "indexed": false,
          "internalType": "string",
          "name": "name",
          "type": "string"
        },
        {
          "indexed": false,
          "internalType": "string",
          "name": "value",
          "type": "string"
        },
        {
          "indexed": true,
          "internalType": "bool",
          "name": "status",
          "type": "bool"
        }
      ],
      "name": "DebugString",
      "type": "event"
    },
    {
      "anonymous": false,
      "inputs": [
        {
          "indexed": false,
          "internalType": "string",
          "name": "name",
          "type": "string"
        },
        {
          "indexed": false,
          "internalType": "uint256",
          "name": "value",
          "type": "uint256"
        },
        {
          "indexed": true,
          "internalType": "bool",
          "name": "status",
          "type": "bool"
        }
      ],
      "name": "DebugUint256",
      "type": "event"
    },
    {
      "anonymous": false,
      "inputs": [
        {
          "indexed": true,
          "internalType": "address",
          "name": "purchaser",
          "type": "address"
        },
        {
          "indexed": true,
          "internalType": "address",
          "name": "beneficiary",
          "type": "address"
        },
        {
          "indexed": false,
          "internalType": "uint256",
          "name": "value",
          "type": "uint256"
        },
        {
          "indexed": false,
          "internalType": "uint256",
          "name": "amount",
          "type": "uint256"
        }
      ],
      "name": "TokenPurchase",
      "type": "event"
    },
    {
      "stateMutability": "payable",
      "type": "fallback"
    },
    {
      "inputs": [
        {
          "internalType": "address",
          "name": "account",
          "type": "address"
        }
      ],
      "name": "balanceOf",
      "outputs": [
        {
          "internalType": "uint256",
          "name": "",
          "type": "uint256"
        }
      ],
      "stateMutability": "view",
      "type": "function"
    },
    {
      "inputs": [
        {
          "internalType": "address",
          "name": "_beneficiary",
          "type": "address"
        }
      ],
      "name": "buyTokens",
      "outputs": [],
      "stateMutability": "payable",
      "type": "function"
    },
    {
      "inputs": [],
      "name": "closingTime",
      "outputs": [
        {
          "internalType": "uint256",
          "name": "",
          "type": "uint256"
        }
      ],
      "stateMutability": "view",
      "type": "function"
    },
    {
      "inputs": [],
      "name": "hasClosed",
      "outputs": [
        {
          "internalType": "bool",
          "name": "",
          "type": "bool"
        }
      ],
      "stateMutability": "view",
      "type": "function"
    },
    {
      "inputs": [],
      "name": "isOpen",
      "outputs": [
        {
          "internalType": "bool",
          "name": "",
          "type": "bool"
        }
      ],
      "stateMutability": "view",
      "type": "function"
    },
    {
      "inputs": [],
      "name": "openingTime",
      "outputs": [
        {
          "internalType": "uint256",
          "name": "",
          "type": "uint256"
        }
      ],
      "stateMutability": "view",
      "type": "function"
    },
    {
      "inputs": [],
      "name": "rate",
      "outputs": [
        {
          "internalType": "uint256",
          "name": "",
          "type": "uint256"
        }
      ],
      "stateMutability": "view",
      "type": "function"
    },
    {
      "inputs": [],
      "name": "token",
      "outputs": [
        {
          "internalType": "contract ERC20",
          "name": "",
          "type": "address"
        }
      ],
      "stateMutability": "view",
      "type": "function"
    },
    {
      "inputs": [],
      "name": "wallet",
      "outputs": [
        {
          "internalType": "address",
          "name": "",
          "type": "address"
        }
      ],
      "stateMutability": "view",
      "type": "function"
    },
    {
      "inputs": [],
      "name": "weiRaised",
      "outputs": [
        {
          "internalType": "uint256",
          "name": "",
          "type": "uint256"
        }
      ],
      "stateMutability": "view",
      "type": "function"
    },
    {
      "inputs": [
        {
          "internalType": "address",
          "name": "beneficiary",
          "type": "address"
        }
      ],
      "name": "withdrawTokens",
      "outputs": [],
      "stateMutability": "nonpayable",
      "type": "function"
    },
    {
      "stateMutability": "payable",
      "type": "receive"
    }
  ],
  "bytecode": "0x608060405234801561001057600080fd5b50604051610bc3380380610bc383398101604081905261002f9161013c565b84848484848484846000831115157f9f83a56b6b62f46d9c0e9818a1661f72ca56ba06cff353d059436e5832127d848460405161006c919061018f565b60405180910390a26040516001600160a01b038316151590600080516020610ba38339815191529061009f908590610204565b60405180910390a26040516001600160a01b038216151590600080516020610ba3833981519152906100d29084906101bc565b60405180910390a2600292909255600180546001600160a01b039283166001600160a01b031991821617909155600080549290931691161790554282101561011957600080fd5b81811161012557600080fd5b600491909155600555506102559650505050505050565b600080600080600060a08688031215610153578081fd5b8551945060208601516101658161023d565b60408701519094506101768161023d565b6060870151608090970151959894975095949392505050565b6040808252600b908201526a4e756d6265722f5261746560a81b6060820152602081019190915260800190565b60408082526016908201527f416464726573732f6164647265737328746f6b656e290000000000000000000060608201526001600160a01b0391909116602082015260800190565b6040808252600e908201526d1059191c995cdccbd5d85b1b195d60921b60608201526001600160a01b0391909116602082015260800190565b6001600160a01b038116811461025257600080fd5b50565b61093f806102646000396000f3fe6080604052600436106100a05760003560e01c80634b6753bc116100645780634b6753bc14610150578063521eb2731461016557806370a0823114610187578063b7a8807c146101a7578063ec8ac4d8146101bc578063fc0c546a146101cf576100b0565b80631515bc2b146100b95780632c4e722e146100e45780634042b66f1461010657806347535d7b1461011b57806349df728c14610130576100b0565b366100b0576100ae336101e4565b005b6100ae336101e4565b3480156100c557600080fd5b506100ce61047d565b6040516100db91906107d0565b60405180910390f35b3480156100f057600080fd5b506100f9610485565b6040516100db91906108a5565b34801561011257600080fd5b506100f961048b565b34801561012757600080fd5b506100ce610491565b34801561013c57600080fd5b506100ae61014b366004610744565b6104ac565b34801561015c57600080fd5b506100f9610507565b34801561017157600080fd5b5061017a61050d565b6040516100db91906107a3565b34801561019357600080fd5b506100f96101a2366004610744565b61051c565b3480156101b357600080fd5b506100f9610537565b6100ae6101ca366004610744565b6101e4565b3480156101db57600080fd5b5061017a61053d565b346101ef828261054c565b60006101fa82610567565b6000546040516370a0823160e01b815291925082916001600160a01b03909116906370a082319061022f9030906004016107a3565b60206040518083038186803b15801561024757600080fd5b505afa15801561025b573d6000803e3d6000fd5b505050506040513d601f19601f8201168201806040525081019061027f919061078b565b6000546040516370a0823160e01b81529290911015917f9f83a56b6b62f46d9c0e9818a1661f72ca56ba06cff353d059436e5832127d84916001600160a01b0316906370a08231906102d59030906004016107a3565b60206040518083038186803b1580156102ed57600080fd5b505afa158015610301573d6000803e3d6000fd5b505050506040513d601f19601f82011682018060405250810190610325919061078b565b6040516103329190610807565b60405180910390a26000546040516370a0823160e01b815282916001600160a01b0316906370a082319061036a9030906004016107a3565b60206040518083038186803b15801561038257600080fd5b505afa158015610396573d6000803e3d6000fd5b505050506040513d601f19601f820116820180604052508101906103ba919061078b565b101515157f9f83a56b6b62f46d9c0e9818a1661f72ca56ba06cff353d059436e5832127d84826040516103ed9190610876565b60405180910390a26003546104029083610584565b60035561040f8382610597565b826001600160a01b0316336001600160a01b03167f623b3804fa71d67900d064613da8f94b9617215ee90799290593e1745087ad1884846040516104549291906108ae565b60405180910390a36104668383610503565b61046e6105da565b6104788383610503565b505050565b600554421190565b60025481565b60035481565b600060045442101580156104a757506005544211155b905090565b6104b461047d565b6104bd57600080fd5b6001600160a01b038116600090815260066020526040902054806104e057600080fd5b6001600160a01b0382166000908152600660205260408120556105038282610616565b5050565b60055490565b6001546001600160a01b031681565b6001600160a01b031660009081526006602052604090205490565b60045490565b6000546001600160a01b031681565b610554610491565b61055d57600080fd5b610503828261069a565b600061057e6002548361073890919063ffffffff16565b92915050565b600061059082846108bc565b9392505050565b6001600160a01b0382166000908152600660205260409020546105ba9082610584565b6001600160a01b0390921660009081526006602052604090209190915550565b6001546040516001600160a01b03909116903480156108fc02916000818181858888f19350505050158015610613573d6000803e3d6000fd5b50565b60005460405163a9059cbb60e01b81526001600160a01b039091169063a9059cbb9061064890859085906004016107b7565b602060405180830381600087803b15801561066257600080fd5b505af1158015610676573d6000803e3d6000fd5b505050506040513d601f19601f82011682018060405250810190610478919061076b565b6040516001600160a01b0383161515907facc1fbd861d476a3b70596fb49d0ebb80e2e5d077cdde5d17d8abcd924ef8d20906106d790859061083f565b60405180910390a2604051811515907f9f83a56b6b62f46d9c0e9818a1661f72ca56ba06cff353d059436e5832127d84906107139084906107db565b60405180910390a26001600160a01b03821661072e57600080fd5b8061050357600080fd5b600061059082846108d4565b600060208284031215610755578081fd5b81356001600160a01b0381168114610590578182fd5b60006020828403121561077c578081fd5b81518015158114610590578182fd5b60006020828403121561079c578081fd5b5051919050565b6001600160a01b0391909116815260200190565b6001600160a01b03929092168252602082015260400190565b901515815260200190565b6040808252600a908201526917ddd95a505b5bdd5b9d60b21b6060820152602081019190915260800190565b604080825260169082015275273ab6b132b917ba37b5b2b7173130b630b731b2a7b360511b6060820152602081019190915260800190565b6040808252600c908201526b5f62656e656669636961727960a01b60608201526001600160a01b0391909116602082015260800190565b6040808252600d908201526c4e756d6265722f746f6b656e7360981b6060820152602081019190915260800190565b90815260200190565b918252602082015260400190565b600082198211156108cf576108cf6108f3565b500190565b60008160001904831182151516156108ee576108ee6108f3565b500290565b634e487b7160e01b600052601160045260246000fdfea2646970667358221220a3aac40bb0d74d46083fe92e6db33475f38b39beb49727ee66e558bea034d9c164736f6c63430008000033acc1fbd861d476a3b70596fb49d0ebb80e2e5d077cdde5d17d8abcd924ef8d20",
  "linkReferences": {},
  "deployedLinkReferences": {}
}